:100000000C9434000C9449000C9449000C94490061
:100010000C9449000C9449000C9449000C9449003C
:100020000C9449000C9449000C9449000C9449002C
:100030000C9449000C9449000C9449000C9449001C
:100040000C9449000C9449000C9449000C9449000C
:100050000C9449000C9449000C9449000C944900FC
:100060000C9449000C94490011241FBECFEFD8E036
:10007000DEBFCDBF11E0A0E0B1E0EAEFF2E002C0E8
:1000800005900D92A835B107D9F70E9452010C9442
:100090007B010C94000095B19F70282F207F922B3C
:1000A00095B995B19E7F95B995B1926095B90000CB
:1000B00095B19D7F95B932E43A95F1F700C025B12D
:1000C00030E1839FC0011124922F9F70892B85B945
:1000D00085B1826085B9000085B18D7F85B983EFD8
:1000E00091E00197F1F700C00000089595B19F706D
:1000F000282F207F922B95B995B1916095B995B134
:10010000926095B9000095B19D7F95B932E43A951A
:10011000F1F700C025B130E1839FC0011124922F77
:100120009F70892B85B985B1826085B9000085B142
:100130008D7F85B983EF91E00197F1F700C0000052
:1001400008958FEF84B987E893E10197F1F700C034
:10015000000082E00E944B0088E20E944B008CE08D
:100160000E944B0086E00E944B0081E00E944B0001
:1001700083EF91E00197F1F700C0000008950F931D
:100180001F93CF93DF938C01C0E0D0E0F801EC0F18
:10019000FD1F8081882321F00E9476002196F6CFF2
:1001A000DF91CF911F910F91089581E00E944B0044
:1001B00083EF91E00197F1F700C0000080E80E9412
:1001C0004B0008950E94D50080E091E00E94BF009E
:1001D0002FE986E891E0215080409040E1F700C08F
:1001E000000008950E94D50088E091E00E94BF00C1
:1001F0002FE986E891E0215080409040E1F700C06F
:10020000000008950E94D50087E191E00E94BF00A0
:100210002FE986E891E0215080409040E1F700C04E
:10022000000008950E94D50084E291E00E94BF0082
:100230002FE986E891E0215080409040E1F700C02E
:10024000000008950E94D50082E391E00E94BF0063
:100250002FE986E891E0215080409040E1F700C00E
:10026000000008950E94D5008DE391E00E94BF0038
:100270002FE986E891E0215080409040E1F700C0EE
:10028000000008950E94D5008AE491E00E94BF001A
:100290002FE986E891E0215080409040E1F700C0CE
:1002A000000008951AB80E94A1000E94E20089B1DE
:1002B000813019F40E94F200FACF89B1823019F42A
:1002C0000E940201F4CF89B1843019F40E943201F6
:1002D000EECF89B1883019F40E942201E8CF89B1AC
:1002E000803119F40E941201E2CF89B18032F9F60F
:0A02F0000E944201DCCFF894FFCF1A
:1002FA0054696D652E2E2E005072657373656420E5
:10030A0053656C6563740050726573736564204C41
:10031A006566740050726573736564205269676814
:10032A00740050726573736564205570005072656D
:10033A007373656420446F776E00507265737365DA
:08034A0064204261636B0000B6
:00000001FF
