:100000000C9436000C945E000C945E000C945E0020
:100010000C945E000C945E000C945E000C945E00E8
:100020000C945E000C945E000C945E000C945E00D8
:100030000C945E000C945E000C945E000C945E00C8
:100040000C945E000C945E000C945E000C945E00B8
:100050000C945E000C945E000C945E000C945E00A8
:100060000C945E000C945E0038025A0D11241FBEE1
:10007000CFEFD8E0DEBFCDBF15E0A0E0B1E0ECE00F
:10008000FEE202C005900D92AC3EB107D9F726E022
:10009000ACEEB5E001C01D92A830B207E1F710E068
:1000A000C6E3D0E004C02197FE010E94FE16C433CF
:1000B000D107C9F70E942F020C9404170C9400007A
:1000C0009DEC899F912D1124969596959695292FB3
:1000D000220F920F292F220F820F0895282F30E030
:1000E00035952795359527953595279535952795F8
:1000F000922F990F290F922F990F891B08950E9413
:100100001E0183E08A95F1F70895CF92EF92FF9256
:100110000F931F93CF93DF93C82FD62F142FF22E58
:1001200080ED0E944A0180E00E947C018C2D0E949B
:1001300060000E947C018E2D0E9460000E947C0164
:10014000802F0E9460000E947C018F2D0E94600021
:100150000E947C01812F0E9460000E947C018D2FF3
:100160000E9460000E947C018C2F0E9460000E940F
:100170007C0180E00E947C010E947401DF91CF919C
:100180001F910F91FF90EF90CF9008956F927F9203
:100190008F929F92AF92BF92CF92DF92EF92FF9297
:1001A0000F931F93CF93DF93EC013B015A01490159
:1001B00080ED0E944A0180E00E947C010E9474014F
:1001C00081ED0E9471010E948E018F770E946E0066
:1001D000F60180830E948E010E946E00F7018083E9
:1001E0000E948E010E946E00F80180830E948E01A1
:1001F0000E946E00F40180830E948E010E946E00B6
:10020000F50180830E948E010E946E00F3018083BD
:100210000E9498010E946E0088830E947401DF9101
:10022000CF911F910F91FF90EF90DF90CF90BF90F3
:10023000AF909F908F907F906F9008951092B9002B
:100240008DEF8093B800089594EA9093BC0090914C
:10025000BC009923E4F79091B900987F983011F091
:10026000903191F48093BB0084E88093BC0080912E
:10027000BC008823E4F78091B900887F883131F091
:10028000803431F480E0089581E0089580E008959D
:1002900081E0089594EA9093BC009091BC0099236A
:1002A000E4F79091B900987F983011F0903191F770
:1002B0008093BB0094E89093BC009091BC0099237C
:1002C000E4F79091B900987F903211F0983541F49D
:1002D00094E99093BC009091BC0094FDFCCFDACFE0
:1002E00008950E942401089584E98093BC008091C0
:1002F000BC0084FDFCCF08958093BB0084E880930C
:10030000BC008091BC008823E4F78091B900887F0D
:10031000883211F081E0089580E0089584EC8093A4
:10032000BC008091BC008823E4F78091BB00089555
:1003300084E88093BC008091BC008823E4F780911E
:10034000BB0008958CEE95E00E948503882351F050
:100350008CEE95E00E9471038CEE95E00E94E00225
:1003600089E5089588B18F6088B940E050E0443055
:1003700051050CF04FC087B1807F87B984B1887F69
:1003800084B927B181E090E0042E02C0880F991F44
:100390000A94E2F7922F982B97B998B18095892308
:1003A00088B920E030E0233031058CF565B181E07B
:1003B00090E0022E02C0880F991F0A94E2F7862B64
:1003C00085B983B190E0022E02C0959587950A9475
:1003D000E2F780FD19C0CA01880F991F480F591F05
:1003E00040505F4FFA01E20FF31F808191E08A32A3
:1003F00009F490E0992331F091E0833209F490E020
:10040000911109C088E508952F5F3F4FCCCF4F5F12
:100410005F4FADCF88E50895CF93DF93EC01CE0118
:100420000E94A2018835D9F320E23EE4211531056E
:1004300039F0E9E1F0E03197F1F721503109F6CFD9
:10044000DF91CF910895019749F46F3F7F4F31F4C9
:1004500063E070E08DEE95E00E94610D08950E94CA
:100460007F008FEE95E00E94B1020E94490DFDCF02
:100470006FEF7FEF81E090E00E94230208958BB13F
:100480008F70962F907F892B8BB98BB18E7F8BB914
:100490008BB182608BB981E0982F9A95F1F79BB16F
:1004A0009D7F9BB992E49A95F1F79BB120E1629F01
:1004B000B00111249F70692B6BB99BB192609BB9FD
:1004C0008A95F1F78BB18D7F8BB984EF91E001971D
:1004D000F1F708958BB18F70962F907F892B8BB990
:1004E0008BB181608BB98BB182608BB981E0982F21
:1004F0009A95F1F79BB19D7F9BB992E49A95F1F79C
:100500009BB120E1629FB00111249F70692B6BB9F0
:100510009BB192609BB98A95F1F78BB18D7F8BB9B6
:1005200084EF91E00197F1F70895EF92FF920F9316
:100530001F93CF93DF937C018B01C0E0D0E0F801E3
:10054000EC0FFD1F6081662329F0C7010E946A023B
:100550002196F5CFDF91CF911F910F91FF90EF90F2
:100560000895CF93DF93EC018FEF8AB988E893E188
:100570000197F1F762E0CE010E943F0268E2CE01EE
:100580000E943F026CE0CE010E943F0266E0CE0175
:100590000E943F0261E0CE010E943F0268E874E0E1
:1005A000CE010E94950280E197E2009731F0E9E1E7
:1005B000F0E03197F1F70197F8CFDF91CF910895EF
:1005C000CF93DF93EC0161E00E943F0284EF91E062
:1005D0000197F1F760E8CE010E943F02DF91CF91D1
:1005E00008958FEC84B98AB1837F8AB91C9B0AC0B5
:1005F00088E99AE3009751F1E9E1F0E03197F1F7EA
:100600000197F8CF1D9B0AC088E99AE3009701F192
:10061000E9E1F0E03197F1F70197F8CF4A9B0AC082
:1006200088E99AE30097B1F0E9E1F0E03197F1F75A
:100630000197F8CF4B9BDACF88E99AE3009761F0F6
:10064000E9E1F0E03197F1F70197F8CF83E70895FA
:1006500082E6089585E7089584E608958FEC84B9CD
:100660008AB1837F8AB91C9B0AC088E99AE3009704
:1006700051F1E9E1F0E03197F1F70197F8CF1D9BD7
:100680000AC088E99AE3009701F1E9E1F0E03197C7
:10069000F1F70197F8CF4A9B0AC088E99AE30097DF
:1006A000B1F0E9E1F0E03197F1F70197F8CF4B9B1A
:1006B00010C088E99AE3009771F0E9E1F0E0319722
:1006C000F1F70197F8CF83E7089582E6089585E76B
:1006D000089580E3089584E608956FE00E943F0244
:1006E00008956CE00E943F0208951C9B0AC080E1BF
:1006F00097E2009741F0E9E1F0E03197F1F70197D7
:10070000F8CF80E0089581E008951D9B0AC080E243
:100710009EE4009741F0E9E1F0E03197F1F70197AD
:10072000F8CF80E0089581E00895019749F46F3F84
:100730007F4F31F463E070E085E096E00E94610D48
:100740000895CF92DF92EF92FF920F931F93CF9372
:1007500060E884E096E00E943F020F2EFCEFCF2E6F
:10076000F5E0DF2EF02D0F2EFDEFEF2EF5E0FF2E42
:10077000F02D0EEF15E02FEF35E040E056E061E0A0
:1007800076E082E096E00E94C60060E974E084E0D2
:1007900096E00E9495026091FE05CDEC6C9F612D64
:1007A0001124669566956695605D84E096E00E94EA
:1007B0006A026091FE056C9F812D112486958695B5
:1007C0008695880F982F990F990F890F681B605D88
:1007D00084E096E00E946A0267E974E084E096E0B3
:1007E0000E9495026091FD056C9F612D1124669514
:1007F00066956695605D84E096E00E946A0260916D
:10080000FD056C9F812D1124869586958695880F10
:10081000982F990F990F890F681B605D84E096E00F
:100820000E946A0267E974E084E096E00E94950203
:100830006091FC056C9F612D112466956695669507
:10084000605D84E096E00E946A026091FC056C9F06
:10085000812D1124869586958695880F982F990F5E
:10086000990F890F681B605D84E096E00E946A0220
:1008700060EC84E096E00E943F0269E974E084E065
:1008800096E00E94950260EA74E084E096E00E949F
:100890009502609102066C9F612D11246695669504
:1008A0006695605D84E096E00E946A0260910206AF
:1008B0006C9F812D1124869586958695880F982F9B
:1008C000990F990F890F681B605D84E096E00E9484
:1008D0006A0263EA74E084E096E00E949502609107
:1008E00001066C9F612D1124669566956695605D85
:1008F00084E096E00E946A02609101066C9F812D5F
:100900001124869586958695880F982F990F990FB3
:10091000890F681B605D84E096E00E946A0263EACA
:1009200074E084E096E00E949502609100066C9F5E
:10093000612D1124669566956695605D84E096E06C
:100940000E946A02609100066C9FC12D1124C69519
:10095000C695C695CC0F8C2F880F880FC80F6C1BBF
:10096000605D84E096E00E946A02CF911F910F9132
:10097000FF90EF90DF90CF900895CF93DF93EC013D
:1009800021E030E0E0E0F0E0C217D3076CF0C901ED
:1009900083709927892B19F4E259FE4F02C0E3595D
:1009A000FE4F2F5F3F4FF0CF20E030E0DB0111978B
:1009B0002A173B073CF591E0DE01A370BB27AB2B68
:1009C00009F090E0992391F091E02130310509F090
:1009D00090E0992359F0D901AA0FBB1FA455BE4F2F
:1009E0008D919C91E80FF91F319609C0D901AA0F8A
:1009F000BB1FA455BE4F8D919C91E80FF91F2F5F2F
:100A00003F4FD4CF4E0F5F1FCA01059667E070E0DD
:100A10000E94D616DF91CF910895AF92BF92CF92E8
:100A2000DF92EF92FF920F931F93CF93DF9380910A
:100A3000F0059091F105059701F584E096E00E949C
:100A4000E00265EA74E084E096E00E94950260ECC2
:100A500084E096E00E943F0263EB74E084E096E05D
:100A60000E94950280E29EE4009709F444C1E9E106
:100A7000F0E03197F1F70197F7CF84E096E00E941C
:100A8000E0026CEB74E084E096E00E94950260E87E
:100A900084E096E00E943F0284E096E00E946D03AD
:100AA00083E096E00E940C02C82F893509F423C127
:100AB000682F84E096E00E946A0283E096E00E943C
:100AC0000C02082F893509F416C1682F84E096E0DE
:100AD0000E946A0264EC74E084E096E00E94950251
:100AE00083E096E00E940C02F82E89E5F81609F4DE
:100AF00002C16F2D84E096E00E946A0283E096E0D6
:100B00000E940C02D82E89E5D81609F4F4C06D2D88
:100B100084E096E00E946A0284E096E00E947103FD
:100B200080E29EE4009731F0E9E1F0E03197F1F7DF
:100B30000197F8CFD0E0E0979E01220F331FCE013E
:100B4000880F991F880F991F880F991F820F931F75
:100B500010E000531109800F911F4897C4F48F2DA6
:100B600090E0C0977C01EE0CFF1C880F991F880F46
:100B7000991F880F991FE80EF91ECD2CD12C80E308
:100B8000C81AD108C7018C0D9D1DCC97BCF084E01C
:100B900096E00E94E00268EC74E084E096E00E9437
:100BA000950280E197E2009731F0E9E1F0E03197BA
:100BB000F1F70197F8CF0E940D059DC084E096E003
:100BC0000E94E00269ED74E084E096E00E949502E4
:100BD00080E197E2009731F0E9E1F0E03197F1F739
:100BE0000197F8CF84E096E00E94E0026CE071E0AB
:100BF00084E096E00E949502A12CB12CB50185E01D
:100C000096E00E947514843649F484E0A816B10475
:100C100009F458C08FEFA81AB80A5BC0853741F4B1
:100C2000A114B10409F451C081E0A81AB10851C05F
:100C3000823609F460C0833709F04BC02091F0057B
:100C40003091F10588EE93E0C89FA001C99F500D37
:100C5000D89F500D112464E6609FC001619F900DE4
:100C60001124840F951FE80EF91ECE0CDF1CC9015C
:100C7000880F991FFC01E253FE4FD182C082FC0114
:100C8000EC53FE4FB182A08284E096E00E94E00225
:100C900067EE74E084E096E00E94950280E197E2BE
:100CA000009731F0E9E1F0E03197F1F70197F8CFE3
:100CB0008091F0059091F10501969093F105809354
:100CC000F00519C0A12CB12C04C06894AA24A2F884
:100CD000B12C84E096E00E94E002B5016295729525
:100CE000707F7627607F7627645F7E4F84E096E092
:100CF0000E94950283CFDF91CF911F910F91FF90BA
:100D0000EF90DF90CF90BF90AF900895CF92DF9299
:100D1000EF92FF920F931F93CF93DF938091CE01B9
:100D20009091CF010196B1F484E096E00E94E00238
:100D300066EF74E084E096E00E94950261E384E04F
:100D400096E00E946A0268EF74E084E096E00E94F8
:100D500095024CC084E096E00E94E00266EF74E0E9
:100D600084E096E00E94950261E384E096E00E94B0
:100D70006A026FEF74E084E096E00E949502209191
:100D8000CE013091CF01C90164E670E00E94D61611
:100D90007B018C01C90168EE73E00E94D616605D8C
:100DA00084E096E00E946A02CAE0D0E0C701BE017A
:100DB0000E94D61660E3680F84E096E00E946A0203
:100DC00067E974E084E096E00E949502C801BE01E4
:100DD0000E94D616C82F605D84E096E00E946A02E9
:100DE00060E36C0F84E096E00E946A02C0E0D0E00D
:100DF00084E096E00E94F102843631F4C430D105DB
:100E000009F468C021966BC0853729F4209709F44E
:100E100064C0219764C0833709F059C084E096E02C
:100E20000E94E00262E075E084E096E00E94950294
:100E300060EC84E096E00E943F0260E175E084E0AF
:100E400096E00E94950284E096E00E947503882354
:100E5000B1F1CE0184309105F4F4AC014F5F5F4FE6
:100E60009A01220F331FF901E253FE4F6081718115
:100E7000880F991FFC01E253FE4F71836083F901D3
:100E8000EC53FE4F20813181FC01EC53FE4F318346
:100E90002083CA01DFCF8FEF9FEF9093D70180931C
:100EA000D6019093CD018093CC018091F005909173
:100EB000F10501979093F1058093F00510C084E04F
:100EC00096E00E948503882309F4BDCF08C08236CE
:100ED00031F476C0C0E0D0E002C0C4E0D0E0FE0152
:100EE000EE0FFF1FE253FE4F808191810196B9F40E
:100EF00084E096E00E94E00266EF74E084E096E011
:100F00000E9495026C2F6F5C84E096E00E946A025A
:100F100068EF74E084E096E00E94950269CF84E077
:100F200096E00E94E00266EF74E084E096E00E94A2
:100F300095026C2F6F5C84E096E00E946A026FEF6E
:100F400074E084E096E00E949502FE01EE0FFF1F20
:100F5000E253FE4F20813181C90164E670E00E94B6
:100F6000D6166B017C01C90168EE73E00E94D616AB
:100F7000605D84E096E00E946A020AE010E0C6012B
:100F8000B8010E94D61660E3680F84E096E00E94E4
:100F90006A0267E974E084E096E00E949502C70166
:100FA000B8010E94D616182F605D84E096E00E947A
:100FB0006A0260E3610F84E096E00E946A0218CF43
:100FC000DF91CF911F910F91FF90EF90DF90CF9025
:100FD0000895CF92EF920F9384E096E00E94E00292
:100FE00062E075E084E096E00E94950260EC84E0A7
:100FF00096E00E943F0260E175E084E096E00E9486
:10100000950284E096E00E947503882309F4AAC043
:10101000C12CE12C00E020E041E061E080E00E9492
:10102000850061E275E084E096E00E94950280E12F
:1010300097E2009731F0E9E1F0E03197F1F701979D
:10104000F8CF6DE275E084E096E00E94950280E1C1
:1010500097E2009731F0E9E1F0E03197F1F701977D
:10106000F8CF6DE275E084E096E00E94950280E1A1
:1010700097E2009731F0E9E1F0E03197F1F701975D
:10108000F8CF6DE275E084E096E00E94950280E181
:1010900097E2009731F0E9E1F0E03197F1F701973D
:1010A000F8CF84E096E00E94E00284EC99E001979A
:1010B000F1F761E275E084E096E00E94950280E13C
:1010C00097E2009731F0E9E1F0E03197F1F701970D
:1010D000F8CF6DE275E084E096E00E94950280E131
:1010E00097E2009731F0E9E1F0E03197F1F70197ED
:1010F000F8CF6DE275E084E096E00E94950280E111
:1011000097E2009731F0E9E1F0E03197F1F70197CC
:10111000F8CF6DE275E084E096E00E94950280E1F0
:1011200097E2009731F0E9E1F0E03197F1F70197AC
:10113000F8CF84E096E00E94E0026FE275E084E080
:1011400096E00E94950280E197E2009731F0E9E194
:10115000F0E03197F1F70197F8CF84E096E00E9434
:10116000E00207C084E096E00E948503882309F42A
:1011700048CF0F91EF90CF900895CF92DF92EF92EA
:10118000FF920F931F93CF93DF930F2EFCEFCF2E81
:10119000F5E0DF2EF02D0F2EFDEFEF2EF5E0FF2E08
:1011A000F02D0EEF15E02FEF35E040E056E061E066
:1011B00076E082E096E00E94C600C0E0D0E0C53054
:1011C000D1050CF0BCC0FE01EE0FFF1FE253FE4F35
:1011D000208131812F3F8FEF380709F4B0C0C9015A
:1011E00064E670E00E94D6168091FE0590E06817D4
:1011F000790709F0A2C0C90164E670E00E94D61622
:101200002091FD0530E08217930709F096C084E035
:1012100096E00E94E00267E375E084E096E00E94B9
:1012200095026091FE051DEC619F612D112466956C
:1012300066956695605D84E096E00E946A02809102
:10124000FE05819F912D1124969596959695990F5F
:10125000292F220F220F920F891B60E3680F84E071
:1012600096E00E946A0267E974E084E096E00E94DA
:1012700095026091FD05619F612D1124669566952B
:101280006695605D84E096E00E946A029091FD059B
:10129000919F812D1124869586958695880F282FFC
:1012A000220F220F820F981B60E3690F84E096E003
:1012B0000E946A02FE01EE0FFF1FEC53FE4F608199
:1012C000718185E096E00E94751484E096E00E94AA
:1012D000E002C430D105ECF49E012F5F3F4FC901FD
:1012E000880F991FFC01E253FE4F40815181CC0FC2
:1012F000DD1FFE01E253FE4F51834083FC01EC539E
:10130000FE4F80819181CC53DE4F99838883E90120
:10131000E0CF8FEF9FEF9093D7018093D60190930A
:10132000CD018093CC018091F0059091F10501975A
:101330009093F1058093F00502C0219640CFDF9194
:10134000CF911F910F91FF90EF90DF90CF90089574
:101350000F931F93CF93DF938C01C0E0D0E0C017B1
:10136000D1073CF464E184E096E00E943F022196BC
:10137000F6CFDF91CF911F910F9108950F931F9397
:10138000CF93DF938C01C0E0D0E0C017D1073CF4CD
:1013900060E184E096E00E943F022196F6CFDF9163
:1013A000CF911F910F9108958F929F92AF92BF920C
:1013B000CF92EF920F93CF93DF9384E096E00E9459
:1013C000E0026DE375E084E096E00E94950260EC37
:1013D00084E096E00E943F026CEB74E084E096E0CB
:1013E0000E94950260EC84E096E00E943F0284E057
:1013F00096E00E946D0383E096E00E940C02282F85
:1014000030E020533109C901880F991F220F331F83
:10141000220F331F220F331F820F931F9093F70564
:101420008093F6058A3921E0920709F41CC26AE02C
:1014300070E00E94D616605D84E096E00E946A0229
:1014400083E096E00E940C0290E0C0972091F605A0
:101450003091F705820F931F9093F7058093F6055F
:10146000833C21E0920709F4FEC16AE070E00E942B
:10147000D61660E3680F84E096E00E946A0284E07A
:1014800096E00E94710384E294EF0197F1F7809156
:10149000F6059091F705489764F060EC84E096E0DB
:1014A0000E943F026BE475E084E096E00E949502A2
:1014B00099CF64EC74E084E096E00E94950284E0A9
:1014C00096E00E946D0383E096E00E940C02282FB4
:1014D00030E020533109C901880F991F220F331FB3
:1014E000220F331F220F331F820F931F9093F50596
:1014F0008093F4058A3921E0920709F4B4C16AE0C7
:1015000070E00E94D616605D84E096E00E946A0258
:1015100083E096E00E940C0290E0C0972091F405D1
:101520003091F505820F931F9093F5058093F40594
:10153000833C21E0920709F496C16AE070E00E94C2
:10154000D61660E3680F84E096E00E946A0284E2A7
:1015500094EF0197F1F784E096E00E947103809187
:10156000F4059091F505CC97A4F060EC84E096E04A
:101570000E943F0285E090E00E94A80961EC74E0BF
:1015800084E096E00E94950282E090E00E94BE090D
:1015900096CF88E893E1009731F0E9E1F0E03197E8
:1015A000F1F70197F8CF84E096E00E94E0026EE444
:1015B00075E084E096E00E94950260EC84E096E09D
:1015C0000E943F026CE575E084E096E00E9495027F
:1015D00060EC84E096E00E943F0284E096E00E9486
:1015E0006D0383E096E00E940C0290E0C097EC014E
:1015F000CC0FDD1F880F991F880F991F880F991F27
:10160000C80FD91FCA3981E0D80709F42CC1CE010F
:101610006AE070E00E94D616605D84E096E00E9469
:101620006A0283E096E00E940C0290E0C097C80F27
:10163000D91F8091F6059091F705833C914009F4FC
:1016400012C1CE016AE070E00E94D61660E3680F16
:1016500084E096E00E946A0284E096E00E947103B2
:1016600084E294EF0197F1F764EC74E084E096E093
:101670000E94950284E096E00E946D0383E096E06C
:101680000E940C02282F30E020533109C901880F35
:10169000991F220F331F220F331F220F331F820F78
:1016A000931F9093FB058093FA058A3921E09207F6
:1016B00009F4D9C06AE070E00E94D616605D84E04B
:1016C00096E00E946A0283E096E00E940C0290E09D
:1016D000C0972091FA053091FB05820F931F9093DC
:1016E000FB058093FA05833C21E0920709F4BBC017
:1016F0006AE070E00E94D61660E3680F84E096E02E
:101700000E946A0284E294EF0197F1F784E096E088
:101710000E9471038091FA059091FB050D97A4F04A
:1017200060EC84E096E00E943F0285E090E00E9439
:10173000A80969E675E084E096E00E94950282E0DF
:1017400090E00E94BE0996CF64EC74E084E096E0DD
:101750000E94950284E096E00E946D0383E096E08B
:101760000E940C02282F30E020533109C901880F54
:10177000991F220F331F220F331F220F331F820F97
:10178000931F9093F9058093F8058A3921E0920719
:1017900009F469C06AE070E00E94D616605D84E0DA
:1017A00096E00E946A0283E096E00E940C0290E0BC
:1017B0009C01205331098091F8059091F905820F21
:1017C000931F9093F9058093F805833C21E09207DD
:1017D00009F449C06AE070E00E94D61660E3680F21
:1017E00084E096E00E946A0284E294EF0197F1F7A8
:1017F00084E096E00E947103A090FA05B090FB058A
:10180000F5013197EE0FFF1FE455FE4F8081918166
:101810008090F8059090F90588169906A4F060EC80
:1018200084E096E00E943F028AE090E00E94A809CE
:1018300066E675E084E096E00E94950282E090E022
:101840000E94BE0987CFA401B501CE010E94BD044C
:10185000E090F4050091F605C12C282F482D6A2D43
:101860008C2F0E948500DF91CF910F91EF90CF9048
:10187000BF90AF909F908F9008950F931F93CF9339
:10188000DF938C01C0E0D0E0F801EC0FFD1F608118
:10189000662351F084E096E00E946A0288EA91E6AD
:1018A0000197F1F72196F0CFDF91CF911F910F9122
:1018B000089584E096E00E94E00280EB95E00E94AB
:1018C0003D0C60EC84E096E00E943F028EEB95E0D8
:1018D0000E943D0C80E197E2009731F0E9E1F0E0F1
:1018E0003197F1F70197F8CF84E096E00E94E0028B
:1018F0008AEC95E00E943D0C80E197E2009731F080
:10190000E9E1F0E03197F1F70197F8CF84E096E054
:101910000E94E00285ED95E00E943D0C80E197E297
:10192000009731F0E9E1F0E03197F1F70197F8CF56
:1019300084E096E00E94E0028CED95E00E943D0C70
:1019400080E197E2009731F0E9E1F0E03197F1F7BB
:101950000197F8CF84E096E00E94E00284EE95E0E3
:101960000E943D0C80E197E2009731F0E9E1F0E060
:101970003197F1F70197F8CF84E096E00E94E002FA
:10198000089584E096E00E94E0026091F205709173
:10199000F30562957295707F7627607F7627645A8B
:1019A0007E4F84E096E00E94950284E096E00E94DB
:1019B000F102843691F48091F2059091F305843020
:1019C000910529F41092F3051092F20543C0019697
:1019D0009093F3058093F2053DC0853799F480918B
:1019E000F2059091F305009739F484E090E090932C
:1019F000F3058093F2052EC001979093F305809331
:101A0000F20528C0823619F40E94490D08958337E3
:101A100009F58091F2059091F3058230910591F0DE
:101A20002CF4009749F0019751F014C083309105D0
:101A300061F0049769F00EC00E940D050BC00E9472
:101A4000D40908C00E94860605C00E94E90702C0AA
:101A50000E94590C84E096E00E94E0026091F20539
:101A60007091F30562957295707F7627607F762777
:101A7000645A7E4F84E096E00E94950288E893E1E4
:101A8000009709F492CFE9E1F0E03197F1F701977F
:101A9000F7CF0E94A1030E94BD0884E096E00E9457
:101AA0007503882331F084E096E00E94E0020E94F2
:101AB000C10C08956FEF7FEF81E090E00E949503E5
:101AC0000895FC017183608308952F923F924F9295
:101AD0005F926F927F928F929F92AF92BF92CF92BE
:101AE000DF92EF92FF920F931F93CF93DF93CDB7C7
:101AF000DEB762970FB6F894DEBF0FBECDBF1C01F4
:101B00006A017B01C901B80120E030E040E05FE3F9
:101B10000E9469164B015C0124B181E090E0F10163
:101B2000008002C0880F991F0A94E2F7822B84B9C3
:101B300020E030E0A901C701B6010E94051581111E
:101B4000DAC025B181E090E0F101008002C0880F89
:101B5000991F0A94E2F78095822385B92BEA3AEA25
:101B60004AEA5EE3C501B4010E9469166B017C017B
:101B700020E030E040E85EE3C501B4010E94691650
:101B80002B013C0120E030E040E85FE3C701B601F3
:101B90000E94051588230CF466C020E03FEF4FE754
:101BA00057E4C301B2010E94641618160CF043C03A
:101BB00020E030E04AE754E4C501B4010E940A1570
:101BC0002B013C0120E030E04AE753E40E94691613
:101BD0006B017C0120E030E040E85FE30E940515E6
:101BE00088231CF120E03FEF4FE757E4C701B6011F
:101BF0000E9464161816A4F420E030E040E251E49C
:101C0000C301B2010E9469160E9483156115710516
:101C100069F189E190E00197F1F761507109F6CF20
:101C2000C701B6010E94831502C061E070E0CB01DC
:101C30000197F1F71BC020E030E04FE753E4C70104
:101C4000B6010E946416181644F4C301B2010E9442
:101C50008315CB010197F1F70CC0C701B6010E94B3
:101C60008315698703C021E0298700C089858A958B
:101C7000F1F7A5019401C501B4010E9499144B012B
:101C80005C0120E030E04AE753E40E9469166B01F2
:101C90007C0120E030E040E85FE30E9405158823E6
:101CA00024F120E03FEF4FE757E4C701B6010E945F
:101CB00064161816ACF420E030E040E251E4C501AF
:101CC000B4010E9469160E9483156115710509F41B
:101CD0008CC189E190E00197F1F761507109F5CF6E
:101CE000C701B6010E94831502C061E070E0CB011C
:101CF0000197F1F77AC1A701960160E070E080E8F2
:101D00009FE30E940A1520E030E04AE754E40E9475
:101D100069166B017C01A5019401C501B4010E9403
:101D20009914A70196010E940A150E947C152B01A7
:101D30003C0120E030E040E05FE3C701B6010E94D3
:101D4000691669877A878B879C87E0E0F0E0FA8BD9
:101D5000E98B19810D8129893A89C901330FAA0BB1
:101D6000BB0B84159505A605B7050CF03EC120E018
:101D700030E04AE754E469857A858B859C850E942A
:101D800069164B015C012BEA3AEA4AEA5EE30E94DB
:101D900069166B017C0120E030E040E85EE3C5019C
:101DA000B4010E94691669837A838B839C8320E047
:101DB00030E040E85FE3C701B6010E9405158823C3
:101DC0000CF474C020E03FEF4FE757E469817A815B
:101DD0008B819C810E94641618160CF04DC020E087
:101DE00030E04AE754E4C501B4010E940A156D874A
:101DF0007E878F87988B20E030E04AE753E40E948B
:101E000069166D837E838F83988720E030E040E8F9
:101E10005FE30E94051588234CF120E03FEF4FE778
:101E200057E46D817E818F8198850E946416181613
:101E3000B4F420E030E040E251E46D857E858F858A
:101E400098890E9469160E9483156115710581F1B8
:101E500089E190E00197F1F761507109F6CF6D814A
:101E60007E818F8198850E94831502C061E070E0B9
:101E7000CB010197F1F71CC020E030E04FE753E4BD
:101E8000C701B6010E946416181654F469817A815C
:101E90008B819C810E948315CB010197F1F70BC0C8
:101EA000C701B6010E948315062F02C001E000C0E1
:101EB000802F8A95F1F725B181E090E0F101008053
:101EC00002C0880F991F0A94E2F7822B85B920E09F
:101ED00030E040E85FE3C701B6010E9405158823A2
:101EE0000CF46AC020E03FEF4FE757E469817A8144
:101EF0008B819C810E94641618160CF043C020E070
:101F000030E04AE754E4C501B4010E940A154B01D0
:101F10005C0120E030E04AE753E40E9469166B015F
:101F20007C0120E030E040E85FE30E940515882353
:101F30001CF120E03FEF4FE757E4C701B6010E94D4
:101F400064161816A4F420E030E040E251E4C50124
:101F5000B4010E9469160E9483156115710571F123
:101F600089E190E00197F1F761507109F6CFC7015F
:101F7000B6010E94831502C061E070E0CB010197B9
:101F8000F1F71CC020E030E04FE753E4C701B60191
:101F90000E946416181654F469817A818B819C81A1
:101FA0000E948315CB010197F1F70BC0C701B60161
:101FB0000E948315162F02C011E000C0812F8A9560
:101FC000F1F725B181E090E0F101008002C0880FB7
:101FD000991F0A94E2F78095822385B929893A8965
:101FE0002F5F3F4F3A8B298BB6CE62960FB6F8948F
:101FF000DEBF0FBECDBFDF91CF911F910F91FF903C
:10200000EF90DF90CF90BF90AF909F908F907F9098
:102010006F905F904F903F902F9008952F923F9236
:102020004F925F926F927F928F929F92AF92BF92E8
:10203000CF92DF92EF92FF920F931F93CF93DF9394
:10204000CDB7DEB765970FB6F894DEBF0FBECDBF34
:102050006C018AE0E8EDF1E0DE01119601900D924D
:102060008A95E1F78AE0E2EEF1E0DE011B9601904D
:102070000D928A95E1F7212C312C80E38D8B03C0E2
:1020800022242394312C2114310409F07AC0E12C4C
:10209000F12C95E0E916F104B4F787E096E00E9490
:1020A0002E038D8B803361F78701000F111FE1E054
:1020B000F0E0EC0FFD1F0E0F1F1FF8016285738506
:1020C00088EC90E00E94D616072E000C880B990B26
:1020D0000E94B4152B013C01F80160817181072E2B
:1020E000000C880B990B0E94B415AB01BC01930145
:1020F0008201C6010E94650DA3019201C301B201D4
:102100000E9499144B015C0120E030E04AE753E45F
:102110000E9469162B013C0120E030E040E85FE3BB
:102120000E94051588231CF120E03FEF4FE757E49C
:10213000C301B2010E9464161816A4F420E030E036
:1021400040E251E4C501B4010E9469160E94831562
:102150006115710589F089E190E00197F1F761500F
:102160007109F6CFC301B2010E94831502C061E07C
:1021700070E0CB010197F1F715B8FFEFEF1AFF0AF6
:1021800088CF80EA9FE0009731F0E9E1F0E03197F5
:10219000F1F70197F8CF8D8965960FB6F894DEBFF9
:1021A0000FBECDBFDF91CF911F910F91FF90EF90A8
:1021B000DF90CF90BF90AF909F908F907F906F9067
:1021C0005F904F903F902F9008952F923F924F92A3
:1021D0005F926F927F928F929F92AF92BF92CF92B7
:1021E000DF92EF92FF920F931F93CF93DF93CDB7C0
:1021F000DEB7C154D1400FB6F894DEBF0FBECDBFDD
:102200006C0180EAECEEF1E0DE01119601900D9296
:102210008A95E1F780EAECE8F2E0DE01AF55BF4FC6
:1022200001900D928A95E1F7212C312C80E3CF5B50
:10223000DE4F8883C154D14003C022242394312C23
:102240002114310409F084C0E12CF12C80E5E8165A
:10225000F104B4F787E096E00E942E03CF5BDE4FD7
:102260008883C154D140803341F78701000F111F8B
:10227000E1EAF0E0EC0FFD1FE00FF11F60817181DA
:1022800087E791E00E94D616072E000C880B990B69
:102290000E94B4152B013C01E1E0F0E0EC0FFD1FC2
:1022A000E00FF11F60817181072E000C880B990BE4
:1022B0000E94B415AB01BC0193018201C6010E94CA
:1022C000650D26E636E646EA5FE3C301B2010E94E9
:1022D00069164B015C0120E030E04AE753E40E94BC
:1022E00069162B013C0120E030E040E85FE30E94EA
:1022F000051588231CF120E03FEF4FE757E4C301A9
:10230000B2010E9464161816A4F420E030E040E206
:1023100051E4C501B4010E9469160E94831561153C
:10232000710589F089E190E00197F1F76150710939
:10233000F6CFC301B2010E94831502C061E070E0D4
:10234000CB010197F1F715B88FEFE81AF80A7ECFA5
:1023500080EA9FE0009731F0E9E1F0E03197F1F792
:102360000197F8CFCF5BDE4F8881C154D140CF5B5E
:10237000DE4F0FB6F894DEBF0FBECDBFDF91CF9119
:102380001F910F91FF90EF90DF90CF90BF90AF9093
:102390009F908F907F906F905F904F903F902F9085
:1023A00008952F923F924F925F926F927F928F92F9
:1023B0009F92AF92BF92CF92DF92EF92FF920F93D4
:1023C0001F93CF93DF93CDB7DEB7C159D1090FB6B5
:1023D000F894DEBF0FBECDBF6C0188E4ECE2F3E001
:1023E000DE01119601900D928A95E1F788E4E4E709
:1023F000F3E0DE01A75BBF4F01900D928A95E1F7F4
:10240000212C312C80E3CF56DF4F8883C159D04037
:1024100003C022242394312C2114310409F084C0F8
:10242000E12CF12C84E2E816F104B4F787E096E0A1
:102430000E942E03CF56DF4F8883C159D04080338E
:1024400041F78701000F111FE9E4F0E0EC0FFD1FD9
:10245000E00FF11F6081718187E791E00E94D6163D
:10246000072E000C880B990B0E94B4152B013C0120
:10247000E1E0F0E0EC0FFD1FE00FF11F60817181E2
:10248000072E000C880B990B0E94B415AB01BC0100
:1024900093018201C6010E94650D26E636E646EAF2
:1024A0005FE3C301B2010E9469164B015C0120E0A9
:1024B00030E04AE753E40E9469162B013C0120E01A
:1024C00030E040E85FE30E94051588231CF120E01E
:1024D0003FEF4FE757E4C301B2010E94641618169C
:1024E000A4F420E030E040E251E4C501B4010E94D0
:1024F00069160E9483156115710589F089E190E0E4
:102500000197F1F761507109F6CFC301B2010E9442
:10251000831502C061E070E0CB010197F1F715B8B7
:102520008FEFE81AF80A7ECF80EA9FE0009731F03B
:10253000E9E1F0E03197F1F70197F8CFCF56DF4F9F
:102540008881C159D040CF56DF4F0FB6F894DEBF17
:102550000FBECDBFDF91CF911F910F91FF90EF90F4
:10256000DF90CF90BF90AF909F908F907F906F90B3
:102570005F904F903F902F9008952F923F924F92EF
:102580005F926F927F928F929F92AF92BF92CF9203
:10259000DF92EF92FF920F931F93CF93DF93CDB70C
:1025A000DEB7C555D1090FB6F894DEBF0FBECDBF5B
:1025B0006C018AE2ECEBF3E0DE01119601900D92E2
:1025C0008A95E1F78AE2E6EEF3E0DE019B96019060
:1025D0000D928A95E1F7212C312C80E366968FAF1E
:1025E000669703C022242394312C2114310409F06E
:1025F0007EC0E12CF12C95E1E916F104B4F787E0F7
:1026000096E00E942E0366968FAF6697803351F74F
:102610008701000F111FE1E0F0E0EC0FFD1F0E0F2E
:102620001F1FF80162A573A58FE595E00E94D616DD
:10263000072E000C880B990B0E94B4152B013C014E
:10264000F80160817181072E000C880B990B0E94A4
:10265000B415AB01BC0193018201C6010E94650D56
:1026600026E636E646EA5FE3C301B2010E94691638
:102670004B015C0120E030E04AE753E40E94691618
:102680002B013C0120E030E040E85FE30E940515AB
:1026900088231CF120E03FEF4FE757E4C301B2016C
:1026A0000E9464161816A4F420E030E040E251E4E1
:1026B000C501B4010E9469160E9483156115710558
:1026C00089F089E190E00197F1F761507109F6CF47
:1026D000C301B2010E94831502C061E070E0CB012A
:1026E0000197F1F715B8FFEFEF1AFF0A84CF66964E
:1026F0008FAD6697CB5ADF4F0FB6F894DEBF0FBE93
:10270000CDBFDF91CF911F910F91FF90EF90DF90A0
:10271000CF90BF90AF909F908F907F906F905F9081
:102720004F903F902F9008952F923F924F925F923B
:102730006F927F928F929F92AF92BF92CF92DF92D1
:10274000EF92FF920F931F93CF93DF93CDB7DEB736
:10275000C957D1090FB6F894DEBF0FBECDBF6C01CB
:102760008CE3E0E1F4E0DE01119601900D928A9590
:10277000E1F78CE3ECE4F4E0DE01DD9601900D92EC
:102780008A95E1F7212C312C80E3EA968FAFEA9706
:1027900003C022242394312C2114310409F07EC07B
:1027A000E12CF12C9EE1E916F104B4F787E096E004
:1027B0000E942E03EA968FAFEA97803351F7870184
:1027C000000F111FE1E0F0E0EC0FFD1F0E0F1F1FC7
:1027D000F80164AD75AD85E694E00E94D616072E2B
:1027E000000C880B990B0E94B4152B013C01F801D9
:1027F00060817181072E000C880B990B0E94B41523
:10280000AB01BC0193018201C6010E94650D26E661
:1028100036E646EA5FE3C301B2010E9469164B0146
:102820005C0120E030E04AE753E40E9469162B0186
:102830003C0120E030E040E85FE30E94051588237A
:102840001CF120E03FEF4FE757E4C301B2010E94C3
:1028500064161816A4F420E030E040E251E4C5010B
:10286000B4010E9469160E9483156115710589F0F3
:1028700089E190E00197F1F761507109F6CFC3014A
:10288000B2010E94831502C061E070E0CB010197A4
:10289000F1F715B8FFEFEF1AFF0A84CF80EA9FE047
:1028A000009731F0E9E1F0E03197F1F70197F8CFC7
:1028B000EA968FADEA97C758DF4F0FB6F894DEBFA0
:1028C0000FBECDBFDF91CF911F910F91FF90EF9081
:1028D000DF90CF90BF90AF909F908F907F906F9040
:1028E0005F904F903F902F90089562307105A9F04E
:1028F0003CF46115710559F06130710559F016C04D
:102900006330710569F06430710569F00FC00E9491
:102910000E1008950E94E51008950E94D1110895A7
:102920000E94BD1208950E949413089580E30895B3
:102930005058BB27AA270E94B0140C942A160E9454
:102940001C1638F00E94231620F039F49F3F19F42A
:1029500026F40C9419160EF4E095E7FB0C9413166C
:10296000E92F0E943B1658F3BA17620773078407D2
:10297000950720F079F4A6F50C945D160EF4E09519
:102980000B2EBA2FA02D0B01B90190010C01CA0129
:10299000A0011124FF27591B99F0593F50F4503ED4
:1029A00068F11A16F040A22F232F342F4427585FC6
:1029B000F3CF469537952795A795F0405395C9F7DE
:1029C0007EF41F16BA0B620B730B840BBAF0915096
:1029D000A1F0FF0FBB1F661F771F881FC2F70EC035
:1029E000BA0F621F731F841F48F487957795679508
:1029F000B795F7959E3F08F0B0CF9395880F08F0F4
:102A00009927EE0F9795879508950E94EF1508F482
:102A100081E008950E941E150C942A160E94231628
:102A200058F00E941C1640F029F45F3F29F00C94E6
:102A3000131651110C945E160C9419160E943B1635
:102A400068F39923B1F3552391F3951B550BBB27DD
:102A5000AA2762177307840738F09F5F5F4F220F22
:102A6000331F441FAA1FA9F335D00E2E3AF0E0E819
:102A700032D091505040E695001CCAF72BD0FE2F63
:102A800029D0660F771F881FBB1F261737074807F7
:102A9000AB07B0E809F0BB0B802DBF01FF279358AF
:102AA0005F4F3AF09E3F510578F00C9413160C944A
:102AB0005E165F3FE4F3983ED4F38695779567956D
:102AC000B795F7959F5FC9F7880F911D96958795E4
:102AD00097F90895E1E0660F771F881FBB1F621703
:102AE00073078407BA0720F0621B730B840BBA0BC1
:102AF000EE1F88F7E09508950E9483156894B11140
:102B00000C945E1608950E94431688F09F5798F023
:102B1000B92F9927B751B0F0E1F0660F771F881FE2
:102B2000991F1AF0BA95C9F714C0B13091F00E94FC
:102B30005D16B1E008950C945D16672F782F8827F5
:102B4000B85F39F0B93FCCF3869577956795B39523
:102B5000D9F73EF490958095709561957F4F8F4F92
:102B60009F4F0895E89409C097FB3EF49095809597
:102B7000709561957F4F8F4F9F4F9923A9F0F92F43
:102B800096E9BB279395F695879577956795B795C1
:102B9000F111F8CFFAF4BB0F11F460FF1BC06F5FA7
:102BA0007F4F8F4F9F4F16C0882311F096E911C0B9
:102BB000772321F09EE8872F762F05C0662371F0DA
:102BC00096E8862F70E060E02AF09A95660F771FEE
:102BD000881FDAF7880F9695879597F90895990FCA
:102BE0000008550FAA0BE0E8FEEF16161706E807D7
:102BF000F907C0F012161306E407F50798F0621BF8
:102C0000730B840B950B39F40A2661F0232B242BCC
:102C1000252B21F408950A2609F4A140A6958FEFEB
:102C2000811D811D089597F99F6780E870E060E03D
:102C300008959FEF80EC089500240A941616170655
:102C400018060906089500240A941216130614069D
:102C500005060895092E0394000C11F4882352F000
:102C6000BB0F40F4BF2B11F460FF04C06F5F7F4FB8
:102C70008F4F9F4F089557FD9058440F551F59F09F
:102C80005F3F71F04795880F97FB991F61F09F3F59
:102C900079F087950895121613061406551FF2CF82
:102CA0004695F1DF08C0161617061806991FF1CFD2
:102CB00086957105610508940895E894BB276627F9
:102CC0007727CB0197F908950E94EF1508F48FEF4D
:102CD00008950E947C160C942A160E941C1638F047
:102CE0000E94231620F0952311F00C9413160C94D7
:102CF000191611240C945E160E943B1670F3959FD2
:102D0000C1F3950F50E0551F629FF001729FBB27E2
:102D1000F00DB11D639FAA27F00DB11DAA1F649F7E
:102D20006627B00DA11D661F829F2227B00DA11D31
:102D3000621F739FB00DA11D621F839FA00D611DB7
:102D4000221F749F3327A00D611D231F849F600DD8
:102D5000211D822F762F6A2F11249F5750409AF001
:102D6000F1F088234AF0EE0FFF1FBB1F661F771F8D
:102D7000881F91505040A9F79E3F510580F00C9458
:102D800013160C945E165F3FE4F3983ED4F38695D9
:102D900077956795B795F795E7959F5FC1F7FE2BF8
:102DA000880F911D9695879597F9089597FB072EA3
:102DB00016F4009407D077FD09D00E94EA1607FCAC
:102DC00005D03EF4909581959F4F0895709561953B
:102DD0007F4F0895AA1BBB1B51E107C0AA1FBB1F51
:102DE000A617B70710F0A61BB70B881F991F5A9597
:102DF000A9F780959095BC01CD010895EE0FFF1FB6
:0C2E00000590F491E02D0994F894FFCFA8
:102E0C003132333435363738392A3023546F6E65C6
:102E1C00203100000000000000000000546F6E65BF
:102E2C00203200000000000000000000546F6E65AE
:102E3C00203300000000000000000000546F6E659D
:102E4C00203400000000000000000000546F6E658C
:102E5C0020350000000000000000000053657420C5
:102E6C00416C61726D00000000000000536574201D
:102E7C0054696D65000000000000000044656C653D
:102E8C00746520416C61726D73000000466163745F
:102E9C006F727920526573657400000041626F7522
:102EAC007420757300000000000000001F001C005F
:102EBC001F001E001F001E001F001F001E001F0011
:102ECC001E001F00FFFFFFFFFFFFFFFFFFFFFFFFC5
:102EDC00FFFFFFFFFFFFFFFF1003100310031003A2
:102EEC00000004000400040004000100D201D2011F
:102EFC00D201D2014B024B024B024B020B020B02D2
:102F0C000B020B02BA02BA02BA02BA021003100385
:102F1C00100310031003100310031003100310030D
:102F2C00100310030B02D201B8015D0188010000EF
:102F3C0088014B020B020000D2010000B801000016
:102F4C00B801B8010B020000D201B80188010000E1
:102F5C008801A4037003A4037003A4038801000078
:102F6C008801A4037003A4037003A4038801000068
:102F7C0088014B020B020000D2010000B8010000D6
:102F8C00B801B8010B020000D201B8010400040022
:102F9C000400040004000400040004000400040005
:102FAC0004000400040004000400040004000400F5
:102FBC0004000400040004000400040004000400E5
:102FCC0004000400040004000400040004000400D5
:102FDC0004000400040004000400040004000400C5
:102FEC0004000400040004000400040004000400B5
:102FFC0004000400040004000400040004000400A5
:10300C000400040004000400040004000400040094
:10301C000400040004000400040004000400040084
:10302C000400040004000400040004004A018801A8
:10303C00B801B8010000B801EE010B020B02000050
:10304C000B024B02EE01EE010000B8018801B80141
:10305C004A018801B801B8010000B801EE010B0269
:10306C000B0200000B024B02EE01EE010000B80156
:10307C008801B801080008000400080008000800D6
:10308C0008000400080008000800080004000800FC
:10309C0008000800080002000800080004000800EE
:1030AC0008000800080004000800080008000800D8
:1030BC00040008000800080008000200880106014E
:1030CC0037015D018801060137015D0188010601A8
:1030DC0037015D018801060137015D018801060198
:1030EC004A015D0188010C000C00180018000C004E
:1030FC000C00180018000C000C00180018000C0034
:10310C000C00180018000C000C00180018000C0023
:10311C00060188018801720188019F0188015D0107
:10312C000B020B025D010B020B02EE010B024B02B8
:10313C000B026E026E0210030B020B024B026E02AC
:10314C004B020B02BA020B02000000000C0006003E
:10315C000C001800180006000C000C000400030002
:10316C000C0006000C001800180006000C000300F0
:10317C0003000C0006000C000C000C000C000C00F2
:10318C000C000C000600060057656C636F6D650043
:10319C0054696D653A20003A00446174653A200028
:1031AC003230002D00414C41524D2053544F52416E
:1031BC0047450046554C4C20212121006868203A97
:1031CC00206D6D00203A2000414C41524D204E4F55
:1031DC00542056414C4944210053656C656374205E
:1031EC006120746F6E6500416C41524D2053415605
:1031FC004544203A2900280029204E4F4E450029ED
:10320C00200041726520796F7520737572653F00DF
:10321C0059657320202020202020202020204E6F54
:10322C0000506C656173652057616974002E004411
:10323C004F4E45212121004974277320005365749A
:10324C002074696D65206865726500686800536557
:10325C007420646174652068657265005959203A60
:10326C00204D4D203A204444004D4D0020204F204D
:10327C002020202020202020204F20200020204F04
:10328C00202020202020202020202D202000202045
:10329C00202020202020562020202020202000200C
:1032AC00202D202020202020202020202D20200018
:1032BC005445414D204F524F4C4F47494F00566596
:1032CC007273696F6E20312E3000436861746875BB
:1032DC0073686B61004D6574686D61004368616D66
:0C32EC006974680056696E756A61000024
:00000001FF
