:100000000C9436000C945E000C945E000C945E0020
:100010000C945E000C945E000C945E000C945E00E8
:100020000C945E000C945E000C945E000C945E00D8
:100030000C945E000C945E000C945E000C945E00C8
:100040000C945E000C945E000C945E000C945E00B8
:100050000C945E000C945E000C945E000C945E00A8
:100060000C945E000C945E003A02040E11241FBE34
:10007000CFEFD8E0DEBFCDBF15E0A0E0B1E0E0E615
:10008000FFE202C005900D92AA3BB107D9F725E027
:10009000AAEBB5E001C01D92A63DB207E1F710E062
:1000A000C6E3D0E004C02197FE010E94A817C43324
:1000B000D107C9F70E942F020C94AE170C940000D0
:1000C0009DEC899F912D1124969596959695292FB3
:1000D000220F920F292F220F820F0895282F30E030
:1000E00035952795359527953595279535952795F8
:1000F000922F990F290F922F990F891B08950E9413
:100100001E0183E08A95F1F70895CF92EF92FF9256
:100110000F931F93CF93DF93C82FD62F142FF22E58
:1001200080ED0E944A0180E00E947C018C2D0E949B
:1001300060000E947C018E2D0E9460000E947C0164
:10014000802F0E9460000E947C018F2D0E94600021
:100150000E947C01812F0E9460000E947C018D2FF3
:100160000E9460000E947C018C2F0E9460000E940F
:100170007C0180E00E947C010E947401DF91CF919C
:100180001F910F91FF90EF90CF9008956F927F9203
:100190008F929F92AF92BF92CF92DF92EF92FF9297
:1001A0000F931F93CF93DF93EC013B015A01490159
:1001B00080ED0E944A0180E00E947C010E9474014F
:1001C00081ED0E9471010E948E018F770E946E0066
:1001D000F60180830E948E010E946E00F7018083E9
:1001E0000E948E010E946E00F80180830E948E01A1
:1001F0000E946E00F40180830E948E010E946E00B6
:10020000F50180830E948E010E946E00F3018083BD
:100210000E9498010E946E0088830E947401DF9101
:10022000CF911F910F91FF90EF90DF90CF90BF90F3
:10023000AF909F908F907F906F9008951092B9002B
:100240008DEF8093B800089594EA9093BC0090914C
:10025000BC009923E4F79091B900987F983011F091
:10026000903191F48093BB0084E88093BC0080912E
:10027000BC008823E4F78091B900887F883131F091
:10028000803431F480E0089581E0089580E008959D
:1002900081E0089594EA9093BC009091BC0099236A
:1002A000E4F79091B900987F983011F0903191F770
:1002B0008093BB0094E89093BC009091BC0099237C
:1002C000E4F79091B900987F903211F0983541F49D
:1002D00094E99093BC009091BC0094FDFCCFDACFE0
:1002E00008950E942401089584E98093BC008091C0
:1002F000BC0084FDFCCF08958093BB0084E880930C
:10030000BC008091BC008823E4F78091B900887F0D
:10031000883211F081E0089580E0089584EC8093A4
:10032000BC008091BC008823E4F78091BB00089555
:1003300084E88093BC008091BC008823E4F780911E
:10034000BB0008958AEB95E00E948703882351F053
:100350008AEB95E00E9473038AEB95E00E94E2022B
:1003600089E5089588B18F6088B940E050E0443055
:1003700051050CF04FC087B1807F87B984B1887F69
:1003800084B927B181E090E0042E02C0880F991F44
:100390000A94E2F7922F982B97B998B18095892308
:1003A00088B920E030E0233031058CF565B181E07B
:1003B00090E0022E02C0880F991F0A94E2F7862B64
:1003C00085B983B190E0022E02C0959587950A9475
:1003D000E2F780FD19C0CA01880F991F480F591F05
:1003E00040505F4FFA01E20FF31F808191E08A32A3
:1003F00009F490E0992331F091E0833209F490E020
:10040000911109C088E508952F5F3F4FCCCF4F5F12
:100410005F4FADCF88E50895CF93DF93EC01CE0118
:100420000E94A2018835D9F320E23EE4211531056E
:1004300039F0E9E1F0E03197F1F721503109F6CFD9
:10044000DF91CF910895019749F46F3F7F4F31F4C9
:1004500063E070E08BEB95E00E940B0E08950E9424
:100460007F008DEB95E00E94B3020E94D30C0E94A6
:100470003F0CFBCF6FEF7FEF81E090E00E94230203
:1004800008958BB18F70962F907F892B8BB98BB18C
:100490008E7F8BB98BB182608BB981E0982F9A9552
:1004A000F1F79BB19D7F9BB992E49A95F1F79BB1CF
:1004B00020E1629FB00111249F70692B6BB99BB141
:1004C00092609BB98A95F1F78BB18D7F8BB984EFE0
:1004D00091E00197F1F708958BB18F70962F907F7F
:1004E000892B8BB98BB181608BB98BB182608BB951
:1004F00081E0982F9A95F1F79BB19D7F9BB992E48B
:100500009A95F1F79BB120E1629FB00111249F7091
:10051000692B6BB99BB192609BB98A95F1F78BB14E
:100520008D7F8BB984EF91E00197F1F70895EF92F9
:10053000FF920F931F93CF93DF937C018B01C0E059
:10054000D0E0F801EC0FFD1F6081662329F0C701A0
:100550000E946C022196F5CFDF91CF911F910F91F0
:10056000FF90EF900895CF93DF93EC018FEF8AB95E
:1005700088E893E10197F1F762E0CE010E94410221
:1005800068E2CE010E9441026CE0CE010E9441026D
:1005900066E0CE010E94410261E0CE010E9441026C
:1005A00068E874E0CE010E94970280E197E200972C
:1005B00031F0E9E1F0E03197F1F70197F8CFDF9101
:1005C000CF910895CF93DF93EC0161E00E94410247
:1005D00084EF91E00197F1F760E8CE010E944102BB
:1005E000DF91CF9108958FEC84B98AB1837F8AB966
:1005F0001C9B0AC088E99AE3009751F1E9E1F0E019
:100600003197F1F70197F8CF1D9B0AC088E99AE36B
:10061000009701F1E9E1F0E03197F1F70197F8CFA8
:100620004A9B0AC088E99AE30097B1F0E9E1F0E05B
:100630003197F1F70197F8CF4B9BDACF88E99AE32E
:10064000009761F0E9E1F0E03197F1F70197F8CF19
:1006500083E7089582E6089585E7089584E608957E
:100660008FEC84B98AB1837F8AB91C9B0AC088E960
:100670009AE3009751F1E9E1F0E03197F1F7019742
:10068000F8CF1D9B0AC088E99AE3009701F1E9E1E0
:10069000F0E03197F1F70197F8CF4A9B0AC088E95B
:1006A0009AE30097B1F0E9E1F0E03197F1F70197B3
:1006B000F8CF4B9B10C088E99AE3009771F0E9E10D
:1006C000F0E03197F1F70197F8CF83E7089582E6DC
:1006D000089585E7089580E3089584E608956FE01E
:1006E0000E94410208956CE00E94410208951C9B03
:1006F0000AC080E197E2009741F0E9E1F0E031972C
:10070000F1F70197F8CF80E0089581E008951D9BEF
:100710000AC080E29EE4009741F0E9E1F0E0319701
:10072000F1F70197F8CF80E0089581E008950197EF
:1007300049F46F3F7F4F31F463E070E083ED95E063
:100740000E940B0E0895CF92DF92EF92FF920F93CB
:100750001F93CF9360E882ED95E00E9441020F2E37
:10076000FAECCF2EF5E0DF2EF02D0F2EFBECEF2E66
:10077000F5E0FF2EF02D0CEC15E02DEC35E04EEC05
:1007800055E06FEC75E080ED95E00E94C60060E9F1
:1007900074E082ED95E00E9497026091CC05CDEC6B
:1007A0006C9F612D1124669566956695605D82ED5E
:1007B00095E00E946C026091CC056C9F812D112404
:1007C000869586958695880F982F990F990F890F92
:1007D000681B605D82ED95E00E946C0267E974E041
:1007E00082ED95E00E9497026091CB056C9F612D90
:1007F0001124669566956695605D82ED95E00E9490
:100800006C026091CB056C9F812D11248695869595
:100810008695880F982F990F990F890F681B605D37
:1008200082ED95E00E946C0267E974E082ED95E04C
:100830000E9497026091CA056C9F612D11246695F4
:1008400066956695605D82ED95E00E946C02609110
:10085000CA056C9F812D1124869586958695880FF3
:10086000982F990F990F890F681B605D82ED95E0B5
:100870000E946C0260EC82ED95E00E94410269E901
:1008800074E082ED95E00E94970260EA74E082EDE8
:1008900095E00E9497026091D0056C9F612D112414
:1008A000669566956695605D82ED95E00E946C02A6
:1008B0006091D0056C9F812D112486958695869533
:1008C000880F982F990F990F890F681B605D82ED33
:1008D00095E00E946C0263EA74E082ED95E00E946C
:1008E00097026091CF056C9F612D112466956695E6
:1008F0006695605D82ED95E00E946C026091CF0587
:100900006C9F812D1124869586958695880F982F4A
:10091000990F990F890F681B605D82ED95E00E9429
:100920006C0263EA74E082ED95E00E9497026091A8
:10093000CE056C9F612D1124669566956695605D68
:1009400082ED95E00E946C026091CE056C9FC12DF6
:100950001124C695C695C695CC0F8C2F880F880F8D
:10096000C80F6C1B605D82ED95E00E946C02CF9118
:100970001F910F91FF90EF90DF90CF900895CF934C
:10098000DF93EC0121E030E0E0E0F0E0C217D307B4
:100990006CF0C90183709927892B19F4E259FE4F35
:1009A00002C0E359FE4F2F5F3F4FF0CF20E030E011
:1009B000DB0111972A173B073CF591E0DE01A3709C
:1009C000BB27AB2B09F090E0992391F091E0213007
:1009D000310509F090E0992359F0D901AA0FBB1F06
:1009E000A455BE4F8D919C91E80FF91F319609C017
:1009F000D901AA0FBB1FA455BE4F8D919C91E80F42
:100A0000F91F2F5F3F4FD4CF4E0F5F1FCA010596CE
:100A100067E070E00E948017DF91CF910895AF9258
:100A2000BF92CF92DF92EF92FF920F931F93CF93DB
:100A3000DF938091BE059091BF05059701F582ED8A
:100A400095E00E94E20265EA74E082ED95E00E9482
:100A5000970260EC82ED95E00E94410263EB74E046
:100A600082ED95E00E94970280E29EE4009709F4EF
:100A700044C1E9E1F0E03197F1F70197F7CF82ED5A
:100A800095E00E94E2026CEB74E082ED95E00E943A
:100A9000970260E882ED95E00E94410282ED95E0C8
:100AA0000E946F0381ED95E00E940C02C82F8935EA
:100AB00009F423C1682F82ED95E00E946C0281ED5C
:100AC00095E00E940C02082F893509F416C1682FA1
:100AD00082ED95E00E946C0264EC74E082ED95E09A
:100AE0000E94970281ED95E00E940C02F82E89E5A4
:100AF000F81609F402C16F2D82ED95E00E946C0298
:100B000081ED95E00E940C02D82E89E5D81609F4F3
:100B1000F4C06D2D82ED95E00E946C0282ED95E0AF
:100B20000E94730380E29EE4009731F0E9E1F0E077
:100B30003197F1F70197F8CFD0E0E0979E01220FAF
:100B4000331FCE01880F991F880F991F880F991F97
:100B5000820F931F10E000531109800F911F4897D7
:100B6000C4F48F2D90E0C0977C01EE0CFF1C880F21
:100B7000991F880F991F880F991FE80EF91ECD2C19
:100B8000D12C80E3C81AD108C7018C0D9D1DCC97CC
:100B9000BCF082ED95E00E94E20268EC74E082ED28
:100BA00095E00E94970280E197E2009731F0E9E139
:100BB000F0E03197F1F70197F8CF0E940F059DC043
:100BC00082ED95E00E94E20269ED74E082ED95E02D
:100BD0000E94970280E197E2009731F0E9E1F0E0AE
:100BE0003197F1F70197F8CF82ED95E00E94E2028C
:100BF0006CE071E082ED95E00E949702A12CB12C8F
:100C0000B50183ED95E00E941F15843649F484E018
:100C1000A816B10409F458C08FEFA81AB80A5BC02F
:100C2000853741F4A114B10409F451C081E0A81A38
:100C3000B10851C0823609F460C0833709F04BC057
:100C40002091BE053091BF0588EE93E0C89FA001BA
:100C5000C99F500DD89F500D112464E6609FC001BC
:100C6000619F900D1124840F951FE80EF91ECE0C84
:100C7000DF1CC901880F991FFC01E253FE4FD1828E
:100C8000C082FC01EC53FE4FB182A08282ED95E060
:100C90000E94E20267EE74E082ED95E00E94970206
:100CA00080E197E2009731F0E9E1F0E03197F1F768
:100CB0000197F8CF8091BE059091BF050196909362
:100CC000BF058093BE0519C0A12CB12C04C0689447
:100CD000AA24A2F8B12C82ED95E00E94E202B501AF
:100CE00062957295707F7627607F7627645F7E4F6E
:100CF00082ED95E00E94970283CFDF91CF911F9103
:100D00000F91FF90EF90DF90CF90BF90AF9008953C
:100D1000CF92DF92EF92FF920F931F93CF93DF93C7
:100D20008091CE019091CF010196B1F482ED95E0D2
:100D30000E94E20266EF74E082ED95E00E94970265
:100D400061E382ED95E00E946C0268EF74E082ED51
:100D500095E00E9497024CC082ED95E00E94E2026D
:100D600066EF74E082ED95E00E94970261E382ED08
:100D700095E00E946C026FEF74E082ED95E00E94B6
:100D800097022091CE013091CF01C90164E670E055
:100D90000E9480177B018C01C90168EE73E00E94FC
:100DA0008017605D82ED95E00E946C02CAE0D0E0A1
:100DB000C701BE010E94801760E3680F82ED95E0D5
:100DC0000E946C0267E974E082ED95E00E94970250
:100DD000C801BE010E948017C82F605D82ED95E0BA
:100DE0000E946C0260E36C0F82ED95E00E946C0241
:100DF000C0E0D0E082ED95E00E94F302843631F449
:100E0000C430D10509F468C021966BC0853729F438
:100E1000209709F464C0219764C0833709F059C052
:100E200082ED95E00E94E20262E075E082ED95E0DD
:100E30000E94970260EC82ED95E00E94410260E121
:100E400075E082ED95E00E94970282ED95E00E94A8
:100E500077038823B1F1CE0184309105F4F4AC011D
:100E60004F5F5F4F9A01220F331FF901E253FE4F8C
:100E700060817181880F991FFC01E253FE4F7183DD
:100E80006083F901EC53FE4F20813181FC01EC536A
:100E9000FE4F31832083CA01DFCF8FEF9FEF909306
:100EA000D7018093D6019093CD018093CC0180919E
:100EB000BE059091BF0501979093BF058093BE0535
:100EC00010C082ED95E00E948703882309F4BDCF0E
:100ED00008C0823631F476C0C0E0D0E002C0C4E081
:100EE000D0E0FE01EE0FFF1FE253FE4F80819181A3
:100EF0000196B9F482ED95E00E94E20266EF74E09B
:100F000082ED95E00E9497026C2F6F5C82ED95E078
:100F10000E946C0268EF74E082ED95E00E949702F7
:100F200069CF82ED95E00E94E20266EF74E082ED07
:100F300095E00E9497026C2F6F5C82ED95E00E9415
:100F40006C026FEF74E082ED95E00E949702FE0163
:100F5000EE0FFF1FE253FE4F20813181C90164E68D
:100F600070E00E9480176B017C01C90168EE73E09C
:100F70000E948017605D82ED95E00E946C020AE09D
:100F800010E0C601B8010E94801760E3680F82ED8F
:100F900095E00E946C0267E974E082ED95E00E94A2
:100FA0009702C701B8010E948017182F605D82ED7B
:100FB00095E00E946C0260E3610F82ED95E00E9473
:100FC0006C0218CFDF91CF911F910F91FF90EF909E
:100FD000DF90CF900895CF92EF920F9382ED95E03E
:100FE0000E94E20262E075E082ED95E00E949702C5
:100FF00060EC82ED95E00E94410260E175E082EDD7
:1010000095E00E94970282ED95E00E947703882385
:1010100009F4AAC0C12CE12C00E020E041E061E02D
:1010200080E00E94850061E275E082ED95E00E941B
:10103000970280E197E2009731F0E9E1F0E0319723
:10104000F1F70197F8CF6DE275E082ED95E00E942F
:10105000970280E197E2009731F0E9E1F0E0319703
:10106000F1F70197F8CF6DE275E082ED95E00E940F
:10107000970280E197E2009731F0E9E1F0E03197E3
:10108000F1F70197F8CF6DE275E082ED95E00E94EF
:10109000970280E197E2009731F0E9E1F0E03197C3
:1010A000F1F70197F8CF82ED95E00E94E20284EC1F
:1010B00099E00197F1F761E275E082ED95E00E9419
:1010C000970280E197E2009731F0E9E1F0E0319793
:1010D000F1F70197F8CF6DE275E082ED95E00E949F
:1010E000970280E197E2009731F0E9E1F0E0319773
:1010F000F1F70197F8CF6DE275E082ED95E00E947F
:10110000970280E197E2009731F0E9E1F0E0319752
:10111000F1F70197F8CF6DE275E082ED95E00E945E
:10112000970280E197E2009731F0E9E1F0E0319732
:10113000F1F70197F8CF82ED95E00E94E2026FE2AD
:1011400075E082ED95E00E94970280E197E20097BA
:1011500031F0E9E1F0E03197F1F70197F8CF82ED56
:1011600095E00E94E20207C082ED95E00E948703AD
:10117000882309F448CF0F91EF90CF900895CF9234
:10118000DF92EF92FF920F931F93CF93DF930F2E77
:10119000FAECCF2EF5E0DF2EF02D0F2EFBECEF2E2C
:1011A000F5E0FF2EF02D0CEC15E02DEC35E04EECCB
:1011B00055E06FEC75E080ED95E00E94C600C0E060
:1011C000D0E0C530D1050CF0BCC0FE01EE0FFF1F12
:1011D000E253FE4F208131812F3F8FEF380709F412
:1011E000B0C0C90164E670E00E9480178091CC0510
:1011F00090E06817790709F0A2C0C90164E670E0C1
:101200000E9480172091CB0530E08217930709F0E8
:1012100096C082ED95E00E94E20267E375E082ED00
:1012200095E00E9497026091CC051DEC619F612DB5
:101230001124669566956695605D82ED95E00E9445
:101240006C028091CC05819F912D112496959695E5
:101250009695990F292F220F220F920F891B60E379
:10126000680F82ED95E00E946C0267E974E082ED00
:1012700095E00E9497026091CB05619F612D11243A
:10128000669566956695605D82ED95E00E946C02BC
:101290009091CB05919F812D1124869586958695F9
:1012A000880F282F220F220F820F981B60E3690FEF
:1012B00082ED95E00E946C02FE01EE0FFF1FEC53E1
:1012C000FE4F6081718183ED95E00E941F1582EDD4
:1012D00095E00E94E202C430D105ECF49E012F5F3C
:1012E0003F4FC901880F991FFC01E253FE4F408117
:1012F0005181CC0FDD1FFE01E253FE4F518340832D
:10130000FC01EC53FE4F80819181CC53DE4F9983D9
:101310008883E901E0CF8FEF9FEF9093D70180930F
:10132000D6019093CD018093CC018091BE05909120
:10133000BF0501979093BF058093BE0502C021961B
:1013400040CFDF91CF911F910F91FF90EF90DF90F1
:10135000CF9008950F931F93CF93DF938C01C0E03C
:10136000D0E0C017D1073CF464E182ED95E00E9423
:1013700041022196F6CFDF91CF911F910F910895F1
:101380000F931F93CF93DF938C01C0E0D0E0C01781
:10139000D1073CF460E182ED95E00E944102219684
:1013A000F6CFDF91CF911F910F9108958F929F9269
:1013B000AF92BF92CF92EF920F93CF93DF9382EDD4
:1013C00095E00E94E20266E475E082ED95E00E94FD
:1013D000970260EC82ED95E00E9441026CEB74E0B4
:1013E00082ED95E00E94970260EC82ED95E00E940C
:1013F000410282ED95E00E946F0381ED95E00E942D
:101400000C02282F30E020533109C901880F991FA1
:10141000220F331F220F331F220F331F820F931F00
:101420009093C5058093C4058A3921E0920709F499
:101430001CC26AE070E00E948017605D82ED95E05A
:101440000E946C0281ED95E00E940C0290E0C09732
:101450002091C4053091C505820F931F9093C50557
:101460008093C405833C21E0920709F4FEC16AE041
:1014700070E00E94801760E3680F82ED95E00E94A3
:101480006C0282ED95E00E94730384E294EF019771
:10149000F1F78091C4059091C505489764F060EC20
:1014A00082ED95E00E94410264E575E082ED95E0F1
:1014B0000E94970299CF64EC74E082ED95E00E945F
:1014C000970282ED95E00E946F0381ED95E00E9406
:1014D0000C02282F30E020533109C901880F991FD1
:1014E000220F331F220F331F220F331F820F931F30
:1014F0009093C3058093C2058A3921E0920709F4CD
:10150000B4C16AE070E00E948017605D82ED95E0F2
:101510000E946C0281ED95E00E940C0290E0C09761
:101520002091C2053091C305820F931F9093C3058C
:101530008093C205833C21E0920709F496C16AE0DA
:1015400070E00E94801760E3680F82ED95E00E94D2
:101550006C0284E294EF0197F1F782ED95E00E942E
:1015600073038091C2059091C305CC97A4F060EC01
:1015700082ED95E00E94410285E090E00E94AA0978
:1015800061EC74E082ED95E00E94970282E090E0C9
:101590000E94C00996CF88E893E1009731F0E9E115
:1015A000F0E03197F1F70197F8CF82ED95E00E94D6
:1015B000E20267E575E082ED95E00E94970260EC3B
:1015C00082ED95E00E94410265E675E082ED95E0CE
:1015D0000E94970260EC82ED95E00E94410282ED4C
:1015E00095E00E946F0381ED95E00E940C0290E06F
:1015F000C097EC01CC0FDD1F880F991F880F991F32
:10160000880F991FC80FD91FCA3981E0D80709F47C
:101610002CC1CE016AE070E00E948017605D82ED0F
:1016200095E00E946C0281ED95E00E940C0290E032
:10163000C097C80FD91F8091C4059091C505833C00
:10164000914009F412C1CE016AE070E00E94801757
:1016500060E3680F82ED95E00E946C0282ED95E0F8
:101660000E94730384E294EF0197F1F764EC74E055
:1016700082ED95E00E94970282ED95E00E946F0353
:1016800081ED95E00E940C02282F30E020533109B3
:10169000C901880F991F220F331F220F331F220FFA
:1016A000331F820F931F9093C9058093C8058A3911
:1016B00021E0920709F4D9C06AE070E00E94801727
:1016C000605D82ED95E00E946C0281ED95E00E94E4
:1016D0000C0290E0C0972091C8053091C905820F97
:1016E000931F9093C9058093C805833C21E092071E
:1016F00009F4BBC06AE070E00E94801760E3680FE5
:1017000082ED95E00E946C0284E294EF0197F1F77C
:1017100082ED95E00E9473038091C8059091C90500
:101720000D97A4F060EC82ED95E00E94410285E007
:1017300090E00E94AA0962E775E082ED95E00E94C0
:10174000970282E090E00E94C00996CF64EC74E0BA
:1017500082ED95E00E94970282ED95E00E946F0372
:1017600081ED95E00E940C02282F30E020533109D2
:10177000C901880F991F220F331F220F331F220F19
:10178000331F820F931F9093C7058093C6058A3934
:1017900021E0920709F469C06AE070E00E948017B6
:1017A000605D82ED95E00E946C0281ED95E00E9403
:1017B0000C0290E09C01205331098091C605909164
:1017C000C705820F931F9093C7058093C605833C7E
:1017D00021E0920709F449C06AE070E00E94801796
:1017E00060E3680F82ED95E00E946C0284E294EF62
:1017F0000197F1F782ED95E00E947303A090C80570
:10180000B090C905F5013197EE0FFF1FE455FE4F6B
:10181000808191818090C6059090C70588169906B1
:10182000A4F060EC82ED95E00E9441028AE090E035
:101830000E94AA096FE675E082ED95E00E9497028A
:1018400082E090E00E94C00987CFA401B501CE01DB
:101850000E94BF04E090C2050091C405C12C282F4E
:10186000482D6A2D8C2F0E948500DF91CF910F911A
:10187000EF90CF90BF90AF909F908F9008950E946F
:10188000A3030E94BF0882ED95E00E94770388239E
:1018900031F082ED95E00E94E2020E94500C089522
:1018A00082ED95E00E94E2026091C0057091C10551
:1018B00062957295707F7627607F7627645A7E4F97
:1018C00082ED95E00E94970282ED95E00E94F3027E
:1018D000843691F48091C0059091C10584309105C2
:1018E00029F41092C1051092C0053EC00196909354
:1018F000C1058093C00538C0853799F48091C00533
:101900009091C105009739F484E090E09093C1056F
:101910008093C00529C001979093C1058093C005AD
:1019200023C0823619F40E943F0C08958337E1F4F6
:101930008091C0059091C1058130910569F01CF43A
:10194000892B39F011C08230910549F0039751F08D
:101950000BC00E940F0508C00E94D60905C00E9456
:10196000880602C00E94EB0782ED95E00E94E20229
:101970006091C0057091C10562957295707F762760
:10198000607F7627645A7E4F82ED95E00E94970231
:1019900088E893E1009709F497CFE9E1F0E0319707
:1019A000F1F70197F7CFCF93DF9382ED95E00E9497
:1019B000E20265E775E082ED95E00E94970280E122
:1019C00097E2009731F0E9E1F0E03197F1F7019704
:1019D000F8CF82ED95E00E947703882301F182ED34
:1019E00095E00E94E20266E875E082ED95E00E94D3
:1019F000970260EC82ED95E00E94410267E975E094
:101A000082ED95E00E94970288E893E1009709F43F
:101A1000F8C0E9E1F0E03197F1F70197F7CF82EDF7
:101A200095E00E94E20268EA75E082ED95E00E948E
:101A30009702C4EDD0E3CE010197F1F782ED95E076
:101A40000E94E20265E775E082ED95E00E94970250
:101A50002197F1F782ED95E00E94E20268EA75E0D5
:101A600082ED95E00E94970280E593EC0197F1F7F3
:101A700082ED95E00E94E20265E775E082ED95E077
:101A80000E94970280E197E2009731F0E9E1F0E0EF
:101A90003197F1F70197F8CF82ED95E00E94770337
:101AA000882301F182ED95E00E94E20266E875E08C
:101AB00082ED95E00E94970260EC82ED95E00E9435
:101AC000410267E975E082ED95E00E94970288E89F
:101AD00093E1009709F495C0E9E1F0E03197F1F75F
:101AE0000197F7CF80E197E2009731F0E9E1F0E06C
:101AF0003197F1F70197F8CF82ED95E00E947703D7
:101B0000882301F182ED95E00E94E20266E875E02B
:101B100082ED95E00E94970260EC82ED95E00E94D4
:101B2000410267E975E082ED95E00E94970288E83E
:101B300093E1009709F465C0E9E1F0E03197F1F72E
:101B40000197F7CF80E197E2009731F0E9E1F0E00B
:101B50003197F1F70197F8CF82ED95E00E94770376
:101B60008823F9F082ED95E00E94E20266E875E0D4
:101B700082ED95E00E94970260EC82ED95E00E9474
:101B8000410267E975E082ED95E00E94970288E8DE
:101B900093E10097B1F1E9E1F0E03197F1F70197B6
:101BA000F8CF80E197E2009731F0E9E1F0E031977A
:101BB000F1F70197F8CF82ED95E00E947703882333
:101BC00009F4F3CE82ED95E00E94E20266E875E04A
:101BD00082ED95E00E94970260EC82ED95E00E9414
:101BE000410267E975E082ED95E00E94970288E87E
:101BF00093E1009731F0E9E1F0E03197F1F70197D7
:101C0000F8CFDF91CF9108956FEF7FEF81E090E003
:101C10000E9497030895FC017183608308952F92B9
:101C20003F924F925F926F927F928F929F92AF926C
:101C3000BF92CF92DF92EF92FF920F931F93CF93B9
:101C4000DF93CDB7DEB762970FB6F894DEBF0FBE55
:101C5000CDBF1C016A017B01C901B80120E030E061
:101C600040E05FE30E9413174B015C0124B181E067
:101C700090E0F101008002C0880F991F0A94E2F7FA
:101C8000822B84B920E030E0A901C701B6010E948F
:101C9000AF158111DAC025B181E090E0F10100803B
:101CA00002C0880F991F0A94E2F78095822385B9B4
:101CB0002BEA3AEA4AEA5EE3C501B4010E9413172F
:101CC0006B017C0120E030E040E85EE3C501B40137
:101CD0000E9413172B013C0120E030E040E85FE355
:101CE000C701B6010E94AF1588230CF466C020E03E
:101CF0003FEF4FE757E4C301B2010E940E171816D9
:101D00000CF043C020E030E04AE754E4C501B401E0
:101D10000E94B4152B013C0120E030E04AE753E477
:101D20000E9413176B017C0120E030E040E85FE384
:101D30000E94AF1588231CF120E03FEF4FE757E4E6
:101D4000C701B6010E940E171816A4F420E030E077
:101D500040E251E4C301B2010E9413170E942D1604
:101D60006115710569F189E190E00197F1F7615022
:101D70007109F6CFC701B6010E942D1602C061E0BD
:101D800070E0CB010197F1F71BC020E030E04FE796
:101D900053E4C701B6010E940E17181644F4C3019C
:101DA000B2010E942D16CB010197F1F70CC0C701BB
:101DB000B6010E942D16698703C021E0298700C063
:101DC00089858A95F1F7A5019401C501B4010E94A6
:101DD00043154B015C0120E030E04AE753E40E94E8
:101DE00013176B017C0120E030E040E85FE30E94C4
:101DF000AF15882324F120E03FEF4FE757E4C701F8
:101E0000B6010E940E171816ACF420E030E040E254
:101E100051E4C501B4010E9413170E942D166115EB
:101E2000710509F48CC189E190E00197F1F76150E7
:101E30007109F5CFC701B6010E942D1602C061E0FD
:101E400070E0CB010197F1F77AC1A701960160E03C
:101E500070E080E89FE30E94B41520E030E04AE79C
:101E600054E40E9413176B017C01A5019401C50184
:101E7000B4010E944315A70196010E94B4150E9467
:101E800026162B013C0120E030E040E05FE3C70173
:101E9000B6010E94131769877A878B879C87E0E0D9
:101EA000F0E0FA8BE98B19810D8129893A89C90102
:101EB000330FAA0BBB0B84159505A605B7050CF0CF
:101EC0003EC120E030E04AE754E469857A858B859D
:101ED0009C850E9413174B015C012BEA3AEA4AEAFF
:101EE0005EE30E9413176B017C0120E030E040E8C4
:101EF0005EE3C501B4010E94131769837A838B8363
:101F00009C8320E030E040E85FE3C701B6010E9417
:101F1000AF1588230CF474C020E03FEF4FE757E47F
:101F200069817A818B819C810E940E1718160CF0B2
:101F30004DC020E030E04AE754E4C501B4010E94FE
:101F4000B4156D877E878F87988B20E030E04AE755
:101F500053E40E9413176D837E838F83988720E05C
:101F600030E040E85FE30E94AF1588234CF120E0A9
:101F70003FEF4FE757E46D817E818F8198850E9406
:101F80000E171816B4F420E030E040E251E46D85FD
:101F90007E858F8598890E9413170E942D166115E2
:101FA000710581F189E190E00197F1F761507109C4
:101FB000F6CF6D817E818F8198850E942D1602C09B
:101FC00061E070E0CB010197F1F71CC020E030E048
:101FD0004FE753E4C701B6010E940E17181654F4D8
:101FE00069817A818B819C810E942D16CB0101979A
:101FF000F1F70BC0C701B6010E942D16062F02C0D3
:1020000001E000C0802F8A95F1F725B181E090E0D2
:10201000F101008002C0880F991F0A94E2F7822B19
:1020200085B920E030E040E85FE3C701B6010E94D7
:10203000AF1588230CF46AC020E03FEF4FE757E468
:1020400069817A818B819C810E940E1718160CF091
:1020500043C020E030E04AE754E4C501B4010E94E7
:10206000B4154B015C0120E030E04AE753E40E94E4
:1020700013176B017C0120E030E040E85FE30E9431
:10208000AF1588231CF120E03FEF4FE757E4C7016D
:10209000B6010E940E171816A4F420E030E040E2CA
:1020A00051E4C501B4010E9413170E942D16611559
:1020B000710571F189E190E00197F1F761507109C3
:1020C000F6CFC701B6010E942D1602C061E070E094
:1020D000CB010197F1F71CC020E030E04FE753E45B
:1020E000C701B6010E940E17181654F469817A814F
:1020F0008B819C810E942D16CB010197F1F70BC0BB
:10210000C701B6010E942D16162F02C011E000C0B3
:10211000812F8A95F1F725B181E090E0F1010080EF
:1021200002C0880F991F0A94E2F78095822385B92F
:1021300029893A892F5F3F4F3A8B298BB6CE629619
:102140000FB6F894DEBF0FBECDBFDF91CF911F91C8
:102150000F91FF90EF90DF90CF90BF90AF909F9046
:102160008F907F906F905F904F903F902F90089549
:102170002F923F924F925F926F927F928F929F9297
:10218000AF92BF92CF92DF92EF92FF920F931F9385
:10219000CF93DF93CDB7DEB765970FB6F894DEBF68
:1021A0000FBECDBF6C018AE0E8EDF1E0DE011196D3
:1021B00001900D928A95E1F78AE0E2EEF1E0DE010E
:1021C0001B9601900D928A95E1F7212C312C80E32A
:1021D0008D8B03C022242394312C2114310409F067
:1021E0007AC0E12CF12C95E0E916F104B4F785ED05
:1021F00095E00E9430038D8B803361F78701000FDB
:10220000111FE1E0F0E0EC0FFD1F0E0F1F1FF801A2
:102210006285738588EC90E00E948017072E000C81
:10222000880B990B0E945E162B013C01F80160811E
:102230007181072E000C880B990B0E945E16AB0172
:10224000BC0193018201C6010E940F0EA3019201FD
:10225000C301B2010E9443154B015C0120E030E054
:102260004AE753E40E9413172B013C0120E030E0C1
:1022700040E85FE30E94AF1588231CF120E03FEFA8
:102280004FE757E4C301B2010E940E171816A4F4D9
:1022900020E030E040E251E4C501B4010E94131790
:1022A0000E942D166115710589F089E190E0019772
:1022B000F1F761507109F6CFC301B2010E942D16EA
:1022C00002C061E070E0CB010197F1F715B8FFEFB4
:1022D000EF1AFF0A88CF80EA9FE0009731F0E9E12A
:1022E000F0E03197F1F70197F8CF8D8965960FB639
:1022F000F894DEBF0FBECDBFDF91CF911F910F913C
:10230000FF90EF90DF90CF90BF90AF909F908F9015
:102310007F906F905F904F903F902F9008952F92F5
:102320003F924F925F926F927F928F929F92AF9265
:10233000BF92CF92DF92EF92FF920F931F93CF93B2
:10234000DF93CDB7DEB7C154D1400FB6F894DEBFEE
:102350000FBECDBF6C0180EAECEEF1E0DE0111961C
:1023600001900D928A95E1F780EAECE8F2E0DE0157
:10237000AF55BF4F01900D928A95E1F7212C312C7A
:1023800080E3CF5BDE4F8883C154D14003C0222459
:102390002394312C2114310409F084C0E12CF12C58
:1023A00080E5E816F104B4F785ED95E00E9430036E
:1023B000CF5BDE4F8883C154D140803341F7870122
:1023C000000F111FE1EAF0E0EC0FFD1FE00FF11F1D
:1023D0006081718187E791E00E948017072E000CD1
:1023E000880B990B0E945E162B013C01E1E0F0E0A6
:1023F000EC0FFD1FE00FF11F60817181072E000CB3
:10240000880B990B0E945E16AB01BC0193018201FF
:10241000C6010E940F0E26E636E646EA5FE3C301D8
:10242000B2010E9413174B015C0120E030E04AE743
:1024300053E40E9413172B013C0120E030E040E8F8
:102440005FE30E94AF1588231CF120E03FEF4FE7C8
:1024500057E4C301B2010E940E171816A4F420E03D
:1024600030E040E251E4C501B4010E9413170E941C
:102470002D166115710589F089E190E00197F1F75A
:1024800061507109F6CFC301B2010E942D1602C03E
:1024900061E070E0CB010197F1F715B88FEFE81A12
:1024A000F80A7ECF80EA9FE0009731F0E9E1F0E0A2
:1024B0003197F1F70197F8CFCF5BDE4F8881C15498
:1024C000D140CF5BDE4F0FB6F894DEBF0FBECDBF5D
:1024D000DF91CF911F910F91FF90EF90DF90CF9000
:1024E000BF90AF909F908F907F906F905F904F9034
:1024F0003F902F9008952F923F924F925F926F924C
:102500007F928F929F92AF92BF92CF92DF92EF9283
:10251000FF920F931F93CF93DF93CDB7DEB7C159CF
:10252000D1090FB6F894DEBF0FBECDBF6C0188E4B1
:10253000ECE2F3E0DE01119601900D928A95E1F74D
:1025400088E4E4E7F3E0DE01A75BBF4F01900D9262
:102550008A95E1F7212C312C80E3CF56DF4F888319
:10256000C159D04003C022242394312C21143104BA
:1025700009F084C0E12CF12C84E2E816F104B4F7F0
:1025800085ED95E00E943003CF56DF4F8883C15917
:10259000D040803341F78701000F111FE9E4F0E0DC
:1025A000EC0FFD1FE00FF11F6081718187E791E063
:1025B0000E948017072E000C880B990B0E945E1654
:1025C0002B013C01E1E0F0E0EC0FFD1FE00FF11FFB
:1025D00060817181072E000C880B990B0E945E169A
:1025E000AB01BC0193018201C6010E940F0E26E6D9
:1025F00036E646EA5FE3C301B2010E9413174B01BE
:102600005C0120E030E04AE753E40E9413172B01FD
:102610003C0120E030E040E85FE30E94AF158823F2
:102620001CF120E03FEF4FE757E4C301B2010E94E5
:102630000E171816A4F420E030E040E251E4C50182
:10264000B4010E9413170E942D166115710589F0BF
:1026500089E190E00197F1F761507109F6CFC3016C
:10266000B2010E942D1602C061E070E0CB0101971B
:10267000F1F715B88FEFE81AF80A7ECF80EA9FE0ED
:10268000009731F0E9E1F0E03197F1F70197F8CFE9
:10269000CF56DF4F8881C159D040CF56DF4F0FB69C
:1026A000F894DEBF0FBECDBFDF91CF911F910F9188
:1026B000FF90EF90DF90CF90BF90AF909F908F9062
:1026C0007F906F905F904F903F902F9008952F9242
:1026D0003F924F925F926F927F928F929F92AF92B2
:1026E000BF92CF92DF92EF92FF920F931F93CF93FF
:1026F000DF93CDB7DEB7C555D1090FB6F894DEBF6D
:102700000FBECDBF6C018AE2ECEBF3E0DE01119667
:1027100001900D928A95E1F78AE2E6EEF3E0DE01A0
:102720009B9601900D928A95E1F7212C312C80E344
:1027300066968FAF669703C022242394312C211410
:10274000310409F07EC0E12CF12C95E1E916F10489
:10275000B4F785ED95E00E94300366968FAF6697DB
:10276000803351F78701000F111FE1E0F0E0EC0F1B
:10277000FD1F0E0F1F1FF80162A573A58FE595E0E1
:102780000E948017072E000C880B990B0E945E1682
:102790002B013C01F80160817181072E000C880B30
:1027A000990B0E945E16AB01BC0193018201C60128
:1027B0000E940F0E26E636E646EA5FE3C301B20149
:1027C0000E9413174B015C0120E030E04AE753E41C
:1027D0000E9413172B013C0120E030E040E85FE34A
:1027E0000E94AF1588231CF120E03FEF4FE757E42C
:1027F000C301B2010E940E171816A4F420E030E0C5
:1028000040E251E4C501B4010E9413170E942D1645
:102810006115710589F089E190E00197F1F7615048
:102820007109F6CFC301B2010E942D1602C061E00A
:1028300070E0CB010197F1F715B8FFEFEF1AFF0A2F
:1028400084CF66968FAD6697CB5ADF4F0FB6F8945C
:10285000DEBF0FBECDBFDF91CF911F910F91FF90D3
:10286000EF90DF90CF90BF90AF909F908F907F9030
:102870006F905F904F903F902F9008952F923F92CE
:102880004F925F926F927F928F929F92AF92BF9280
:10289000CF92DF92EF92FF920F931F93CF93DF932C
:1028A000CDB7DEB7C957D1090FB6F894DEBF0FBE5A
:1028B000CDBF6C018CE3E0E1F4E0DE011196019004
:1028C0000D928A95E1F78CE3ECE4F4E0DE01DD960D
:1028D00001900D928A95E1F7212C312C80E3EA9644
:1028E0008FAFEA9703C022242394312C21143104A2
:1028F00009F07EC0E12CF12C9EE1E916F104B4F759
:1029000085ED95E00E943003EA968FAFEA97803319
:1029100051F78701000F111FE1E0F0E0EC0FFD1F00
:102920000E0F1F1FF80164AD75AD85E694E00E949F
:102930008017072E000C880B990B0E945E162B0146
:102940003C01F80160817181072E000C880B990B06
:102950000E945E16AB01BC0193018201C6010E9478
:102960000F0E26E636E646EA5FE3C301B2010E9497
:1029700013174B015C0120E030E04AE753E40E946A
:1029800013172B013C0120E030E040E85FE30E9498
:10299000AF1588231CF120E03FEF4FE757E4C30158
:1029A000B2010E940E171816A4F420E030E040E2B5
:1029B00051E4C501B4010E9413170E942D16611540
:1029C000710589F089E190E00197F1F76150710993
:1029D000F6CFC301B2010E942D1602C061E070E083
:1029E000CB010197F1F715B8FFEFEF1AFF0A84CF7B
:1029F00080EA9FE0009731F0E9E1F0E03197F1F7EC
:102A00000197F8CFEA968FADEA97C758DF4F0FB618
:102A1000F894DEBF0FBECDBFDF91CF911F910F9114
:102A2000FF90EF90DF90CF90BF90AF909F908F90EE
:102A30007F906F905F904F903F902F9008956230FD
:102A40007105A9F03CF46115710559F0613071050B
:102A500059F016C06330710569F06430710569F092
:102A60000FC00E94B81008950E948F1108950E940F
:102A70007B1208950E94671308950E943E140895E2
:102A800080E308955058BB27AA270E945A150C943A
:102A9000D4160E94C61638F00E94CD1620F039F4E4
:102AA0009F3F19F426F40C94C3160EF4E095E7FB4F
:102AB0000C94BD16E92F0E94E51658F3BA17620769
:102AC00073078407950720F079F4A6F50C9407178F
:102AD0000EF4E0950B2EBA2FA02D0B01B901900139
:102AE0000C01CA01A0011124FF27591B99F0593F7D
:102AF00050F4503E68F11A16F040A22F232F342FC5
:102B00004427585FF3CF469537952795A795F04012
:102B10005395C9F77EF41F16BA0B620B730B840B27
:102B2000BAF09150A1F0FF0FBB1F661F771F881FDF
:102B3000C2F70EC0BA0F621F731F841F48F4879537
:102B400077956795B795F7959E3F08F0B0CF939529
:102B5000880F08F09927EE0F9795879508950E94A2
:102B6000991608F481E008950E94C8150C94D416B3
:102B70000E94CD1658F00E94C61640F029F45F3F1F
:102B800029F00C94BD1651110C9408170C94C3161F
:102B90000E94E51668F39923B1F3552391F3951B31
:102BA000550BBB27AA2762177307840738F09F5F6E
:102BB0005F4F220F331F441FAA1FA9F335D00E2EDB
:102BC0003AF0E0E832D091505040E695001CCAF748
:102BD0002BD0FE2F29D0660F771F881FBB1F26170B
:102BE00037074807AB07B0E809F0BB0B802DBF01E2
:102BF000FF2793585F4F3AF09E3F510578F00C94B1
:102C0000BD160C9408175F3FE4F3983ED4F3869505
:102C100077956795B795F7959F5FC9F7880F911DD1
:102C20009695879597F90895E1E0660F771F881FBD
:102C3000BB1F621773078407BA0720F0621B730B70
:102C4000840BBA0BEE1F88F7E09508950E942D16AD
:102C50006894B1110C94081708950E94ED1688F03D
:102C60009F5798F0B92F9927B751B0F0E1F0660F50
:102C7000771F881F991F1AF0BA95C9F714C0B13091
:102C800091F00E940717B1E008950C940717672F81
:102C9000782F8827B85F39F0B93FCCF386957795C0
:102CA0006795B395D9F73EF49095809570956195A9
:102CB0007F4F8F4F9F4F0895E89409C097FB3EF4D4
:102CC00090958095709561957F4F8F4F9F4F992379
:102CD000A9F0F92F96E9BB279395F69587957795F7
:102CE0006795B795F111F8CFFAF4BB0F11F460FFB7
:102CF0001BC06F5F7F4F8F4F9F4F16C0882311F00F
:102D000096E911C0772321F09EE8872F762F05C022
:102D1000662371F096E8862F70E060E02AF09A95BD
:102D2000660F771F881FDAF7880F9695879597F9B2
:102D30000895990F0008550FAA0BE0E8FEEF16164C
:102D40001706E807F907C0F012161306E407F5079F
:102D500098F0621B730B840B950B39F40A2661F013
:102D6000232B242B252B21F408950A2609F4A140B6
:102D7000A6958FEF811D811D089597F99F6780E8C3
:102D800070E060E008959FEF80EC089500240A94BD
:102D90001616170618060906089500240A94121636
:102DA0001306140605060895092E0394000C11F469
:102DB000882352F0BB0F40F4BF2B11F460FF04C016
:102DC0006F5F7F4F8F4F9F4F089557FD9058440F6F
:102DD000551F59F05F3F71F04795880F97FB991F7A
:102DE00061F09F3F79F08795089512161306140637
:102DF000551FF2CF4695F1DF08C0161617061806C4
:102E0000991FF1CF86957105610508940895E8949E
:102E1000BB2766277727CB0197F908950E9499165B
:102E200008F48FEF08950E9426170C94D4160E9480
:102E3000C61638F00E94CD1620F0952311F00C94A0
:102E4000BD160C94C31611240C9408170E94E516A5
:102E500070F3959FC1F3950F50E0551F629FF001ED
:102E6000729FBB27F00DB11D639FAA27F00DB11D06
:102E7000AA1F649F6627B00DA11D661F829F22278F
:102E8000B00DA11D621F739FB00DA11D621F839F16
:102E9000A00D611D221F749F3327A00D611D231FEC
:102EA000849F600D211D822F762F6A2F11249F573A
:102EB00050409AF0F1F088234AF0EE0FFF1FBB1F3D
:102EC000661F771F881F91505040A9F79E3F5105FC
:102ED00080F00C94BD160C9408175F3FE4F3983E05
:102EE000D4F3869577956795B795F795E7959F5FA6
:102EF000C1F7FE2B880F911D9695879597F9089538
:102F000097FB072E16F4009407D077FD09D00E9496
:102F1000941707FC05D03EF4909581959F4F089536
:102F2000709561957F4F0895AA1BBB1B51E107C0A7
:102F3000AA1FBB1FA617B70710F0A61BB70B881F49
:102F4000991F5A95A9F780959095BC01CD010895D8
:102F5000EE0FFF1F0590F491E02D0994F894FFCF38
:102F60003132333435363738392A3023546F6E6571
:102F7000203100000000000000000000546F6E656A
:102F8000203200000000000000000000546F6E6559
:102F9000203300000000000000000000546F6E6548
:102FA000203400000000000000000000546F6E6537
:102FB0002035000000000000000000005365742070
:102FC000416C61726D0000000000000053657420C8
:102FD00054696D65000000000000000044656C65E8
:102FE000746520416C61726D73000000466163740A
:102FF0006F727920526573657400000041626F75CD
:103000007420757300000000000000001F001C0009
:103010001F001E001F001E001F001F001E001F00BB
:103020001E001F00FFFFFFFFFFFFFFFFFFFFFFFF6F
:10303000FFFFFFFFFFFFFFFF10031003100310034C
:10304000000004000400040004000100D201D201C9
:10305000D201D2014B024B024B024B020B020B027C
:103060000B020B02BA02BA02BA02BA021003100330
:1030700010031003100310031003100310031003B8
:10308000100310030B02D201B8015D01880100009A
:1030900088014B020B020000D2010000B8010000C1
:1030A000B801B8010B020000D201B801880100008C
:1030B0008801A4037003A4037003A4038801000023
:1030C0008801A4037003A4037003A4038801000013
:1030D00088014B020B020000D2010000B801000081
:1030E000B801B8010B020000D201B80104000400CD
:1030F00004000400040004000400040004000400B0
:10310000040004000400040004000400040004009F
:10311000040004000400040004000400040004008F
:10312000040004000400040004000400040004007F
:10313000040004000400040004000400040004006F
:10314000040004000400040004000400040004005F
:10315000040004000400040004000400040004004F
:10316000040004000400040004000400040004003F
:10317000040004000400040004000400040004002F
:103180000400040004000400040004004A01880153
:10319000B801B8010000B801EE010B020B020000FB
:1031A0000B024B02EE01EE010000B8018801B801EC
:1031B0004A018801B801B8010000B801EE010B0214
:1031C0000B0200000B024B02EE01EE010000B80101
:1031D0008801B80108000800040008000800080081
:1031E00008000400080008000800080004000800A7
:1031F0000800080008000200080008000400080099
:103200000800080008000400080008000800080082
:1032100004000800080008000800020088010601F8
:1032200037015D018801060137015D018801060152
:1032300037015D018801060137015D018801060142
:103240004A015D0188010C000C00180018000C00F8
:103250000C00180018000C000C00180018000C00DE
:103260000C00180018000C000C00180018000C00CE
:10327000060188018801720188019F0188015D01B2
:103280000B020B025D010B020B02EE010B024B0263
:103290000B026E026E0210030B020B024B026E0257
:1032A0004B020B02BA020B02000000000C000600E9
:1032B0000C001800180006000C000C0004000300AD
:1032C0000C0006000C001800180006000C0003009B
:1032D00003000C0006000C000C000C000C000C009D
:1032E0000C000C000600060057656C636F6D6500EE
:1032F00054696D653A20003A00446174653A2000D3
:103300003230002D00414C41524D2053544F524118
:1033100047450046554C4C20212121006868203A41
:10332000206D6D00203A2000414C41524D204E4FFF
:10333000542056414C4944210053656C6563742008
:103340006120746F6E6500416C41524D20534156AF
:103350004544203A2900280029204E4F4E45002997
:10336000200041726520796F7520737572653F008A
:1033700059657320202020202020202020204E6FFF
:1033800000506C656173652057616974002E0044BC
:103390004F4E45212121004974277320004F524F81
:1033A0004C4F47494F005365742074696D65206820
:1033B00065726500686800536574206461746520F7
:1033C00068657265005959203A204D4D203A2044D5
:1033D00044004D4D0020204F202020202020202080
:1033E00020204F20200020204F202020202020209F
:1033F0002020202D202000202020202020202056AA
:10340000202020202020200020202D2020202020CF
:0A34100020202020202D20200000A5
:00000001FF
