S0130000416C61726D54696D696E672E73726563BC
S11300000C9435000C945D000C945D000C945D0020
S11300100C945D000C945D000C945D000C945D00E8
S11300200C945D000C945D000C945D000C945D00D8
S11300300C945D000C945D000C945D000C945D00C8
S11300400C945D000C945D000C945D000C945D00B8
S11300500C945D000C945D000C945D000C945D00A8
S11300600C945D000C945D00370211241FBECFEF89
S1130070D8E0DEBFCDBF12E0A0E0B1E0E4E0F5E1FE
S113008002C005900D92AC33B107D9F722E0ACE37E
S1130090B2E001C01D92A735B207E1F710E0C5E355
S11300A0D0E004C02197FE010E947A0AC433D1072C
S11300B0C9F70E942E020C94800A0C9400009DEC57
S11300C0899F912D1124969596959695292F220F07
S11300D0920F292F220F820F0895282F30E0359593
S11300E02795359527953595279535952795922FFD
S11300F0990F290F922F990F891B08950E941E01B1
S113010083E08A95F1F700000895CF92EF92FF9271
S11301100F931F93CF93DF93C82FD62F142FF22E54
S113012080ED0E944A0180E00E947C018C2D0E9497
S11301305F000E947C018E2D0E945F000E947C0162
S1130140802F0E945F000E947C018F2D0E945F001F
S11301500E947C01812F0E945F000E947C018D2FF0
S11301600E945F000E947C018C2F0E945F000E940D
S11301707C0180E00E947C010E947401DF91CF9198
S11301801F910F91FF90EF90CF9008956F927F92FF
S11301908F929F92AF92BF92CF92DF92EF92FF9293
S11301A00F931F93CF93DF93EC013B015A01490155
S11301B080ED0E944A0180E00E947C010E9474014B
S11301C081ED0E9471010E948E018F770E946D0063
S11301D0F60180830E948E010E946D00F7018083E6
S11301E00E948E010E946D00F80180830E948E019E
S11301F00E946D00F40180830E948E010E946D00B4
S1130200F50180830E948E010E946D00F3018083BA
S11302100E9498010E946D0088830E947401DF91FE
S1130220CF911F910F91FF90EF90DF90CF90BF90EF
S1130230AF909F908F907F906F9008951092B90027
S11302408DEF8093B800089594EA9093BC00909148
S1130250BC009923E4F79091B900987F983011F08D
S1130260903191F48093BB0084E88093BC0080912A
S1130270BC008823E4F78091B900887F883131F08D
S1130280803431F480E0089581E0089580E0089599
S113029081E0089594EA9093BC009091BC00992366
S11302A0E4F79091B900987F983011F0903191F76C
S11302B08093BB0094E89093BC009091BC00992378
S11302C0E4F79091B900987F903211F0983541F499
S11302D094E99093BC009091BC0094FDFCCFDACFDC
S11302E008950E942401089584E98093BC008091BC
S11302F0BC0084FDFCCF08958093BB0084E8809308
S1130300BC008091BC008823E4F78091B900887F09
S1130310883211F081E0089580E0089584EC8093A0
S1130320BC008091BC008823E4F78091BB00089551
S113033084E88093BC008091BC008823E4F780911A
S1130340BB0008958CE392E00E944103882351F09E
S11303508CE392E00E942E038CE392E00E94DE0282
S11303600E94CB0988B18F6088B940E050E04430E6
S113037051050CF04FC087B1807F87B984B1887F65
S113038084B927B181E090E0042E02C0880F991F40
S11303900A94E2F7922F982B97B998B18095892304
S11303A088B920E030E0233031058CF565B181E077
S11303B090E0022E02C0880F991F0A94E2F7862B60
S11303C085B983B190E0022E02C0959587950A9471
S11303D0E2F780FD19C0CA01880F991F480F591F01
S11303E040505F4FFA01E20FF31F808191E08A329F
S11303F009F490E0992331F091E0833209F490E01C
S1130400911109C088E508952F5F3F4FCCCF4F5F0E
S11304105F4FADCF88E50895CF93DF93EC01CE0114
S11304200E94A2018835D9F32FE73AE196E02150E2
S113043030409040E1F700C00000DF91CF91089573
S1130440019759F46F3F7F4F41F444E050E063E07B
S113045070E08DE392E00E944C0A08950E947E00B1
S113046081E492E00E94AE020E94BC09FDCF6FEFCE
S11304707FEF81E090E00E94200208958BB18F709D
S1130480962F907F892B8BB98BB18E7F8BB98BB1D3
S113049082608BB900008BB18D7F8BB982E48A9521
S11304A0F1F700C08BB190E1699FB00111248F7006
S11304B0682B6BB98BB182608BB900008BB18D7FD7
S11304C08BB983EF91E00197F1F700C00000089524
S11304D08BB18F70962F907F892B8BB98BB18160F4
S11304E08BB98BB182608BB900008BB18D7F8BB9D6
S11304F082E48A95F1F700C08BB190E1699FB00165
S113050011248F70682B6BB98BB182608BB900009A
S11305108BB18D7F8BB983EF91E00197F1F700C028
S113052000000895EF92FF920F931F93CF93DF93F0
S11305307C018B01C0E0D0E0F801EC0FFD1F60816D
S1130540662329F0C7010E9468022196F5CFDF9146
S1130550CF911F910F91FF90EF900895CF93DF9368
S1130560EC018FEF8AB987E893E10197F1F700C0B6
S1130570000062E0CE010E943E0268E2CE010E94C9
S11305803E026CE0CE010E943E0266E0CE010E9473
S11305903E0261E0CE010E943E026EE671E0CE01B1
S11305A00E9492029FE32DE083E09150204080401E
S11305B0E1F700C00000DF91CF910895CF93DF935E
S11305C0EC0161E00E943E0283EF91E00197F1F7B4
S11305D000C0000060E8CE010E943E02DF91CF918E
S11305E008958FEC84B98AB1837F8AB91C9B0BC0B0
S11305F02FED83E994E0215080409040E1F700C062
S1130600000083E708951D9B0BC02FED83E994E060
S1130610215080409040E1F700C0000082E6089538
S11306204A9B0BC02FED83E994E021508040904019
S1130630E1F700C0000085E708954B9BD7CF2FED6D
S113064083E994E0215080409040E1F700C000002D
S113065084E608956FE00E943E0208956CE00E94D3
S11306603E0208951C9B0BC02FE38DE093E02150C4
S113067080409040E1F700C0000081E0089580E0F0
S113068008951D9B0BC02FE78AE196E0215080401E
S11306909040E1F700C0000081E0089580E00895F3
S11306A0CF92DF92EF92FF920F931F93CF9360E864
S11306B086E592E00E943E020F2EFEE4CF2EF2E089
S11306C0DF2EF02D0F2EFFE4EF2EF2E0FF2EF02DA3
S11306D000E512E021E532E042E552E063E572E034
S11306E084E592E00E94C60066E771E086E592E048
S11306F00E94920260915002CDEC6C9F612D1124F6
S1130700669566956695605D86E592E00E9468024E
S1130710609150026C9F812D112486958695869553
S1130720880F982F990F990F890F681B605D86E5D4
S113073092E00E9468026DE771E086E592E00E9413
S1130740920260914F026C9F612D1124669566950B
S11307506695605D86E592E00E94680260914F02B2
S11307606C9F812D1124869586958695880F982FE8
S1130770990F990F890F681B605D86E592E00E94CE
S113078068026DE771E086E592E00E949202609152
S11307904E026C9F612D1124669566956695605D89
S11307A086E592E00E94680260914E026C9F812D62
S11307B01124869586958695880F982F990F990F01
S11307C0890F681B605D86E592E00E94680260EC18
S11307D086E592E00E943E026FE771E086E592E0D2
S11307E00E94920266E871E086E592E00E9492021D
S11307F0609154026C9F612D1124669566956695EF
S1130800605D86E592E00E946802609154026C9FEC
S1130810812D1124869586958695880F982F990F9A
S1130820990F890F681B605D86E592E00E9468025B
S113083069E871E086E592E00E94920260915302B9
S11308406C9F612D1124669566956695605D86E5BD
S113085092E00E946802609153026C9F812D1124E2
S1130860869586958695880F982F990F990F890FED
S1130870681B605D86E592E00E94680269E871E0A9
S113088086E592E00E949202609152026C9F612D73
S11308901124669566956695605D86E592E00E94F2
S11308A06802609152026C9FC12D1124C695C695B1
S11308B0C695CC0F8C2F880F880FC80F6C1B605DFA
S11308C086E592E00E946802CF911F910F91FF90FC
S11308D0EF90DF90CF900895CF93DF93EC0121E068
S11308E030E0E0E0F0E0C217D3076CF0C901837098
S11308F09927892B19F4E259FE4F02C0E359FE4FA0
S11309002F5F3F4FF0CF20E030E0DB0111972A1733
S11309103B073CF591E0DE01A370BB27AB2B09F04C
S113092090E0992391F091E02130310509F090E0B5
S1130930992359F0D901AA0FBB1FA45BBE4F8D9117
S11309409C91E80FF91F319609C0D901AA0FBB1F6A
S1130950A45BBE4F8D919C91E80FF91F2F5F3F4F11
S1130960D4CF4E0F5F1FCA01059667E070E00E9466
S1130970520ADF91CF9108950F931F93CF93DF9382
S113098080914202909143020597F9F486E592E042
S11309900E94DE026BE871E086E592E00E9492021A
S11309A060EC86E592E00E943E0269E971E086E52A
S11309B092E00E9492022FE78AE196E02150804063
S11309C09040E1F700C00000BEC086E592E00E94BE
S11309D0DE0262EA71E086E592E00E94920260E83B
S11309E086E592E00E943E0286E592E00E942A0398
S11309F085E592E00E940C02082F682F86E592E0BC
S1130A000E94680285E592E00E940C02182F682F6C
S1130A1086E592E00E9468026AEA71E086E592E067
S1130A200E94920285E592E00E940C02C82F682F72
S1130A3086E592E00E94680285E592E00E940C023D
S1130A40D82F682F86E592E00E94680286E592E03E
S1130A500E942E032FE78AE196E0215080409040C7
S1130A60E1F700C00000602F70E06053710988EE68
S1130A7093E0689FA001699F500D789F500D112449
S1130A80612F70E06053710924E6269FC001279FFF
S1130A90900D1124480F591F6C2F70E0CB01C097A3
S1130AA0BC01660F771F9C01220F331F220F331FD7
S1130AB0220F331FCB01820F931F840F951F6D2FBD
S1130AC070E060537109860F971F883329E09207FD
S1130AD0B4F086E592E00E94DE026EEA71E086E5FB
S1130AE092E00E9492028FE39DE023E081509040C7
S1130AF02040E1F700C000000E94BC0424C0209103
S1130B00420230914302F901EE0FFF1FEC59FE4FF0
S1130B10918380832F5F3F4F30934302209342029F
S1130B2086E592E00E94DE026FEB71E086E592E0DA
S1130B300E9492028FE39DE023E081509040204088
S1130B40E1F700C00000DF91CF911F910F9108954C
S1130B508091640190916501019681F486E592E0AB
S1130B600E94DE0261E386E592E00E9468026EEC78
S1130B7071E086E592E00E94920246C086E592E02A
S1130B800E94DE0261E386E592E00E94680265ED60
S1130B9071E086E592E00E94920220916401309116
S1130BA06501C90164E670E00E94520A7B018C0170
S1130BB0C90168EE73E00E94520A605D86E592E026
S1130BC00E946802CAE0D0E0C701BE010E94520A36
S1130BD060E3680F86E592E00E9468026DE771E0C9
S1130BE086E592E00E949202C801BE010E94520A68
S1130BF0C82F605D86E592E00E94680260E36C0F96
S1130C0086E592E00E946802C0E0D0E086E592E0CA
S1130C100E94F102843629F4C430D10541F02196B2
S1130C200BC0853749F4209729F0219705C0C0E00F
S1130C30D0E002C0C4E0D0E0FE01EE0FFF1FEC598B
S1130C40FE4F80819181019689F486E592E00E94AD
S1130C50DE026C2F6F5C86E592E00E9468026EEC07
S1130C6071E086E592E00E949202D0CF86E592E0A0
S1130C700E94DE026C2F6F5C86E592E00E9468029F
S1130C8065ED71E086E592E00E949202FE01EE0FAE
S1130C90FF1FEC59FE4F20813181C90164E670E0E9
S1130CA00E94520A6B017C01C90168EE73E00E9444
S1130CB0520A605D86E592E00E9468020AE010E054
S1130CC0C601B8010E94520A60E3680F86E592E00B
S1130CD00E9468026DE771E086E592E00E9492024C
S1130CE0C701B8010E94520A182F605D86E592E0A0
S1130CF00E94680260E3610F86E592E00E94680248
S1130D0085CFCF92EF920F9386E592E00E94DE02A8
S1130D1068ED71E086E592E00E94920260EC86E55F
S1130D2092E00E943E0266EE71E086E592E00E9447
S1130D30920286E592E00E943203882309F4A3C05C
S1130D40C12CE12C00E020E041E061E080E00E9461
S1130D50850067EF71E086E592E00E9492022FE33E
S1130D608DE093E0215080409040E1F700C0000006
S1130D7063E072E086E592E00E9492022FE38DE048
S1130D8093E0215080409040E1F700C0000063E010
S1130D9072E086E592E00E9492022FE38DE093E0F8
S1130DA0215080409040E1F700C0000063E072E011
S1130DB086E592E00E9492022FE38DE093E02150B9
S1130DC080409040E1F700C0000086E592E00E9478
S1130DD0DE0283EC99E00197F1F700C0000067EFB1
S1130DE071E086E592E00E9492029FE32DE083E0A9
S1130DF0915020408040E1F700C0000063E072E0C1
S1130E0086E592E00E9492029FE32DE083E09150F8
S1130E1020408040E1F700C0000063E072E086E516
S1130E2092E00E9492029FE32DE083E091502040E3
S1130E308040E1F700C0000063E072E086E592E0E4
S1130E400E9492029FE32DE083E091502040804075
S1130E50E1F700C0000086E592E00E94DE0265E052
S1130E6072E086E592E00E9492029FE32DE083E027
S1130E70915020408040E1F700C0000086E592E0F8
S1130E800E94DE0207C086E592E00E9441038823A7
S1130E9009F44FCF0F91EF90CF9008950F931F93C4
S1130EA0CF93DF938C01C0E0D0E0C017D1073CF4AE
S1130EB064E186E592E00E943E022196F6CFDF913E
S1130EC0CF911F910F9108950F931F93CF93DF93A9
S1130ED08C01C0E0D0E0C017D1073CF460E186E5A6
S1130EE092E00E943E022196F6CFDF91CF911F91AE
S1130EF00F9108958F929F92AF92BF92CF92EF92EB
S1130F000F931F93CF93DF9386E592E00E94DE0256
S1130F106DE072E086E592E00E94920260EC86E564
S1130F2092E00E943E0262EA71E086E592E00E944D
S1130F30920260EC86E592E00E943E0286E592E031
S1130F400E942A0385E592E00E940C02282F30E0DB
S1130F5020533109C901880F991F220F331F220F13
S1130F60331F220F331F820F931F909349028093E4
S1130F704802CAE0D0E0BE010E94520A605D86E5E4
S1130F8092E00E94680285E592E00E940C0290E0E3
S1130F90C0972091480230914902820F931F909389
S1130FA0490280934802BE010E94520A60E3680F1E
S1130FB086E592E00E94680286E592E00E942E0394
S1130FC083E294EF0197F1F700C00000809148029A
S1130FD090914902489764F060EC86E592E00E94A3
S1130FE03E026BE172E086E592E00E949202A1CF9C
S1130FF06AEA71E086E592E00E94920286E592E058
S11310000E942A0385E592E00E940C02282F30E01A
S113101020533109C901880F991F220F331F220F52
S1131020331F220F331F820F931F90934702809325
S11310304602CAE0D0E0BE010E94520A605D86E525
S113104092E00E94680285E592E00E940C0290E022
S1131050C0972091460230914702820F931F9093CC
S1131060470280934602BE010E94520A60E3680F61
S113107086E592E00E94680283E294EF0197F1F71B
S113108000C0000086E592E00E942E038091460293
S113109090914702CC97A4F060EC86E592E00E9420
S11310A03E0285E090E00E944E0767EA71E086E523
S11310B092E00E94920282E090E00E9464079ECF38
S11310C09FE926E881E0915020408040E1F700C08C
S11310D0000086E592E00E94DE026EE172E086E5A1
S11310E092E00E94920260EC86E592E00E943E0249
S11310F06CE272E086E592E00E94920260EC86E582
S113110092E00E943E0286E592E00E942A0385E571
S113111092E00E940C0290E0C097EC01CC0FDD1F1E
S1131120880F991F880F991F880F991F8E01080F28
S1131130191F0F2EFAE0AF2EB12CF02DC801B50106
S11311400E94520A605D86E592E00E94680285E58D
S113115092E00E940C02C82FD0E0E097C00FD11F8C
S1131160CE01B5010E94520A60E3680F86E592E061
S11311700E94680286E592E00E942E0383E294EFC7
S11311800197F1F700C000006AEA71E086E592E099
S11311900E94920286E592E00E942A0385E592E08D
S11311A00E940C02282F30E020533109C901880F16
S11311B0991F220F331F220F331F220F331F820F59
S11311C0931F90934D0280934C020AE010E0B80103
S11311D00E94520A605D86E592E00E94680285E5FD
S11311E092E00E940C0290E0C09720914C02309152
S11311F04D02820F931F90934D0280934C02B801CD
S11312000E94520A60E3680F86E592E00E94680239
S113121083E294EF0197F1F700C0000086E592E0C5
S11312200E942E0380914C0290914D020D97A4F0E0
S113123060EC86E592E00E943E0285E090E00E9428
S11312404E0769E372E086E592E00E94920282E032
S113125090E00E9464079ECF6AEA71E086E592E01E
S11312600E94920286E592E00E942A0385E592E0BC
S11312700E940C02282F30E020533109C901880F45
S1131280991F220F331F220F331F220F331F820F88
S1131290931F90934B0280934A020AE010E0B80136
S11312A00E94520A605D86E592E00E94680285E52C
S11312B092E00E940C0290E0C09720914A02309183
S11312C04B02820F931F90934B0280934A02B80102
S11312D00E94520A60E3680F86E592E00E94680269
S11312E083E294EF0197F1F700C0000086E592E0F5
S11312F00E942E03A0904C02B0904D02F50131974C
S1131300EE0FFF1FE45BFE4F8081918180904A02C3
S113131090904B0288169906A4F060EC86E592E062
S11313200E943E028AE090E00E944E0766E372E06B
S113133086E592E00E94920282E090E00E946407B7
S113134091CFA401B501CE010E946C04E090460245
S113135000914802C12C282F482D6A2D8C2F0E9401
S11313608500DF91CF911F910F91EF90CF90BF90A7
S1131370AF909F908F9008950E94500386E592E06D
S11313800E943203882331F086E592E00E94DE0257
S11313900E94CB09089586E592E00E94DE026091E6
S11313A044027091450262957295707F7627607F42
S11313B07627645F7E4F86E592E00E94920286E57E
S11313C092E00E94F102843691F48091440290915B
S11313D045028330910529F410924502109244028B
S11313E03DC00196909345028093440237C08537EF
S11313F099F48091440290914502009739F483E076
S113140090E0909345028093440228C00197909302
S113141045028093440222C0823619F40E94BC091A
S113142008958337D9F48091440290914502813024
S1131430910569F01CF4892B39F010C082309105B4
S113144049F0039749F00AC00E94BC0407C00E94F7
S11314507A0704C00E94A8050E94810686E592E0EE
S11314600E94DE0260914402709145026295729579
S1131470707F7627607F7627645F7E4F86E592E0F3
S11314800E9492022FE986E891E02150804090402A
S1131490E1F700C0000093CFFC01718360835383A4
S11314A04283089597FB072E16F4009407D077FD26
S11314B009D00E94660A07FC05D03EF490958195F8
S11314C09F4F0895709561957F4F0895AA1BBB1B8C
S11314D051E107C0AA1FBB1FA617B70710F0A61B30
S11314E0B70B881F991F5A95A9F780959095BC0151
S11314F0CD010895EE0FFF1F0590F491E02D09949E
S1071500F894FFCF89
S11315043132333435363738392A3023536574202D
S1131514416C61726D00000000000000536574208A
S113152454696D65000000000000000044656C65AA
S1131534746520416C61726D7300000046616374CC
S11315446F72792052657365740000001F001C00DB
S11315541F001E001F001E001F001F001E001F008E
S11315641E001F00FFFFFFFFFFFFFFFFFFFF576584
S11315746C636F6D650054696D653A20003A0044EC
S11315846174653A20003230002D00414C41524DC3
S11315942053544F524147450046554C4C20212179
S11315A421006868203A206D6D00203A2000414CE7
S11315B441524D204E4F542056414C494421004140
S11315C46C41524D205341564544203A29002E2063
S11315D44E4F4E45002E200041726520796F7520D0
S11315E4737572653F0059657320202020202020E4
S11315F4202020204E6F00506C6561736520576174
S11316046974002E00444F4E452121210053657412
S11316142074696D652068657265006868005365A7
S11316247420646174652068657265005959203AB0
S10F1634204D4D203A204444004D4D0050
S9030000FC
