S0130000416C61726D54696D696E672E73726563BC
S11300000C9434000C9451000C9451000C94510045
S11300100C9451000C9451000C9451000C94510018
S11300200C9451000C9451000C9451000C94510008
S11300300C9451000C9451000C9451000C945100F8
S11300400C9451000C9451000C9451000C945100E8
S11300500C9451000C9451000C9451000C945100D8
S11300600C9451000C94510011241FBECFEFD8E022
S1130070DEBFCDBF11E0A0E0B1E0E0E5F6E002C0F4
S113008005900D92A230B107D9F721E0A2E0B1E0CA
S113009001C01D92A631B207E1F70E942A020C9416
S11300A026030C940000282F30E0359527953595CC
S11300B027953595279535952795922F990F290FD3
S11300C0922F990F891B08950E94BB008AE18A959B
S11300D0F1F700C008958F929F92AF92BF92CF9292
S11300E0DF92EF92FF920F931F93CF93DF93EC0174
S11300F06B015A01490180ED0E94E70080E00E94F3
S113010019010E94110181ED0E940E010E942B0130
S11301108F770E945300F70180830E942B010E9475
S11301205300F80180830E942B010E945300F401C4
S113013080830E942B010E942B010E945300F50131
S113014080830E942B010E945300F60180830E9449
S113015035010E94530088830E941101DF91CF91E1
S11301601F910F91FF90EF90DF90CF90BF90AF90D1
S11301709F908F9008951092B90080E28093B80008
S1130180089594EA9093BC009091BC009923E4F7FD
S11301909091B900987F983011F0903191F4809348
S11301A0BB0084E88093BC008091BC008823E4F702
S11301B08091B900887F883131F0803431F480E057
S11301C0089581E0089580E0089581E0089594EA17
S11301D09093BC009091BC009923E4F79091B900EE
S11301E0987F983011F0903191F78093BB0094E898
S11301F09093BC009091BC009923E4F79091B900CE
S1130200987F903211F0983541F494E99093BC00B2
S11302109091BC0094FDFCCFDACF08950E94C100F8
S1130220089584E98093BC008091BC0084FDFCCFD8
S113023008958093BB0084E88093BC008091BC0047
S11302408823E4F78091B900887F883211F081E037
S1130250089580E0089584EC8093BC008091BC00F4
S11302608823E4F78091BB00089584E88093BC0060
S11302708091BC008823E4F78091BB00089545B1C8
S113028021E030E0B90102C0660F771F8A95E2F7DA
S1130290CB01462B45B97FE32DE033E0715020407C
S11302A03040E1F700C0000095B18095892385B9FD
S11302B04FE36DE073E0415060407040E1F700C0EF
S11302C0000008954D9B0CC083E00E943F01809183
S11302D00001909101010196909301018093000126
S11302E008954D9B16C084E00E943F018091040153
S11302F0909105018C30910539F481E090E0909360
S1130300050180930401089501969093050180935B
S1130310040108954D9B13C0809102019091030143
S11303208F31910539F481E090E09093030180933B
S113033002010895019690930301809302010895A8
S11303404D9B14C085E00E943F0180910E01909165
S11303500F018731910529F410920F0110920E01BB
S11303600895019690930F0180930E0108954D9B7B
S113037014C085E00E943F01809110019091110109
S11303808B33910529F410921101109210010895F4
S11303900196909311018093100108954D9B14C010
S11303A085E00E943F0180910A0190910B01873101
S11303B0910529F410920B0110920A0108950196F7
S11303C090930B0180930A0108954D9B14C085E01E
S11303D00E943F0180910C0190910D018B33910596
S11303E029F410920D0110920C0108950196909336
S11303F00D0180930C0108954D9B14C085E00E946B
S11304003F0180910601909107018731910529F4FC
S11304101092070110920601089501969093070126
S11304208093060108954D9B14C085E00E943F010E
S113043080910801909109018B33910529F4109260
S1130440090110920801089501969093090180937F
S113045008010895CF93DF9300D000D000D0CDB72A
S1130460DEB78FE784B91AB80E94640019821A8231
S11304701B821C821D821E82CE0106967C018E0187
S11304800B5F1F4F9E012C5F3F4FAE014D5F5F4FCF
S1130490BE016E5F7F4F05970E946B0080910E0135
S11304A090910F01029721F480E00E943F0103C064
S11304B085B18E7F85B94F9B14C0809114019091B2
S11304C015018430910529F410921501109214013C
S11304D008C00196909315018093140181E00E9455
S11304E03F018091140190911501009759F10197F2
S11304F049F54B9B14C080911201909113018330F4
S1130500910529F4109213011092120108C001966A
S1130510909313018093120182E00E943F01809125
S1130520120190911301009769F08130910519F43B
S11305300E94620107C0029719F40E94710102C06F
S11305400E948A01809114019091150182309105D5
S113055049F54B9B14C08091120190911301823094
S1130560910529F4109213011092120108C001960A
S1130570909313018093120182E00E943F018091C5
S1130580120190911301009709F476CF81309105FF
S113059019F40E94A00170CF029709F06DCF0E9458
S11305A0B7016ACF039749F54B9B14C080911201A0
S11305B0909113018230910529F410921301109245
S11305C0120108C00196909313018093120182E0F6
S11305D00E943F018091120190911301009709F448
S11305E04BCF8130910519F40E94CE0145CF02977B
S11305F009F042CF0E94E5013FCF4B9B14C080918C
S11306001201909113018230910529F41092130183
S11306101092120108C00196909313018093120165
S113062082E00E943F018091120190911301009792
S113063009F422CF8130910519F40E94FC011CCFEA
S1130640029709F019CF0E94130216CFF894FFCF36
S105065015008F
S9030000FC
