:100000000C9435000C945D000C945D000C945D0024
:100010000C945D000C945D000C945D000C945D00EC
:100020000C945D000C945D000C945D000C945D00DC
:100030000C945D000C945D000C945D000C945D00CC
:100040000C945D000C945D000C945D000C945D00BC
:100050000C945D000C945D000C945D000C945D00AC
:100060000C945D000C945D007E0011241FBECFEF48
:10007000D8E0DEBFCDBF16E0A0E0B1E0EEEAF7E1E8
:1000800002C005900D92AE36B107D9F726E0AEE674
:10009000B6E001C01D92A437B207E1F710E0C5E356
:1000A000D0E004C02197FE010E94CF0BC433D107DA
:1000B000C9F70E945F000C94D50B0C94000080E1FE
:1000C00097E220E931E0F9013197F1F70197D9F78B
:1000D0000CC0BE018EE696E00E9448092196C6300B
:1000E000D105BCF3C1E0D0E0F4CF60E070E08EE673
:1000F00096E00E944809C1E0D0E0EBCF41E050E03B
:1001000062E070E08EE696E00E9487000895FC01B0
:10011000718360835383428308952F923F924F925D
:100120005F926F927F928F929F92AF92BF92CF9287
:10013000DF92EF92FF920F931F93CF93DF93CDB790
:10014000DEB763970FB6F894DEBF0FBECDBF1C01BC
:100150006A017B01C901B80120E030E040E05FE3C3
:100160000E943A0B4B015C0124B181E090E0F10167
:10017000008002C0880F991F0A94E2F7822B84B98D
:1001800020E030E0A901C701B6010E94D609811123
:10019000D9C025B181E090E0F101008002C0880F54
:1001A000991F0A94E2F78095822385B92BEA3AEAEF
:1001B0004AEA50E4C501B4010E943A0B6B017C018C
:1001C00020E030E040E85FE30E94D60988230CF489
:1001D00070C020E030E040E850E4C501B4010E9466
:1001E0003A0B2B013C0120E03FEF4FE757E40E9420
:1001F000350B18160CF045C020E030E04AE754E417
:10020000C501B4010E94DB092B013C0120E030E074
:100210004AE755E40E943A0B6B017C0120E030E094
:1002200040E85FE30E94D60988232CF120E03FEFED
:100230004FE757E4C701B6010E94350B1816B4F416
:1002400020E030E040E251E4C301B2010E943A0BE9
:100250000E94540A6115710571F120E931E0C9016C
:100260000197F1F761507109D1F725C0C701B601B7
:100270000E94540A02C061E070E0CB010197F1F7DF
:100280001AC020E030E04FE753E4C701B6010E94F6
:10029000350B181644F4C301B2010E94540ACB0175
:1002A0000197F1F70BC0C701B6010E94540A698398
:1002B00002C0E1E0E983F981FA95F1F7A501940123
:1002C000C501B4010E946A094B015C0120E030E0E5
:1002D0004AE755E40E943A0B6B017C0120E030E0D4
:1002E00040E85FE30E94D609882334F120E03FEF25
:1002F0004FE757E4C701B6010E94350B1816BCF44E
:1003000020E030E040E251E4C501B4010E943A0B24
:100310000E94540A6115710509F496C120E931E083
:10032000C9010197F1F761507109D1F78DC1C7017A
:10033000B6010E94540A02C061E070E0CB0101974F
:10034000F1F782C1A701960160E070E080E89FE3C9
:100350000E94DB0920E030E04AE754E40E943A0BB7
:100360006B017C01A5019401C501B4010E946A09D9
:10037000A70196010E94DB090E944D0A4B015C0116
:1003800020E030E040E05FE3C701B6010E943A0B95
:10039000181419041A041B040CF056C120E030E0B4
:1003A0004AE754E40E943A0B6D877E878F87988BCB
:1003B0002BEA3AEA4AEA50E40E943A0B6B017C01CC
:1003C00020E030E040E850E46D857E858F85988997
:1003D0000E943A0B69877A878B879C87C701B60191
:1003E0000E94540A6B8B69857A858B859C850E9457
:1003F000540A7A8B698B00E010E00F2EF0E96F2E23
:1004000077247394F02D20E030E040E85FE3C701EB
:10041000B6010E94D60988230CF46BC020E03FEFA0
:100420004FE757E469857A858B859C850E94350B5B
:1004300018160CF04FC020E030E04AE754E46D8518
:100440007E858F8598890E94DB096D837E838F83EB
:10045000988720E030E04AE755E40E943A0B698330
:100460007A838B839C8320E030E040E85FE30E9446
:10047000D60988234CF120E03FEF4FE757E469812C
:100480007A818B819C810E94350B1816B4F420E090
:1004900030E040E251E46D817E818F8198850E9439
:1004A0003A0B0E94540A6115710539F1C301019795
:1004B000F1F761507109D1F720C069817A818B8190
:1004C0009C810E94540A02C061E070E0CB01019758
:1004D000F1F713C020E030E04FE753E4C701B60165
:1004E0000E94350B181644F489899A890197F1F70F
:1004F00007C04424439401C04B88842D8A95F1F7AA
:1005000025B181E090E0F101008002C0880F991FC1
:100510000A94E2F7822B85B920E030E040E85FE3FF
:10052000C701B6010E94D60988230CF46BC020E0F5
:100530003FEF4FE757E469857A858B859C850E945C
:10054000350B18160CF04FC020E030E04AE754E4B9
:100550006D857E858F8598890E94DB096D837E83FA
:100560008F83988720E030E04AE755E40E943A0BF9
:1005700069837A838B839C8320E030E040E85FE3EB
:100580000E94D60988234CF120E03FEF4FE757E463
:1005900069817A818B819C810E94350B1816B4F495
:1005A00020E030E040E251E46D817E818F819885CA
:1005B0000E943A0B0E94540A6115710539F1C3017A
:1005C0000197F1F761507109D1F720C069817A81F3
:1005D0008B819C810E94540A02C061E070E0CB01D3
:1005E0000197F1F713C020E030E04FE753E4C70173
:1005F000B6010E94350B181644F489899A8901972F
:10060000F1F707C05524539401C05B88852D8A9566
:10061000F1F795B121E030E0F101008002C0220F36
:10062000331F0A94E2F7822F8095892385B90F5FE3
:100630001F4FC801012E000CAA0BBB0B8815990592
:10064000AA05BB050CF4DFCE63960FB6F894DEBFA7
:100650000FBECDBFDF91CF911F910F91FF90EF9013
:10066000DF90CF90BF90AF909F908F907F906F90D2
:100670005F904F903F902F9008952F923F924F920E
:100680005F926F927F928F929F92AF92BF92CF9222
:10069000DF92EF92FF920F931F93CF93DF93CDB72B
:1006A000DEB76E970FB6F894DEBF0FBECDBF9A8F40
:1006B000898F8AE0E0E0F1E0DE01119601900D9271
:1006C0008A95E1F78AE0EAE0F1E0DE011B9601900D
:1006D0000D928A95E1F71092730610927206AA2481
:1006E000A394B12C4E0185E1880E911C0F2EF0E9E8
:1006F0002F2E33243394F02DAD8EBE8EAB8EBC8E58
:100700008091720690917306892B09F09BC093B17A
:100710009501E98DFA8D028002C0220F331F0A94E1
:10072000E2F7892F90E082239323892BC1F010C038
:1007300093B19501E98DFA8D028002C0220F331F1B
:100740000A94E2F7892F90E082239323892B71F09A
:10075000FD8DF09372068E8D80937306D1CF7E014E
:100760009BE0E90EF11CFE0131966F01F7016191EA
:1007700071917F0188EC90E00E94A70B072E000C7E
:10078000880B990B0E94850A2B013C01F6016191AF
:1007900071916F01072E000C880B990B0E94850A3E
:1007A000AB01BC0193018201898D9A8D0E948D005D
:1007B000A3019201C301B2010E946A096D8B7E8B75
:1007C0008F8B988F20E030E04AE755E40E943A0B87
:1007D0002B013C0120E030E040E85FE30E94D609B5
:1007E00088232CF120E03FEF4FE757E4C301B2012B
:1007F0000E94350B1816B4F420E030E040E251E4DA
:100800006D897E898F89988D0E943A0B0E94540AC7
:100810006115710589F0C1010197F1F76150710906
:10082000D1F70AC0C301B2010E94540A02C06B8D05
:100830007C8DCB010197F1F715B8E814F90409F0A4
:1008400077CF5ECF80EA9FE020E931E0F901319770
:10085000F1F70197D9F76E960FB6F894DEBF0FBE89
:10086000CDBFDF91CF911F910F91FF90EF90DF905F
:10087000CF90BF90AF909F908F907F906F905F9040
:100880004F903F902F9008952F923F924F925F92FA
:100890006F927F928F929F92AF92BF92CF92DF9290
:1008A000EF92FF920F931F93CF93DF93CDB7DEB7F5
:1008B000C858D1400FB6F894DEBF0FBECDBFCB579E
:1008C000DE4F99838883C558D14080ECE4E1F1E0A4
:1008D000DE01119601900D928A95E1F780ECE4ED2E
:1008E000F1E0DE01AF53BF4F01900D928A95E1F721
:1008F000109273061092720688248394912C1E0124
:100900008FE7281A8EEF380A0F2EF0E9EF2EFF241A
:10091000F394F02DC957DE4F8882C758D140C8578D
:10092000DE4F9882C858D14007C0809172069091DE
:100930007306892B09F0CFC093B19401CB57DE4FDA
:10094000E881F981C558D140028002C0220F331FCF
:100950000A94E2F7892F90E082239323892B59F19F
:1009600014C093B19401CB57DE4FE881F981C5588B
:10097000D140028002C0220F331F0A94E2F7892F70
:1009800090E082239323892BE9F0C957DE4FF88149
:10099000C758D140F0937206C857DE4F8881C858B7
:1009A000D1408093730688EE93E0F7013197F1F719
:1009B0000197D9F788C06E0191ECC90ED11CFE01D8
:1009C00031965F01F601619171916F0187E791E0C6
:1009D0000E94A70B072E000C880B990B0E94850A1A
:1009E0002B013C01F501619171915F01072E000C13
:1009F000880B990B0E94850AAB01BC01930182010F
:100A0000CB57DE4F88819981C558D1400E948D0017
:100A100026E636E646EA5FE3C301B2010E943A0BDE
:100A2000CF57DE4F688379838A839B83C158D14037
:100A300020E030E04AE755E40E943A0B2B013C01EC
:100A400020E030E040E85FE30E94D60988234CF1C3
:100A500020E03FEF4FE757E4C301B2010E94350B9E
:100A60001816D4F420E030E040E251E4CF57DE4FD6
:100A7000688179818A819B81C158D1400E943A0B5B
:100A80000E94540A61157105C9F0C7010197F1F779
:100A900061507109D1F712C0C301B2010E94540A1A
:100AA0000AC0C957DE4F6881C758D140C857DE4FCA
:100AB0007881C858D140CB010197F1F715B8C2141D
:100AC000D30409F04ECF80EA9FE0F7013197F1F7A8
:100AD0000197D9F72ACFC857DE4F0FB6F894DEBF7B
:100AE0000FBECDBFDF91CF911F910F91FF90EF907F
:100AF000DF90CF90BF90AF909F908F907F906F903E
:100B00005F904F903F902F9008952F923F924F9279
:100B10005F926F927F928F929F92AF92BF92CF928D
:100B2000DF92EF92FF920F931F93CF93DF93CDB796
:100B3000DEB7CC52D1400FB6F894DEBF0FBECDBFAA
:100B4000C75DDE4F99838883C952D14082E9E4E9C9
:100B5000F2E0DE01119601900D928A95E1F782E9AB
:100B6000E6E2F3E0DE01AD56BF4F01900D928A95AB
:100B7000E1F7109273061092720688248394912CE8
:100B80001E018BED281A8EEF380A0F2EF0E9EF2E9A
:100B9000FF24F394F02DC55DDE4F8882CB52D14007
:100BA000C45DDE4F9882CC52D14007C0809172065E
:100BB00090917306892B09F0CFC093B19401C75D62
:100BC000DE4FE881F981C952D140028002C0220F74
:100BD000331F0A94E2F7892F90E082239323892B15
:100BE00059F114C093B19401C75DDE4FE881F981DA
:100BF000C952D140028002C0220F331F0A94E2F78B
:100C0000892F90E082239323892BE9F0C55DDE4F85
:100C1000F881CB52D140F0937206C45DDE4F8881DB
:100C2000CC52D1408093730688EE93E0F701319760
:100C3000F1F70197D9F788C06E0193E9C90ED11C6D
:100C4000FE0131965F01F601619171916F0187E7B5
:100C500091E00E94A70B072E000C880B990B0E94B5
:100C6000850A2B013C01F501619171915F01072E0D
:100C7000000C880B990B0E94850AAB01BC01930103
:100C80008201C75DDE4F88819981C952D1400E949F
:100C90008D0026E636E646EA5FE3C301B2010E9414
:100CA0003A0BCB5DDE4F688379838A839B83C55281
:100CB000D14020E030E04AE755E40E943A0B2B0196
:100CC0003C0120E030E040E85FE30E94D609882341
:100CD0004CF120E03FEF4FE757E4C301B2010E941F
:100CE000350B1816D4F420E030E040E251E4CB5D3F
:100CF000DE4F688179818A819B81C552D1400E94F3
:100D00003A0B0E94540A61157105C9F0C701019799
:100D1000F1F761507109D1F712C0C301B2010E940D
:100D2000540A0AC0C55DDE4F6881CB52D140C45D14
:100D3000DE4F7881CC52D140CB010197F1F715B845
:100D4000C214D30409F04ECF80EA9FE0F701319737
:100D5000F1F70197D9F72ACFC45DDE4F0FB6F894AB
:100D6000DEBF0FBECDBFDF91CF911F910F91FF90DE
:100D7000EF90DF90CF90BF90AF909F908F907F903B
:100D80006F905F904F903F902F9008952F923F92D9
:100D90004F925F926F927F928F929F92AF92BF928B
:100DA000CF92DF92EF92FF920F931F93CF93DF9337
:100DB000CDB7DEB7C659D1400FB6F894DEBF0FBE2F
:100DC000CDBFCD56DE4F99838883C359D14084EF80
:100DD000E8EBF3E0DE01119601900D928A95E1F7C0
:100DE0008AE9ECEAF4E0DE01AB50BF4F01900D92CE
:100DF0008A95E1F710927306109272068824839404
:100E0000912C1E0181E7281A8EEF380A0F2EF0E987
:100E1000EF2EFF24F394F02DCB56DE4F8882C55978
:100E2000D140CA56DE4F9882C659D14007C0809142
:100E3000720690917306892B09F0CFC093B194018B
:100E4000CD56DE4FE881F981C359D140028002C0FE
:100E5000220F331F0A94E2F7892F90E08223932315
:100E6000892B59F114C093B19401CD56DE4FE8811E
:100E7000F981C359D140028002C0220F331F0A9466
:100E8000E2F7892F90E082239323892BE9F0CB5658
:100E9000DE4FF881C559D140F0937206CA56DE4F35
:100EA0008881C659D1408093730688EE93E0F7019C
:100EB0003197F1F70197D9F788C06E0195EFC90E08
:100EC000D11CFE0131965F01F601619171916F01B4
:100ED0008FE595E00E94A70B072E000C880B990B5D
:100EE0000E94850A2B013C01F501619171915F011E
:100EF000072E000C880B990B0E94850AAB01BC01E0
:100F000093018201CD56DE4F88819981C359D1402A
:100F10000E948D0026E636E646EA5FE3C301B20191
:100F20000E943A0BC157DE4F688379838A839B8383
:100F3000CF58D14020E030E04AE755E40E943A0B18
:100F40002B013C0120E030E040E85FE30E94D6093D
:100F500088234CF120E03FEF4FE757E4C301B20193
:100F60000E94350B1816D4F420E030E040E251E442
:100F7000C157DE4F688179818A819B81CF58D140EA
:100F80000E943A0B0E94540A61157105C9F0C7010D
:100F90000197F1F761507109D1F712C0C301B20195
:100FA0000E94540A0AC0CB56DE4F6881C559D14011
:100FB000CA56DE4F7881C659D140CB010197F1F76F
:100FC00015B8C214D30409F04ECF80E197E2F701BF
:100FD0003197F1F70197D9F72ACFCA56DE4F0FB6EE
:100FE000F894DEBF0FBECDBFDF91CF911F910F915F
:100FF000FF90EF90DF90CF90BF90AF909F908F9039
:101000007F906F905F904F903F902F9008952F9218
:101010003F924F925F926F927F928F929F92AF9288
:10102000BF92CF92DF92EF92FF920F931F93CF93D5
:10103000DF93CDB7DEB7C053D1400FB6F894DEBF13
:101040000FBECDBFC35DDE4F99838883CD52D140A3
:1010500084E9E6E4F5E0DE01119601900D928A95AF
:10106000E1F784E9EAEDF5E0DE01AB56BF4F019010
:101070000D928A95E1F710927306109272068824F9
:101080008394912C1E0187ED281A8EEF380A0F2EBB
:10109000F0E9EF2EFF24F394F02DC15DDE4F88823E
:1010A000CF52D140C05DDE4F9882C053D14007C0BF
:1010B0008091720690917306892B09F0CFC093B18D
:1010C0009401C35DDE4FE881F981CD52D1400280A9
:1010D00002C0220F331F0A94E2F7892F90E0822387
:1010E0009323892B59F114C093B19401C35DDE4F52
:1010F000E881F981CD52D140028002C0220F331F16
:101100000A94E2F7892F90E082239323892BE9F058
:10111000C15DDE4FF881CF52D140F0937206C05DC1
:10112000DE4F8881C053D1408093730688EE93E0F0
:10113000F7013197F1F70197D9F788C06E0195E96A
:10114000C90ED11CFE0131965F01F60161917191CA
:101150006F0185E694E00E94A70B072E000C880B18
:10116000990B0E94850A2B013C01F5016191719157
:101170005F01072E000C880B990B0E94850AAB01BA
:10118000BC0193018201C35DDE4F88819981CD52FC
:10119000D1400E948D0026E636E646EA5FE3C301B1
:1011A000B2010E943A0BC75DDE4F688379838A8360
:1011B0009B83C952D14020E030E04AE755E40E94C9
:1011C0003A0B2B013C0120E030E040E85FE30E9455
:1011D000D60988234CF120E03FEF4FE757E4C301E5
:1011E000B2010E94350B1816D4F420E030E040E242
:1011F00051E4C75DDE4F688179818A819B81C95244
:10120000D1400E943A0B0E94540A61157105C9F041
:10121000C7010197F1F761507109D1F712C0C301FD
:10122000B2010E94540A0AC0C15DDE4F6881CF52EC
:10123000D140C05DDE4F7881C053D140CB010197D2
:10124000F1F715B8C214D30409F04ECF80EA9FE03D
:10125000F7013197F1F70197D9F72ACFC05DDE4F3B
:101260000FB6F894DEBF0FBECDBFDF91CF911F91B7
:101270000F91FF90EF90DF90CF90BF90AF909F9035
:101280008F907F906F905F904F903F902F90089538
:1012900063307105A9F03CF46130710559F062309A
:1012A000710559F008956430710569F06530710574
:1012B00069F008950E943D0308950E944404089532
:1012C0000E94850508950E94C60608950E94070899
:1012D00008955058BB27AA270E9481090C94FB0A45
:1012E0000E94ED0A38F00E94F40A20F039F49F3F82
:1012F00019F426F40C94EA0A0EF4E095E7FB0C943A
:10130000E40AE92F0E940C0B58F3BA17620773071F
:101310008407950720F079F4A6F50C942E0B0EF4B3
:10132000E0950B2EBA2FA02D0B01B90190010C01F5
:10133000CA01A0011124FF27591B99F0593F50F40D
:10134000503E68F11A16F040A22F232F342F442765
:10135000585FF3CF469537952795A795F04053955D
:10136000C9F77EF41F16BA0B620B730B840BBAF02D
:101370009150A1F0FF0FBB1F661F771F881FC2F798
:101380000EC0BA0F621F731F841F48F487957795AC
:101390006795B795F7959E3F08F0B0CF9395880F66
:1013A00008F09927EE0F9795879508950E94C00A37
:1013B00008F481E008950E94EF090C94FB0A0E9452
:1013C000F40A58F00E94ED0A40F029F45F3F29F03A
:1013D0000C94E40A51110C942F0B0C94EA0A0E940D
:1013E0000C0B68F39923B1F3552391F3951B550B1F
:1013F000BB27AA2762177307840738F09F5F5F4FE8
:10140000220F331F441FAA1FA9F335D00E2E3AF026
:10141000E0E832D091505040E695001CCAF72BD03E
:10142000FE2F29D0660F771F881FBB1F261737078F
:101430004807AB07B0E809F0BB0B802DBF01FF27C1
:1014400093585F4F3AF09E3F510578F00C94E40AB0
:101450000C942F0B5F3FE4F3983ED4F38695779579
:101460006795B795F7959F5FC9F7880F911D96957A
:10147000879597F90895E1E0660F771F881FBB1FD6
:10148000621773078407BA0720F0621B730B840B83
:10149000BA0BEE1F88F7E09508950E94540A6894ED
:1014A000B1110C942F0B08950E94140B88F09F57D4
:1014B00098F0B92F9927B751B0F0E1F0660F771F78
:1014C000881F991F1AF0BA95C9F714C0B13091F06E
:1014D0000E942E0BB1E008950C942E0B672F782FED
:1014E0008827B85F39F0B93FCCF386957795679533
:1014F000B395D9F73EF490958095709561957F4F9F
:101500008F4F9F4F0895E89409C097FB3EF4909544
:101510008095709561957F4F8F4F9F4F9923A9F0CC
:10152000F92F96E9BB279395F6958795779567955B
:10153000B795F111F8CFFAF4BB0F11F460FF1BC09F
:101540006F5F7F4F8F4F9F4F16C0882311F096E932
:1015500011C0772321F09EE8872F762F05C06623E0
:1015600071F096E8862F70E060E02AF09A95660F99
:10157000771F881FDAF7880F9695879597F9089552
:10158000990F0008550FAA0BE0E8FEEF1616170694
:10159000E807F907C0F012161306E407F50798F0FC
:1015A000621B730B840B950B39F40A2661F0232B15
:1015B000242B252B21F408950A2609F4A140A69591
:1015C0008FEF811D811D089597F99F6780E870E076
:1015D00060E008959FEF80EC089500240A941616A9
:1015E000170618060906089500240A941216130611
:1015F000140605060895092E0394000C11F488239F
:1016000052F0BB0F40F4BF2B11F460FF04C06F5FBA
:101610007F4F8F4F9F4F089557FD9058440F551F90
:1016200059F05F3F71F04795880F97FB991F61F064
:101630009F3F79F087950895121613061406551FDB
:10164000F2CF4695F1DF08C0161617061806991F47
:10165000F1CF86957105610508940895E894BB273C
:1016600066277727CB0197F908950E94C00A08F4EE
:101670008FEF08950E944D0B0C94FB0A0E94ED0A17
:1016800038F00E94F40A20F0952311F00C94E40A3B
:101690000C94EA0A11240C942F0B0E940C0B70F38B
:1016A000959FC1F3950F50E0551F629FF001729F07
:1016B000BB27F00DB11D639FAA27F00DB11DAA1F16
:1016C000649F6627B00DA11D661F829F2227B00D63
:1016D000A11D621F739FB00DA11D621F839FA00DEE
:1016E000611D221F749F3327A00D611D231F849F3E
:1016F000600D211D822F762F6A2F11249F57504095
:101700009AF0F1F088234AF0EE0FFF1FBB1F661F0F
:10171000771F881F91505040A9F79E3F510580F0D8
:101720000C94E40A0C942F0B5F3FE4F3983ED4F33F
:10173000869577956795B795F795E7959F5FC1F77C
:10174000FE2B880F911D9695879597F9089597FB25
:10175000072E16F4009407D077FD09D00E94BB0B2A
:1017600007FC05D03EF4909581959F4F08957095A4
:1017700061957F4F0895AA1BBB1B51E107C0AA1FAB
:10178000BB1FA617B70710F0A61BB70B881F991F22
:101790005A95A9F780959095BC01CD010895EE0F5B
:0E17A000FF1F0590F491E02D0994F894FFCFFF
:1017AE0010031003100310030000040004000400D3
:1017BE0004000100D201D201D201D2014B024B0230
:1017CE004B024B020B020B020B020B02BA02BA02C5
:1017DE00BA02BA0210031003100310031003100311
:1017EE001003100310031003100310030B02D20199
:1017FE00B8015D018801000088014B020B02000058
:10180E00D2010000B8010000B801B8010B020000BF
:10181E00D201B801880100008801A4037003A4035B
:10182E007003A403880100008801A4037003A403BD
:10183E007003A4038801000088014B020B02000014
:10184E00D2010000B8010000B801B8010B0200007F
:10185E00D201B801880100008801A4037003A4031B
:10186E007003A403880100008801A4037003A4037D
:10187E007003A40304000400040004000400040028
:10188E00040004000400040004000400040004002A
:10189E00040004000400040004000400040004001A
:1018AE00040004000400040004000400040004000A
:1018BE0004000400040004000400040004000400FA
:1018CE0004000400040004000400040004000400EA
:1018DE0004000400040004000400040004000400DA
:1018EE0004000400040004000400040004000400CA
:1018FE0004000400040004000400040004000400BA
:10190E0004000400040004000400040004000400A9
:10191E000400040004000400040004000400040099
:10192E000400040004000400040004000400040089
:10193E00040004004A018801B801B8010000B80192
:10194E00EE010B020B0200000B024B02EE01EE0148
:10195E000000B8018801B8014A018801B801B80138
:10196E000000B801EE010B020B0200000B024B024D
:10197E00EE01EE010000B8018801B8014A018801AC
:10198E00B801B8010000B8010B024B024B02000077
:10199E004B029302BA02BA02000093024B02930268
:1019AE00B8010000B801EE010B020B0200004B0261
:1019BE009302B8010000B8010B02EE01EE01000027
:1019CE000B02B801EE010800080004000800080030
:1019DE0008000800040008000800080008000400C1
:1019EE0008000800080008000200080008000400B3
:1019FE00080008000800080004000800080008009D
:101A0E000800040008000800080008000200080092
:101A1E000800040008000800080008000400080080
:101A2E00080008000800040008000800080008006C
:101A3E000800040008000800080004000800080060
:101A4E000400080004000800080008000400080054
:101A5E0008000800080002008801060137015D0138
:101A6E008801060137015D018801060137015D011C
:101A7E008801060137015D01880106014A015D01F9
:101A8E00880106014A015D01880106014A015D01D6
:101A9E00880106014A015D018801060137015D01D9
:101AAE008801060137015D012601C400E900060127
:101ABE002601C400E90006012601C400E900060162
:101ACE002601C400E9005D01E900E90026015D017F
:101ADE00E90037012601D000AF00D000C400060196
:101AEE00AF00D000C400D000AF00D000C40006018B
:101AFE00AF008801060137015D018801060137013B
:101B0E005D012601C400E90006012601C400E900BA
:101B1E0006012601C400E90006012601C400E90001
:101B2E005D01E900E90026015D01E90037012601AA
:101B3E00D000AF00D000C4000601AF00D000C4003A
:101B4E00D000AF00D000C4000601AF000C000C00A6
:101B5E00180018000C000C00180018000C000C00E7
:101B6E00180018000C000C00180018000C000C00D7
:101B7E00180018000C000C00180018000C000C00C7
:101B8E00180018000C000C001800180004000400C7
:101B9E001800180006000600180018000C000C00B3
:101BAE00180018000C000C00180018000C000C0097
:101BBE00180018000C000C000C00040004001800A3
:101BCE00180006000600180018000C000C00180083
:101BDE0018000C000C00180018000C000C00180067
:101BEE0018000C000C0006018801880172018801A2
:101BFE009F0188015D010B020B025D010B020B02BE
:101C0E00EE010B024B020B026E026E0210030B0270
:101C1E000B024B026E024B020B02BA020B020000C9
:101C2E00000000000B024B026E026E02BA024B0263
:101C3E004B026E020B020B024B02EE019F0188015A
:101C4E000B02000010030B020B024B026E024B0242
:101C5E000B02BA020B020000000000000B024B0246
:101C6E006E026E02BA024B024B026E020B020B02A6
:101C7E004B02EE019F0188010B020C0006000C00C6
:101C8E001800180006000C000C00040003000C00E5
:101C9E0006000C001800180006000C0003000300DC
:101CAE000C0006000C000C000C000C000C000C00CC
:101CBE000C00060006000C00180018000C0018009E
:101CCE0018000C00180018000C00180018000C006A
:101CDE0018001800030003000C0006000C000C0096
:101CEE000C000C000C000C000C00060006000C0092
:101CFE00180018000C00180018000C00180018002E
:0E1D0E000C00180018000C001800180003004C
:00000001FF
