:100000000C9435000C945D000C945D000C945D0024
:100010000C945D000C945D000C945D000C945D00EC
:100020000C945D000C945D000C945D000C945D00DC
:100030000C945D000C945D000C945D000C945D00CC
:100040000C945D000C945D000C945D000C945D00BC
:100050000C945D000C945D000C945D000C945D00AC
:100060000C945D000C945D007E0011241FBECFEF48
:10007000D8E0DEBFCDBF16E0A0E0B1E0EEE5F5E1EF
:1000800002C005900D92AE36B107D9F726E0AEE674
:10009000B6E001C01D92A237B207E1F710E0C5E358
:1000A000D0E004C02197FE010E94A70AC433D10703
:1000B000C9F70E945F000C94AD0A0C94000080E127
:1000C00097E228EC30E0F9013197F1F70197D9F781
:1000D0000CC0BE018EE696E00E9420082196C63034
:1000E000D105BCF3C1E0D0E0F4CF60E070E08EE673
:1000F00096E00E942008C1E0D0E0EBCF62E070E023
:100100008EE696E00E9485000895FC01718360836D
:1001100008952F923F924F925F926F927F928F92AB
:100120009F92AF92BF92CF92DF92EF92FF920F9386
:100130001F93CF93DF93CDB7DEB763970FB6F894D5
:10014000DEBF0FBECDBF1C016A017B01C901B80132
:1001500020E030E040E05FE30E94120A4B015C01C6
:1001600024B181E090E0F101008002C0880F991F66
:100170000A94E2F7822B84B920E030E0A901C7019C
:10018000B6010E94AE088111D5C025B181E090E092
:10019000F101008002C0880F991F0A94E2F7809550
:1001A000822385B92BEA3AEA4AE250E4C501B40158
:1001B0000E94120A2B013C01A5019401C501B40162
:1001C0000E9442086B017C0120E030E040E85FE3E0
:1001D000C301B2010E94AE0888230CF468C020E07D
:1001E0003FEF4FE757E4C701B6010E940D0A18160A
:1001F0000CF045C020E030E04AE754E4C501B4010A
:100200000E94B3082B013C0120E030E04AEF54E4A7
:100210000E94120A4B015C0120E030E040E85FE3FD
:100220000E94AE0888232CF120E03FEF4FE757E40F
:10023000C501B4010E940D0A1816B4F420E030E0A4
:1002400040E251E4C301B2010E94120A0E942C094B
:100250006115710571F128EC30E0C9010197F1F7E2
:1002600061507109D1F725C0C501B4010E942C0964
:1002700002C061E070E0CB010197F1F71AC020E005
:1002800030E04FE753E4C301B2010E940D0A181693
:1002900044F4C701B6010E942C09CB010197F1F784
:1002A0000BC0C301B2010E942C09698302C0E1E0C6
:1002B000E983F981FA95F1F720E030E04AEF54E460
:1002C000C701B6010E94120A4B015C0120E030E038
:1002D00040E85FE30E94AE08882334F120E03FEF5E
:1002E0004FE757E4C501B4010E940D0A1816BCF48B
:1002F00020E030E040E251E4C701B6010E94120A5A
:100300000E942C096115710509F493C128EC30E0B5
:10031000C9010197F1F761507109D1F78AC1C5018F
:10032000B4010E942C0902C061E070E0CB0101978A
:10033000F1F77FC1A701960160E070E080E89FE3DC
:100340000E94B30820E030E04AE754E40E94120A19
:100350006B017C01A5019401C501B4010E94420812
:10036000A70196010E94B3080E9425094B015C0178
:1003700020E030E040E05FE3C701B6010E94120ACE
:10038000181419041A041B040CF053C120E030E0C7
:100390004AE754E40E94120A6D877E878F87988B04
:1003A0002BEA3AEA4AE250E40E94120A6B017C010D
:1003B0002D853E854F855889CA01B9010E944208A2
:1003C00069877A878B879C87C701B6010E942C09B1
:1003D0006B8B69857A858B859C850E942C097A8B2D
:1003E000698B00E010E00F2EF8EC6F2E712CF02DD1
:1003F00020E030E040E85FE3C701B6010E94AE08AC
:1004000088230CF46BC020E03FEF4FE757E4698589
:100410007A858B859C850E940D0A18160CF04FC0BA
:1004200020E030E04AE754E46D857E858F85988929
:100430000E94B3086D837E838F83988720E030E02D
:100440004AEF54E40E94120A69837A838B839C8367
:1004500020E030E040E85FE30E94AE0888234CF1E2
:1004600020E03FEF4FE757E469817A818B819C81DF
:100470000E940D0A1816B4F420E030E040E251E486
:100480006D817E818F8198850E94120A0E942C09BD
:100490006115710539F1C3010197F1F761507109D7
:1004A000D1F720C069817A818B819C810E942C09BF
:1004B00002C061E070E0CB010197F1F713C020E0CA
:1004C00030E04FE753E4C701B6010E940D0A181649
:1004D00044F489899A890197F1F707C04424439429
:1004E00001C04B88842D8A95F1F725B181E090E019
:1004F000F101008002C0880F991F0A94E2F7822B55
:1005000085B920E030E040E85FE3C701B6010E9412
:10051000AE0888230CF46BC020E03FEF4FE757E4B0
:1005200069857A858B859C850E940D0A18160CF0CA
:100530004FC020E030E04AE754E46D857E858F852A
:1005400098890E94B3086D837E838F83988720E00B
:1005500030E04AEF54E40E94120A69837A838B8365
:100560009C8320E030E040E85FE30E94AE088823EF
:100570004CF120E03FEF4FE757E469817A818B81AE
:100580009C810E940D0A1816B4F420E030E040E28D
:1005900051E46D817E818F8198850E94120A0E94AC
:1005A0002C096115710539F1C3010197F1F761500B
:1005B0007109D1F720C069817A818B819C810E9469
:1005C0002C0902C061E070E0CB010197F1F713C084
:1005D00020E030E04FE753E4C701B6010E940D0A66
:1005E000181644F489899A890197F1F707C05524B0
:1005F000539401C05B88852D8A95F1F795B121E070
:1006000030E0F101008002C0220F331F0A94E2F7AC
:10061000822F8095892385B90F5F1F4FC801012E56
:10062000000CAA0BBB0B88159905AA05BB050CF499
:10063000DFCE63960FB6F894DEBF0FBECDBFDF915D
:10064000CF911F910F91FF90EF90DF90CF90BF90CF
:10065000AF909F908F907F906F905F904F903F9062
:100660002F9008952F923F924F925F926F927F92B8
:100670008F929F92AF92BF92CF92DF92EF92FF92B2
:100680000F931F93CF93DF93CDB7DEB76A970FB663
:10069000F894DEBF0FBECDBF1C018AE0E0E0F1E0C0
:1006A000DE01119601900D928A95E1F78AE0EAE069
:1006B000F1E0DE011B9601900D928A95E1F7109210
:1006C0007106109270064E0185E1880E911C0F2E66
:1006D000F8ECEF2EF12CF02D91E0998F1A8E80918D
:1006E000700690917106892B09F07CC0199B09C096
:1006F00002C0199B0DC0E1E0E093700610927106F4
:10070000EECF6E01FBE0CF0ED11CCE0101965C0155
:10071000F601619171916F01C7010E947F0A072E56
:10072000000C880B990B0E945D092B013C01F5011F
:10073000619171915F01072E000C880B990B0E944B
:100740005D09AB01BC0193018201C1010E948900D6
:10075000A3019201C301B2010E9442086D8B7E8BFE
:100760008F8B988F20E030E04AEF54E40E94120A09
:100770002B013C0120E030E040E85FE30E94AE083E
:1007800088232CF120E03FEF4FE757E4C301B2018B
:100790000E940D0A1816B4F420E030E040E251E463
:1007A0006D897E898F89988D0E94120A0E942C097A
:1007B0006115710589F0C7010197F1F76150710961
:1007C000D1F70AC0C301B2010E942C0902C0698D91
:1007D0007A8DCB010197F1F715B8C814D90409F047
:1007E00088CF7DCF80EA9FE028EC30E0F901319797
:1007F000F1F70197D9F76A960FB6F894DEBF0FBEEE
:10080000CDBFDF91CF911F910F91FF90EF90DF90BF
:10081000CF90BF90AF909F908F907F906F905F90A0
:100820004F903F902F9008952F923F924F925F925A
:100830006F927F928F929F92AF92BF92CF92DF92F0
:10084000EF92FF920F931F93CF93DF93CDB7DEB755
:10085000C658D1400FB6F894DEBF0FBECDBFCB5700
:10086000DE4F99838883C558D14080ECE4E1F1E004
:10087000DE01119601900D928A95E1F780ECE4ED8E
:10088000F1E0DE01AF53BF4F01900D928A95E1F781
:1008900010927106109270064E018FE7881A8EEF43
:1008A000980A0F2EF7E72F2E33243394F02D0F2EB6
:1008B000F8ECEF2EF12CF02D07C08091700690918E
:1008C0007106892B09F099C0199B10C002C0199BB1
:1008D00014C091E0909370061092710688EE93E038
:1008E000F7013197F1F70197D9F77FC06E01E1EC7D
:1008F000CE0ED11CCE0101965C01F6016191719181
:100900006F01C1010E947F0A072E000C880B990B12
:100910000E945D092B013C01F501619171915F011C
:10092000072E000C880B990B0E945D09AB01BC01DE
:1009300093018201CB57DE4F88819981C558D14000
:100940000E94890026E636E646EA5FE3C301B2016B
:100950000E94120ACF57DE4F688379838A839B8374
:10096000C158D14020E030E04AEF54E40E94120A1E
:100970002B013C0120E030E040E85FE30E94AE083C
:1009800088234CF120E03FEF4FE757E4C301B20169
:100990000E940D0A1816D4F420E030E040E251E441
:1009A000CF57DE4F688179818A819B81C158D140C0
:1009B0000E94120A0E942C096115710589F0C70175
:1009C0000197F1F761507109D1F70AC0C301B20173
:1009D0000E942C0902C061E070E0CB010197F1F7A1
:1009E00015B8C814D90409F072CF80EA9FE0F70166
:1009F0003197F1F70197D9F760CFCA57DE4F0FB69D
:100A0000F894DEBF0FBECDBFDF91CF911F910F9144
:100A1000FF90EF90DF90CF90BF90AF909F908F901E
:100A20007F906F905F904F903F902F9008952F92FE
:100A30003F924F925F926F927F928F929F92AF926E
:100A4000BF92CF92DF92EF92FF920F931F93CF93BB
:100A5000DF93CDB7DEB7CA52D1400FB6F894DEBFF0
:100A60000FBECDBFC75DDE4F99838883C952D14089
:100A700082E9E4E9F2E0DE01119601900D928A9597
:100A8000E1F782E9E6E2F3E0DE01AD56BF4F019007
:100A90000D928A95E1F710927106109270064E0140
:100AA0008BED881A8EEF980A0F2EF7E72F2E33243E
:100AB0003394F02D0F2EF8ECEF2EF12CF02D07C013
:100AC0008091700690917106892B09F099C0199B4D
:100AD00010C002C0199B14C091E090937006109250
:100AE000710688EE93E0F7013197F1F70197D9F796
:100AF0007FC06E01E3E9CE0ED11CCE0101965C01F0
:100B0000F601619171916F01C1010E947F0A072E68
:100B1000000C880B990B0E945D092B013C01F5012B
:100B2000619171915F01072E000C880B990B0E9457
:100B30005D09AB01BC0193018201C75DDE4F888175
:100B40009981C952D1400E94890026E636E646EADC
:100B50005FE3C301B2010E94120ACB5DDE4F6883DE
:100B600079838A839B83C552D14020E030E04AEFED
:100B700054E40E94120A2B013C0120E030E040E8DE
:100B80005FE30E94AE0888234CF120E03FEF4FE77F
:100B900057E4C301B2010E940D0A1816D4F420E0F4
:100BA00030E040E251E4CB5DDE4F688179818A819B
:100BB0009B81C552D1400E94120A0E942C096115E6
:100BC000710589F0C7010197F1F761507109D1F7FB
:100BD0000AC0C301B2010E942C0902C061E070E0AA
:100BE000CB010197F1F715B8C814D90409F072CFF9
:100BF00080EA9FE0F7013197F1F70197D9F760CFCD
:100C0000C65DDE4F0FB6F894DEBF0FBECDBFDF91DD
:100C1000CF911F910F91FF90EF90DF90CF90BF90F9
:100C2000AF909F908F907F906F905F904F903F908C
:100C30002F9008952F923F924F925F926F927F92E2
:100C40008F929F92AF92BF92CF92DF92EF92FF92DC
:100C50000F931F93CF93DF93CDB7DEB7C459D14025
:100C60000FB6F894DEBF0FBECDBFCD56DE4F9983D1
:100C70008883C359D14084EFE8EBF3E0DE0111969D
:100C800001900D928A95E1F78AE9ECEAF4E0DE0141
:100C9000AB50BF4F01900D928A95E1F7109271060B
:100CA000109270064E0181E7881A8EEF980A0F2E77
:100CB000FFE52F2EF5E03F2EF02D0F2EF8ECEF2E56
:100CC000F12CF02D07C08091700690917106892B50
:100CD00009F099C0199B10C002C0199B14C091E083
:100CE000909370061092710688EE93E0F7013197A9
:100CF000F1F70197D9F77FC06E01E5EFCE0ED11C59
:100D0000CE0101965C01F601619171916F01C10103
:100D10000E947F0A072E000C880B990B0E945D0928
:100D20002B013C01F501619171915F01072E000CCF
:100D3000880B990B0E945D09AB01BC0193018201F4
:100D4000CD56DE4F88819981C359D1400E948900D8
:100D500026E636E646EA5FE3C301B2010E94120AC4
:100D6000C157DE4F688379838A839B83CF58D140F4
:100D700020E030E04AEF54E40E94120A2B013C01CB
:100D800020E030E040E85FE30E94AE0888234CF1A9
:100D900020E03FEF4FE757E4C301B2010E940D0A84
:100DA0001816D4F420E030E040E251E4C157DE4FA1
:100DB000688179818A819B81CF58D1400E94120A33
:100DC0000E942C096115710589F0C7010197F1F79F
:100DD00061507109D1F70AC0C301B2010E942C0908
:100DE00002C061E070E0CB010197F1F715B8C814BB
:100DF000D90409F072CF80E197E2F7013197F1F75A
:100E00000197D9F760CFCC56DE4F0FB6F894DEBF0E
:100E10000FBECDBFDF91CF911F910F91FF90EF904B
:100E2000DF90CF90BF90AF909F908F907F906F900A
:100E30005F904F903F902F9008952F923F924F9246
:100E40005F926F927F928F929F92AF92BF92CF925A
:100E5000DF92EF92FF920F931F93CF93DF93CDB763
:100E6000DEB7CE52D1400FB6F894DEBF0FBECDBF75
:100E7000C35DDE4F99838883CD52D14084E9E6E497
:100E8000F5E0DE01119601900D928A95E1F784E973
:100E9000EAEDF5E0DE01AB56BF4F01900D928A9569
:100EA000E1F710927106109270064E0187ED881AD4
:100EB0008EEF980A0F2EF5E62F2EF4E03F2EF02D40
:100EC0000F2EF8ECEF2EF12CF02D07C0809170065C
:100ED00090917106892B09F099C0199B10C002C02E
:100EE000199B14C091E0909370061092710688EEE1
:100EF00093E0F7013197F1F70197D9F77FC06E01C1
:100F0000E5E9CE0ED11CCE0101965C01F60161919E
:100F100071916F01C1010E947F0A072E000C880B9E
:100F2000990B0E945D092B013C01F50161917191C2
:100F30005F01072E000C880B990B0E945D09AB0125
:100F4000BC0193018201C35DDE4F88819981CD523E
:100F5000D1400E94890026E636E646EA5FE3C301F7
:100F6000B2010E94120AC75DDE4F688379838A83CB
:100F70009B83C952D14020E030E04AEF54E40E9404
:100F8000120A2B013C0120E030E040E85FE30E94C0
:100F9000AE0888234CF120E03FEF4FE757E4C30150
:100FA000B2010E940D0A1816D4F420E030E040E2AD
:100FB00051E4C75DDE4F688179818A819B81C95286
:100FC000D1400E94120A0E942C096115710589F016
:100FD000C7010197F1F761507109D1F70AC0C30148
:100FE000B2010E942C0902C061E070E0CB010197C0
:100FF000F1F715B8C814D90409F072CF80EA9FE060
:10100000F7013197F1F70197D9F760CFC25DDE4F55
:101010000FB6F894DEBF0FBECDBFDF91CF911F9109
:101020000F91FF90EF90DF90CF90BF90AF909F9087
:101030008F907F906F905F904F903F902F9008958A
:1010400063307105A9F03CF46130710559F06230EC
:10105000710559F008956430710569F065307105C6
:1010600069F008950E94320308950E9414040895BF
:101070000E94170508950E941A0608950E941D07F0
:1010800008955058BB27AA270E9459080C94D309E9
:101090000E94C50938F00E94CC0920F039F49F3F26
:1010A00019F426F40C94C2090EF4E095E7FB0C94B5
:1010B000BC09E92F0E94E40958F3BA1762077307C5
:1010C0008407950720F079F4A6F50C94060A0EF42F
:1010D000E0950B2EBA2FA02D0B01B90190010C0148
:1010E000CA01A0011124FF27591B99F0593F50F460
:1010F000503E68F11A16F040A22F232F342F4427B8
:10110000585FF3CF469537952795A795F0405395AF
:10111000C9F77EF41F16BA0B620B730B840BBAF07F
:101120009150A1F0FF0FBB1F661F771F881FC2F7EA
:101130000EC0BA0F621F731F841F48F487957795FE
:101140006795B795F7959E3F08F0B0CF9395880FB8
:1011500008F09927EE0F9795879508950E949809B2
:1011600008F481E008950E94C7080C94D3090E94F6
:10117000CC0958F00E94C50940F029F45F3F29F0DE
:101180000C94BC0951110C94070A0C94C2090E94DA
:10119000E40968F39923B1F3552391F3951B550B9B
:1011A000BB27AA2762177307840738F09F5F5F4F3A
:1011B000220F331F441FAA1FA9F335D00E2E3AF079
:1011C000E0E832D091505040E695001CCAF72BD091
:1011D000FE2F29D0660F771F881FBB1F26173707E2
:1011E0004807AB07B0E809F0BB0B802DBF01FF2714
:1011F00093585F4F3AF09E3F510578F00C94BC092C
:101200000C94070A5F3FE4F3983ED4F386957795F4
:101210006795B795F7959F5FC9F7880F911D9695CC
:10122000879597F90895E1E0660F771F881FBB1F28
:10123000621773078407BA0720F0621B730B840BD5
:10124000BA0BEE1F88F7E09508950E942C09689468
:10125000B1110C94070A08950E94EC0988F09F5779
:1012600098F0B92F9927B751B0F0E1F0660F771FCA
:10127000881F991F1AF0BA95C9F714C0B13091F0C0
:101280000E94060AB1E008950C94060A672F782F91
:101290008827B85F39F0B93FCCF386957795679585
:1012A000B395D9F73EF490958095709561957F4FF1
:1012B0008F4F9F4F0895E89409C097FB3EF4909597
:1012C0008095709561957F4F8F4F9F4F9923A9F01F
:1012D000F92F96E9BB279395F695879577956795AE
:1012E000B795F111F8CFFAF4BB0F11F460FF1BC0F2
:1012F0006F5F7F4F8F4F9F4F16C0882311F096E985
:1013000011C0772321F09EE8872F762F05C0662332
:1013100071F096E8862F70E060E02AF09A95660FEB
:10132000771F881FDAF7880F9695879597F90895A4
:10133000990F0008550FAA0BE0E8FEEF16161706E6
:10134000E807F907C0F012161306E407F50798F04E
:10135000621B730B840B950B39F40A2661F0232B67
:10136000242B252B21F408950A2609F4A140A695E3
:101370008FEF811D811D089597F99F6780E870E0C8
:1013800060E008959FEF80EC089500240A941616FB
:10139000170618060906089500240A941216130663
:1013A000140605060895092E0394000C11F48823F1
:1013B00052F0BB0F40F4BF2B11F460FF04C06F5F0D
:1013C0007F4F8F4F9F4F089557FD9058440F551FE3
:1013D00059F05F3F71F04795880F97FB991F61F0B7
:1013E0009F3F79F087950895121613061406551F2E
:1013F000F2CF4695F1DF08C0161617061806991F9A
:10140000F1CF86957105610508940895E894BB278E
:1014100066277727CB0197F908950E94980908F469
:101420008FEF08950E94250A0C94D3090E94C509E4
:1014300038F00E94CC0920F0952311F00C94BC09DF
:101440000C94C20911240C94070A0E94E40970F359
:10145000959FC1F3950F50E0551F629FF001729F59
:10146000BB27F00DB11D639FAA27F00DB11DAA1F68
:10147000649F6627B00DA11D661F829F2227B00DB5
:10148000A11D621F739FB00DA11D621F839FA00D40
:10149000611D221F749F3327A00D611D231F849F90
:1014A000600D211D822F762F6A2F11249F575040E7
:1014B0009AF0F1F088234AF0EE0FFF1FBB1F661F62
:1014C000771F881F91505040A9F79E3F510580F02B
:1014D0000C94BC090C94070A5F3FE4F3983ED4F3E4
:1014E000869577956795B795F795E7959F5FC1F7CF
:1014F000FE2B880F911D9695879597F9089597FB78
:10150000072E16F4009407D077FD09D00E94930AA5
:1015100007FC05D03EF4909581959F4F08957095F6
:1015200061957F4F0895AA1BBB1B51E107C0AA1FFD
:10153000BB1FA617B70710F0A61BB70B881F991F74
:101540005A95A9F780959095BC01CD010895EE0FAD
:0E155000FF1F0590F491E02D0994F894FFCF51
:10155E001003100310031003000004000400040025
:10156E0004000100D201D201D201D2014B024B0282
:10157E004B024B020B020B020B020B02BA02BA0217
:10158E00BA02BA0210031003100310031003100363
:10159E001003100310031003100310030B02D201EB
:1015AE00B8015D018801000088014B020B020000AA
:1015BE00D2010000B8010000B801B8010B02000012
:1015CE00D201B801880100008801A4037003A403AE
:1015DE007003A403880100008801A4037003A40310
:1015EE007003A4038801000088014B020B02000067
:1015FE00D2010000B8010000B801B8010B020000D2
:10160E00D201B801880100008801A4037003A4036D
:10161E007003A403880100008801A4037003A403CF
:10162E007003A4030400040004000400040004007A
:10163E00040004000400040004000400040004007C
:10164E00040004000400040004000400040004006C
:10165E00040004000400040004000400040004005C
:10166E00040004000400040004000400040004004C
:10167E00040004000400040004000400040004003C
:10168E00040004000400040004000400040004002C
:10169E00040004000400040004000400040004001C
:1016AE00040004000400040004000400040004000C
:1016BE0004000400040004000400040004000400FC
:1016CE0004000400040004000400040004000400EC
:1016DE0004000400040004000400040004000400DC
:1016EE00040004004A018801B801B8010000B801E5
:1016FE00EE010B020B0200000B024B02EE01EE019B
:10170E000000B8018801B8014A018801B801B8018A
:10171E000000B801EE010B020B0200000B024B029F
:10172E00EE01EE010000B8018801B8014A018801FE
:10173E00B801B8010000B8010B024B024B020000C9
:10174E004B029302BA02BA02000093024B029302BA
:10175E00B8010000B801EE010B020B0200004B02B3
:10176E009302B8010000B8010B02EE01EE01000079
:10177E000B02B801EE010800080004000800080082
:10178E000800080004000800080008000800040013
:10179E000800080008000800020008000800040005
:1017AE0008000800080008000400080008000800EF
:1017BE0008000400080008000800080002000800E5
:1017CE0008000400080008000800080004000800D3
:1017DE0008000800080004000800080008000800BF
:1017EE0008000400080008000800040008000800B3
:1017FE0004000800040008000800080004000800A7
:10180E0008000800080002008801060137015D018A
:10181E008801060137015D018801060137015D016E
:10182E008801060137015D01880106014A015D014B
:10183E00880106014A015D01880106014A015D0128
:10184E00880106014A015D018801060137015D012B
:10185E008801060137015D012601C400E900060179
:10186E002601C400E90006012601C400E9000601B4
:10187E002601C400E9005D01E900E90026015D01D1
:10188E00E90037012601D000AF00D000C4000601E8
:10189E00AF00D000C400D000AF00D000C4000601DD
:1018AE00AF008801060137015D018801060137018D
:1018BE005D012601C400E90006012601C400E9000D
:1018CE0006012601C400E90006012601C400E90054
:1018DE005D01E900E90026015D01E90037012601FD
:1018EE00D000AF00D000C4000601AF00D000C4008D
:1018FE00D000AF00D000C4000601AF000C000C00F9
:10190E00180018000C000C00180018000C000C0039
:10191E00180018000C000C00180018000C000C0029
:10192E00180018000C000C00180018000C000C0019
:10193E00180018000C000C00180018000400040019
:10194E001800180006000600180018000C000C0005
:10195E00180018000C000C00180018000C000C00E9
:10196E00180018000C000C000C00040004001800F5
:10197E00180006000600180018000C000C001800D5
:10198E0018000C000C00180018000C000C001800B9
:10199E0018000C000C0006018801880172018801F4
:1019AE009F0188015D010B020B025D010B020B0210
:1019BE00EE010B024B020B026E026E0210030B02C3
:1019CE000B024B026E024B020B02BA020B0200001C
:1019DE00000000000B024B026E026E02BA024B02B6
:1019EE004B026E020B020B024B02EE019F018801AD
:1019FE000B02000010030B020B024B026E024B0295
:101A0E000B02BA020B020000000000000B024B0298
:101A1E006E026E02BA024B024B026E020B020B02F8
:101A2E004B02EE019F0188010B020C0006000C0018
:101A3E001800180006000C000C00040003000C0037
:101A4E0006000C001800180006000C00030003002E
:101A5E000C0006000C000C000C000C000C000C001E
:101A6E000C00060006000C00180018000C001800F0
:101A7E0018000C00180018000C00180018000C00BC
:101A8E0018001800030003000C0006000C000C00E8
:101A9E000C000C000C000C000C00060006000C00E4
:101AAE00180018000C00180018000C001800180080
:0E1ABE000C00180018000C001800180003009F
:00000001FF
