S00D00004B6579496E2E7372656337
S11300000C9434000C9451000C9451000C94510045
S11300100C9451000C9451000C9451000C94510018
S11300200C9451000C9451000C9451000C94510008
S11300300C9451000C9451000C9451000C945100F8
S11300400C9451000C9451000C9451000C945100E8
S11300500C9451000C9451000C9451000C945100D8
S11300600C9451000C94510011241FBECFEFD8E022
S1130070DEBFCDBF11E0A0E0B1E0E2E8F1E002C0F4
S113008005900D92AC30B107D9F721E0ACE0B1E0B6
S113009001C01D92AD30B207E1F70E94B8000C9484
S11300A0BF000C94000088B18F6088B940E050E034
S11300B0443051050CF04FC087B1807F87B984B1BB
S11300C0887F84B927B181E090E0042E02C0880FB4
S11300D0991F0A94E2F7922F982B97B998B18095BB
S11300E0892388B920E030E0233031058CF565B1EF
S11300F081E090E0022E02C0880F991F0A94E2F773
S1130100862B85B983B190E0022E02C09595879520
S11301100A94E2F780FD19C0CA01880F991F480F9D
S1130120591F40505F4FFA01E20FF31F808191E0A5
S11301308A3209F490E0992331F091E0833209F492
S113014090E0911109C088E508952F5F3F4FCCCF0F
S11301504F5F5F4FADCF88E50895CF93DF93EC01F8
S1130160CE010E9453008835D9F3DF91CF910895D1
S11301708CE091E00E94AD0080E090E00895F89456
S1050180FFCFAB
S10F01823132333435363738392A302313
S9030000FC
