S00D00004B6579496E2E7372656337
S11300000C9434000C9451000C9451000C94510045
S11300100C9451000C9451000C9451000C94510018
S11300200C9451000C9451000C9451000C94510008
S11300300C9451000C9451000C9451000C945100F8
S11300400C9451000C9451000C9451000C945100E8
S11300500C9451000C9451000C9451000C945100D8
S11300600C9451000C94510011241FBECFEFD8E022
S1130070DEBFCDBF11E0A0E0B1E0ECE5F2E002C0EC
S113008005900D92AC30B107D9F721E0ACE0B1E0B6
S113009001C01D92AD30B207E1F70E9427010C9414
S11300A02C010C9400008BB18F608BB960E070E080
S11300B0643071050CF048C08AB180788AB92AB1DD
S11300C081E090E0062E02C0880F991F0A94E2F79F
S11300D0922F982B9AB99BB1809589238BB920E0F4
S11300E030E0233031056CF54BB180E190E0022E15
S11300F002C0880F991F0A94E2F7482B4BB949B103
S113010050E084239523892BC9F4CB01880F991FD0
S1130110680F791F60507F4FFB01E20FF31F80814E
S113012091E08A3209F490E0992331F091E083322E
S113013009F490E0911109C088E508952F5F3F4FBD
S1130140D0CF6F5F7F4FB4CF88E50895CF93DF930F
S1130150CDB7DEB728970FB6F894DEBF0FBECDBF7C
S113016027B12F6027B90E945300883569F488B1FC
S11301708E7F88B988B18D7F88B988B18B7F88B923
S113018088B1877F88B95AC0682F70E060537109BD
S1130190FE01319688E0DF011D928A95E9F7A3E01C
S11301A0B0E0BB230CF44AC0CB0181709078992352
S11301B024F401978E6F9F6F0196FD01EE0FFF1FD0
S11301C021E030E02C0F3D1FE20FF31F9183808369
S11301D0CB0199230CF40196BC017595679520E039
S11301E030E02430310544F5F901EE0FFF1F81E0C2
S11301F090E08C0F9D1FE80FF91F8081918101977A
S113020061F448B181E090E0022E02C0880F991F8A
S11302100A94E2F7842B88B90CC098B141E050E00D
S1130220022E02C0440F551F0A94E2F74095492359
S113023048B92F5F3F4FD5CF1197B3CF28960FB64C
S1130240F894DEBF0FBECDBFDF91CF9108958CE04F
S10F025091E00E94A600FBCFF894FFCFC1
S10F025C3132333435363738392A302338
S9030000FC
