:100000000C9434000C9451000C9451000C94510049
:100010000C9451000C9451000C9451000C9451001C
:100020000C9451000C9451000C9451000C9451000C
:100030000C9451000C9451000C9451000C945100FC
:100040000C9451000C9451000C9451000C945100EC
:100050000C9451000C9451000C9451000C945100DC
:100060000C9451000C94510011241FBECFEFD8E026
:10007000DEBFCDBF11E0A0E0B1E0E2E8FCE002C0ED
:1000800005900D92A83AB107D9F721E0A8EAB1E0AE
:1000900001C01D92AB3EB207E1F70E94AA020C9488
:1000A0003F060C9400009DEC899F912D112496959C
:1000B00096959695292F220F920F292F220F820FA6
:1000C0000895282F30E03595279535952795359556
:1000D000279535952795922F990F290F922F990FD4
:1000E000891B08950E94120183E08A95F1F70000B0
:1000F0000895CF92EF92FF920F931F93CF93DF93C8
:10010000C82FD62F142FF22E80ED0E943E0180E0E2
:100110000E9470018C2D0E9453000E9470018E2D50
:100120000E9453000E947001802F0E9453000E9481
:1001300070018F2D0E9453000E947001812F0E9438
:1001400053000E9470018D2F0E9453000E94700185
:100150008C2F0E9453000E94700180E00E94700169
:100160000E946801DF91CF911F910F91FF90EF9056
:10017000CF9008956F927F928F929F92AF92BF928D
:10018000CF92DF92EF92FF920F931F93CF93DF9363
:10019000EC013B015A01490180ED0E943E0180E0E3
:1001A0000E9470010E94680181ED0E9465010E9419
:1001B00082018F770E946100F60180830E94820194
:1001C0000E946100F70180830E9482010E94610009
:1001D000F80180830E9482010E946100F401808303
:1001E0000E9482010E946100F50180830E948201C9
:1001F0000E946100F30180830E948C010E946100D3
:1002000088830E946801DF91CF911F910F91FF9029
:10021000EF90DF90CF90BF90AF909F908F907F90A6
:100220006F9008951092B9008DEF8093B8000895F3
:1002300094EA9093BC009091BC009923E4F79091CC
:10024000B900987F983011F0903191F48093BB0001
:1002500084E88093BC008091BC008823E4F78091FF
:10026000B900887F883131F0803431F480E008951E
:1002700081E0089580E0089581E0089594EA9093E4
:10028000BC009091BC009923E4F79091B900987F4D
:10029000983011F0903191F78093BB0094E89093DF
:1002A000BC009091BC009923E4F79091B900987F2D
:1002B000903211F0983541F494E99093BC009091FC
:1002C000BC0094FDFCCFDACF08950E941801089578
:1002D00084E98093BC008091BC0084FDFCCF08952C
:1002E0008093BB0084E88093BC008091BC0088238D
:1002F000E4F78091B900887F883211F081E0089599
:1003000080E0089584EC8093BC008091BC00882339
:10031000E4F78091BB00089584E88093BC0080914D
:10032000BC008823E4F78091BB00089581E00E941F
:100330000005882319F18091C2019091C301893091
:10034000910571F41092C3011092C2012FE946E8A1
:1003500051E0215040405040E1F700C000000EC085
:1003600001969093C3018093C2018FE996E821E042
:10037000815090402040E1F700C0000083E00E94DF
:1003800000058823A1F160910001709101018AE0CC
:1003900090E00E94D7032091C2013091C301AC01CB
:1003A000429FC001439F900D529F900D11242091B8
:1003B000BC013091BD01820F931F9093BD018093CA
:1003C000BC0180910001909101010197909301017E
:1003D000809300011092C3011092C2015FE986E888
:1003E00091E0515080409040E1F700C000008091C2
:1003F0000001909101010196E9F48091BC01909176
:10040000BD010E94140583E090E090930101809368
:1004100000011092BD011092BC011092C501109212
:10042000C4014FE956E881E0415050408040E1F777
:1004300000C00000089581E00E940005882319F1A2
:100440008091C2019091C3018930910571F410929D
:10045000C3011092C2012FE986E891E0215080404B
:100460009040E1F700C000000EC001969093C301D8
:100470008093C2012FE986E891E0215080409040AE
:10048000E1F700C0000083E00E940005882309F422
:1004900045C08091BE019091BF01892BD1F480911C
:1004A000C2019091C3019C01220F331F880F991F35
:1004B000880F991F880F991F820F931F9093C30174
:1004C0008093C20181E090E09093BF018093BE01D0
:1004D0001CC08091C0019091C101FC01EE0FFF1F73
:1004E000E055FE4F2091C2013091C301318320833A
:1004F00001969093C1018093C0011092C3011092A4
:10050000C2011092BF011092BE012FE986E891E06E
:10051000215080409040E1F700C000008091C00170
:100520009091C1010697A9F480EB91E00E94F1053A
:100530001092C1011092C0011092C5011092C40125
:100540002FE986E891E0215080409040E1F700C01B
:10055000000008950E94720088EA91E00E946A03F8
:100560006AE171E088EA91E00E944E032FE38DE09A
:1005700093E0215080409040E1F700C000000E94CD
:10058000450587E00E940005882319F18091C40188
:100590009091C5018230910571F41092C5011092BD
:1005A000C4012FE986E891E0215080409040E1F7B6
:1005B00000C000000EC001969093C5018093C40155
:1005C0002FE986E891E0215080409040E1F700C09B
:1005D00000008091C4019091C501019711F40E941F
:1005E00096018091C4019091C501029741F60E9445
:1005F0001B02C5CF8BB18F70962F907F892B8BB943
:100600008BB18E7F8BB98BB182608BB900008BB1BF
:100610008D7F8BB982E48A95F1F700C08BB190E1B0
:10062000699FB00111248F70682B6BB98BB1826008
:100630008BB900008BB18D7F8BB983EF91E001976F
:10064000F1F700C0000008958BB18F70962F907F56
:10065000892B8BB98BB181608BB98BB182608BB9DF
:1006600000008BB18D7F8BB982E48A95F1F700C0D1
:100670008BB190E1699FB00111248F70682B6BB929
:100680008BB182608BB900008BB18D7F8BB983EF0A
:1006900091E00197F1F700C000000895EF92FF92FA
:1006A0000F931F93CF93DF937C018B01C0E0D0E0C9
:1006B000F801EC0FFD1F6081662329F0C7010E943D
:1006C00024032196F5CFDF91CF911F910F91FF90D9
:1006D000EF900895CF93DF93EC018FEF8AB987E80D
:1006E00093E10197F1F700C0000062E0CE010E94A3
:1006F000FA0268E2CE010E94FA026CE0CE010E948A
:10070000FA0266E0CE010E94FA0261E0CE010E9488
:10071000FA0260E271E0CE010E944E039FE32DE0F9
:1007200083E0915020408040E1F700C0000068E283
:1007300071E0CE010E944E039FE32DE083E09150D3
:1007400020408040E1F700C0000068E271E0CE0187
:100750000E944E039FE32DE083E0915020408040B3
:10076000E1F700C0000068E271E0CE010E944E0394
:100770009FE32DE083E0915020408040E1F700C0EE
:100780000000DF91CF910895CF93DF93EC0161E0FA
:100790000E94FA0283EF91E00197F1F700C0000098
:1007A00060E8CE010E94FA02DF91CF9108959C018A
:1007B00081E090E06115710559F0AC01429FC001E4
:1007C000439F900D529F900D112461507109F2CFFB
:1007D000089548B121E030E0B90102C0660F771FEB
:1007E0008A95E2F7CB01462B48B97FE926E831E04C
:1007F000715020403040E1F700C0000098B1809572
:10080000892388B94FE966E871E041506040704043
:10081000E1F700C000000895CF9383EE91E00E94BD
:10082000C4036091C801CDEC6C9F612D11246695C5
:1008300066956695605D83EE91E00E942403609169
:10084000C8016C9F812D1124869586958695880F09
:10085000982F990F990F890F681B605D83EE91E0C7
:100860000E94240368E771E083EE91E00E944E034A
:100870006091C7016C9F612D112466956695669500
:10088000605D83EE91E00E9424036091C7016C9F3C
:10089000812D1124869586958695880F982F990F1E
:1008A000990F890F681B605D83EE91E00E9424031D
:1008B00068E771E083EE91E00E944E036091C6010B
:1008C0006C9F612D1124669566956695605D83EE3B
:1008D00091E00E9424036091C6016C9F812D112438
:1008E000869586958695880F982F990F990F890F71
:1008F000681B605D83EE91E00E94240360EC83EE50
:1009000091E00E94FA026CE971E083EE91E00E94AE
:100910004E036091CC016C9F612D11246695669504
:100920006695605D83EE91E00E9424036091CC01A6
:100930006C9F812D1124869586958695880F982F1A
:10094000990F990F890F681B605D83EE91E00E94FB
:1009500024036FE971E083EE91E00E944E03609101
:10096000CB016C9F612D1124669566956695605D3F
:1009700083EE91E00E9424036091CB016C9F812D56
:100980001124869586958695880F982F990F990F33
:10099000890F681B605D83EE91E00E9424036FE97C
:1009A00071E083EE91E00E944E036091CA016C9F5A
:1009B000612D1124669566956695605D83EE91E0E4
:1009C0000E9424036091CA016C9FC12D1124C69519
:1009D000C695C695CC0F8C2F880F880FC80F6C1B3F
:1009E000605D83EE91E00E9424032FE38DE093E0AD
:1009F000215080409040E1F700C00000CF91089561
:100A000049B150E021E030E002C0220F331F8A9547
:100A1000E2F74217530711F481E0089580E008954A
:100A200082E00E94E90308952091E1013091E20102
:100A3000F901EE0FFF1FE353FE4F918380832F5F79
:100A40003F4F3093E2012093E101089520E030E030
:100A50004091E1015091E20124173507ACF42817C9
:100A600039077CF0F9013196EE0FFF1FE353FE4F7B
:100A700040815181F901EE0FFF1FE353FE4F518377
:100A800040832F5F3F4FE4CF0895CF92DF92EF92E4
:100A9000FF920F931F93CF93DF930F2EF6ECCF2E81
:100AA000F1E0DF2EF02D0F2EF7ECEF2EF1E0FF2E10
:100AB000F02D08EC11E029EC31E04AEC51E06BEC50
:100AC00071E08CEC91E00E94BA000E940C048091CD
:100AD000E1019091E201892B59F5C0E0D0E08091CD
:100AE000E1019091E2018C179D0714F18091C801FA
:100AF0008131E1F48091C7018E30C1F483EE91E041
:100B00000E946A0361EA71E083EE91E00E944E0365
:100B10000E941005CE010E9426058091E10190916E
:100B2000E20101979093E2018093E1012196D7CFF2
:100B3000DF91CF911F910F91FF90EF90DF90CF90B9
:100B40000895CF93DF93EC0121E030E0E0E0F0E0A6
:100B5000C217D3076CF0C90183709927892B19F448
:100B6000E259FE4F02C0E359FE4F2F5F3F4FF0CFD7
:100B700020E030E0DB0111972A173B073CF591E0BC
:100B8000DE01A370BB27AB2B09F090E0992391F015
:100B900091E02130310509F090E0992359F0D90115
:100BA000AA0FBB1FAE5FBE4F8D919C91E80FF91F3E
:100BB000319609C0D901AA0FBB1FAE5FBE4F8D9100
:100BC0009C91E80FF91F2F5F3F4FD4CF4E0F5F1F4F
:100BD000CA01059667E070E00E941706DF91CF9189
:100BE0000895CF92DF92EF92FF920F931F93CF93CE
:100BF000DF93EC011881FA807B81DC805D814D2DD3
:100C00006F2D812F99810E94A1050E81E884CA84ED
:100C1000282F4D2D6F2D812F0E947900DF91CF91CC
:100C20001F910F91FF90EF90DF90CF90089597FB69
:100C3000072E16F4009407D077FD09D00E942B06EA
:100C400007FC05D03EF4909581959F4F08957095CF
:100C500061957F4F0895AA1BBB1B51E107C0AA1FD6
:100C6000BB1FA617B70710F0A61BB70B881F991F4D
:100C70005A95A9F780959095BC01CD010895F894F7
:020C8000FFCFA4
:100C820003001F001C001F001E001F001E001F008B
:100C92001F001E001F001E001F007374617274008B
:100CA20057656C636F6D65002E007E7E7E7E2054DC
:100CB200494D45207E7E7E7E0053657420416C61E5
:100CC200726D005365742054696D650045786973CF
:100CD20074696E6720416C61726D73004368616E66
:100CE200676520416C61726D7300466163746F7257
:100CF20079205265736574003A005965732020208B
:100D020020202020202020204E6F004F6B2020200A
:100D1200202020202020204261636B003230002DF1
:080D22000047616D6D616B007B
:00000001FF
