S0130000416C61726D20546F6E65732E73726563FB
S11300000C9434000C943E000C943E000C943E007E
S11300100C943E000C943E000C943E000C943E0064
S11300200C943E000C943E000C943E000C943E0054
S11300300C943E000C943E000C943E000C943E0044
S11300400C943E000C943E000C943E000C943E0034
S11300500C943E000C943E000C943E000C943E0024
S11300600C943E000C943E0011241FBECFEFD8E048
S1130070DEBFCDBF0E94BD000C94EA020C940000C8
S1130080009741F0E9EFF0E03197F1F700C000008C
S11300900197C1F708954F925F926F927F928F926A
S11300A09F92AF92BF92CF92DF92EF92FF92CF9343
S11300B0DF9300D000D0CDB7DEB74B015C0160E028
S11300C070E080E89FE30E94470120E030E04AE7C7
S11300D054E40E947D026B017C01A5019401C501D9
S11300E0B4010E94DB00A70196010E9447010E940F
S11300F0B9012B013C0120E030E040E05FE3C7019F
S1130100B6010E947D0269837A838B839C833B9A28
S11301101414150416041704ECF4C12CD12C760124
S113012069817A818B819C810E94C0014B015C01B1
S1130130CB010E944000439AC4010E9440004398AE
S11301408FEFC81AD80AE80AF80A4C145D046E0442
S11301507F0431F70F900F900F900F90DF91CF91A4
S1130160FF90EF90DF90CF90BF90AF909F908F90D3
S11301707F906F905F904F900895CF93DF93C4E684
S1130180D0E0BE010D2E000C880B990B0E94F101EA
S11301909B01AC0160E070E088EC92E40E944B00AB
S11301A02196C83E83E0D80761F780E090E0DF91B4
S11301B0CF9108955058BB27AA270E94F2000C94AF
S11301C043020E94350238F00E943C0220F039F4C8
S11301D09F3F19F426F40C9432020EF4E095E7FBE9
S11301E00C942C02E92F0E94540258F3BA176207A8
S11301F073078407950720F079F4A6F50C9476022A
S11302000EF4E0950B2EBA2FA02D0B01B90190012D
S11302100C01CA01A0011124FF27591B99F0593F71
S113022050F4503E68F11A16F040A22F232F342FB9
S11302304427585FF3CF469537952795A795F04007
S11302405395C9F77EF41F16BA0B620B730B840B1C
S1130250BAF09150A1F0FF0FBB1F661F771F881FD4
S1130260C2F70EC0BA0F621F731F841F48F487952C
S113027077956795B795F7959E3F08F0B0CF93951E
S1130280880F08F09927EE0F9795879508950E9497
S11302905B010C9443020E943C0258F00E94350218
S11302A040F029F45F3F29F00C942C0251110C9476
S11302B077020C9432020E94540268F39923B1F33A
S11302C0552391F3951B550BBB27AA276217730778
S11302D0840738F09F5F5F4F220F331F441FAA1F0C
S11302E0A9F335D00E2E3AF0E0E832D091505040C8
S11302F0E695001CCAF72BD0FE2F29D0660F771F76
S1130300881FBB1F261737074807AB07B0E809F05B
S1130310BB0B802DBF01FF2793585F4F3AF09E3FE0
S1130320510578F00C942C020C9477025F3FE4F3AF
S1130330983ED4F3869577956795B795F7959F5F23
S1130340C9F7880F911D9695879597F90895E1E06F
S1130350660F771F881FBB1F621773078407BA07CE
S113036020F0621B730B840BBA0BEE1F88F7E09529
S113037008950E94C0016894B1110C947702089505
S11303800E945C0288F09F5798F0B92F9927B751C3
S1130390B0F0E1F0660F771F881F991F1AF0BA9525
S11303A0C9F714C0B13091F00E947602B1E008950B
S11303B00C947602672F782F8827B85F39F0B93FFD
S11303C0CCF3869577956795B395D9F73EF49095D8
S11303D08095709561957F4F8F4F9F4F0895E89456
S11303E009C097FB3EF490958095709561957F4F79
S11303F08F4F9F4F9923A9F0F92F96E9BB27939527
S1130400F695879577956795B795F111F8CFFAF436
S1130410BB0F11F460FF1BC06F5F7F4F8F4F9F4F67
S113042016C0882311F096E911C0772321F09EE8C5
S1130430872F762F05C0662371F096E8862F70E02B
S113044060E02AF09A95660F771F881FDAF7880F05
S11304509695879597F9089597F99F6780E870E0D6
S113046060E008959FEF80EC089500240A94161626
S1130470170618060906089500240A94121613068E
S1130480140605060895092E0394000C11F488231C
S113049052F0BB0F40F4BF2B11F460FF04C06F5F38
S11304A07F4F8F4F9F4F089557FD9058440F551F0E
S11304B059F05F3F71F04795880F97FB991F61F0E2
S11304C09F3F79F087950895121613061406551F59
S11304D0F2CF4695F1DF08C0161617061806991FC5
S11304E0F1CF86957105610508940895E894BB27BA
S11304F066277727CB0197F908950E9490020C9400
S113050043020E94350238F00E943C0220F09523F9
S113051011F00C942C020C94320211240C947702E6
S11305200E94540270F3959FC1F3950F50E0551F3C
S1130530629FF001729FBB27F00DB11D639FAA2734
S1130540F00DB11DAA1F649F6627B00DA11D661F83
S1130550829F2227B00DA11D621F739FB00DA11DA4
S1130560621F839FA00D611D221F749F3327A00D5E
S1130570611D231F849F600D211D822F762F6A2FFA
S113058011249F5750409AF0F1F088234AF0EE0F5F
S1130590FF1FBB1F661F771F881F91505040A9F78C
S11305A09E3F510580F00C942C020C9477025F3F1F
S11305B0E4F3983ED4F3869577956795B795F795C8
S11305C0E7959F5FC1F7FE2B880F911D9695879540
S10B05D097F90895F894FFCF98
S9030000FC
