:100000000C9434000C9451000C9451000C94510049
:100010000C9451000C9451000C9451000C9451001C
:100020000C9451000C9451000C9451000C9451000C
:100030000C9451000C9451000C9451000C945100FC
:100040000C9451000C9451000C9451000C945100EC
:100050000C9451000C9451000C9451000C945100DC
:100060000C9451000C94510011241FBECFEFD8E026
:10007000DEBFCDBF11E0A0E0B1E0E0E5FBE002C0F3
:1000800005900D92AC37B107D9F721E0ACE7B1E0AC
:1000900001C01D92AC38B207E1F70E9453000C94E6
:1000A000A6050C94000014B88CE791E00E94FC00B7
:1000B0008CE791E00E94690183B1813029F48CE7DB
:1000C00091E00E947105F8CF83B1823029F48CE76A
:1000D00091E00E94D601F0CF83B1843029F48CE7FF
:1000E00091E00E942C04E8CF83B1883029F48CE79A
:1000F00091E00E941803E0CF83B1803129F48CE7AE
:1001000091E00E949501D8CF83B18032A9F68CE7A7
:1001100091E00E947F01D0CF8BB18F70962F907F9E
:10012000892B8BB98BB18E7F8BB98BB182608BB9E8
:1001300000008BB18D7F8BB982E48A95F1F700C006
:100140008BB190E1699FB00111248F70682B6BB95E
:100150008BB182608BB900008BB18D7F8BB983EF3F
:1001600091E00197F1F700C0000008958BB18F7006
:10017000962F907F892B8BB98BB181608BB98BB116
:1001800082608BB900008BB18D7F8BB982E48A9538
:10019000F1F700C08BB190E1699FB00111248F701D
:1001A000682B6BB98BB182608BB900008BB18D7FEE
:1001B0008BB983EF91E00197F1F700C0000008953B
:1001C000EF92FF920F931F93CF93DF937C018B01EC
:1001D000C0E0D0E0F801EC0FFD1F6081662329F03C
:1001E000C7010E94B6002196F5CFDF91CF911F91F4
:1001F0000F91FF90EF900895CF93DF93EC018FEF75
:100200008AB987E893E10197F1F700C0000062E046
:10021000CE010E948C0068E2CE010E948C006CE04E
:10022000CE010E948C0066E0CE010E948C0061E04D
:10023000CE010E948C0060E071E0CE010E94E000DF
:100240009FE32DE083E0915020408040E1F700C023
:10025000000068E071E0CE010E94E0009FE32DE025
:1002600083E0915020408040E1F700C0000068E04A
:1002700071E0CE010E94E0009FE32DE083E0915009
:1002800020408040E1F700C0000068E071E0CE014E
:100290000E94E0009FE32DE083E0915020408040E9
:1002A000E1F700C00000DF91CF910895CF93DF9375
:1002B000EC0161E00E948C0083EF91E00197F1F77F
:1002C00000C0000060E8CE010E948C00DF91CF9159
:1002D0000895CF93DF93EC010E9456016AE071E02C
:1002E000CE010E94E0002FE986E891E02150804095
:1002F0009040E1F700C00000DF91CF910895FC012C
:1003000020813181215031092530310568F4118275
:1003100010820E946901FFE926E881E0F150204047
:100320008040E1F700C000000895FC012281338184
:100330002115310589F421E030E03383228364E123
:100340000E948C00FFE926E881E0F15020408040C7
:10035000E1F700C0000008952130310591F423E059
:1003600030E0FC013383228364E10E948C00FFE9CA
:1003700026E881E0F15020408040E1F700C0000015
:1003800008952330310589F424E030E0FC01338303
:10039000228364E10E948C00FFE926E881E0F150AD
:1003A00020408040E1F700C000000895FC01228158
:1003B00033812130310579F41382128260E10E9489
:1003C0008C00FFE926E881E0F15020408040E1F711
:1003D00000C0000008952330310591F421E030E0A1
:1003E000FC013383228360E10E948C00FFE926E850
:1003F00081E0F15020408040E1F700C00000089506
:100400002430310589F423E030E0FC01338322837A
:1004100060E10E948C00FFE926E881E0F150204075
:100420008040E1F700C000000895CF93DF93EC0116
:1004300081E090E099838883CE010E94560169E1B2
:1004400071E0CE010E94E0002FE986E891E02150A2
:1004500080409040E1F700C00000DF91CF91089507
:10046000CF93DF93EC0182E090E099838883CE0103
:100470000E94560163E271E0CE010E94E0002FE984
:1004800086E891E0215080409040E1F700C00000F4
:10049000DF91CF910895CF93DF93EC0183E090E05B
:1004A00099838883CE010E9456016CE271E0CE01EF
:1004B0000E94E0002FE986E891E0215080409040C2
:1004C000E1F700C00000DF91CF910895CF93DF9353
:1004D000EC0184E090E099838883CE010E9456016C
:1004E0006CE371E0CE010E94E0002FE986E891E024
:1004F000215080409040E1F700C00000DF91CF9193
:100500000895CF93DF93EC0185E090E09983888391
:10051000CE010E9456016AE471E0CE010E94E00023
:100520002FE986E891E0215080409040E1F700C03B
:100530000000DF91CF910895FF920F931F93CF9307
:10054000DF93EC010E94560162E0CE010E948C0014
:100550001B821A8260918A01605D809188010F2E52
:10056000F0E3FF2EF02DF80E00918601005D109152
:100570008401105DCE010E94B6006F2DCE010E9455
:10058000B60068E571E0CE010E94E000602FCE0168
:100590000E94B600612FCE010E94B60060ECCE0131
:1005A0000E948C006AE571E0CE010E94E0002FE914
:1005B00086E891E0215080409040E1F700C00000C3
:1005C000DF91CF911F910F91FF900895FF920F93AC
:1005D0001F93CF93DF93EC010E94560160918A0133
:1005E000605D809188010F2EF0E3FF2EF02DF80E54
:1005F00000918601005D10918401105DCE010E9482
:10060000B6006F2DCE010E94B60068E571E0CE0104
:100610000E94E000602FCE010E94B600612FCE0143
:100620000E94B600DF91CF911F910F91FF90089526
:10063000CF93DF93EC01888199818130910521F47A
:10064000CE010E94810205C18230910521F4CE01C4
:100650000E941502FEC08330910521F4CE010E9454
:100660003002F7C08430910521F4CE010E944B0284
:10067000F0C08530910521F4CE010E946602E9C0E8
:100680008630910519F0089709F0E3C08A819B81B3
:10069000892B79F580918A0190918B0182309105A7
:1006A00031F0019690938B0180938A0104C01092DF
:1006B0008B0110928A01CE010E945601CE010E9448
:1006C000E60260ECCE010E948C006BE671E0CE0188
:1006D0000E94E00062E0CE010E948C002FE986E8D3
:1006E00091E0215080409040E1F700C000001B8263
:1006F0001A828A819B81019709F049C080918A0101
:1007000090918B01029791F08091880190918901DD
:100710008930910531F00196909389018093880189
:1007200016C0109289011092880111C08091880131
:10073000909189018430910531F00196909389015F
:100740008093880104C01092890110928801CE0123
:100750000E945601CE010E94E60260ECCE010E948A
:100760008C006BE671E0CE010E94E00060E8CE01F3
:100770000E948C002FE986E891E021508040904053
:10078000E1F700C0000081E090E09B838A838A81CA
:100790009B81039769F5809186019091870185304F
:1007A000910531F00196909387018093860104C0F2
:1007B0001092870110928601CE010E945601CE014F
:1007C0000E94E60260ECCE010E948C006BE671E0B4
:1007D000CE010E94E0002FE986E891E021508040A0
:1007E0009040E1F700C0000083E090E09B838A83A3
:1007F0008A819B81049769F580918401909185019C
:100800008930910531F001969093850180938401A0
:1008100004C01092850110928401CE010E945601FD
:10082000CE010E94E60260ECCE010E948C006BE6D5
:1008300071E0CE010E94E0002FE986E891E02150AE
:1008400080409040E1F700C0000084E090E09B838E
:100850008A83DF91CF910895CF93DF93EC01888154
:1008600099818130910521F4CE010E9430020AC1A4
:100870008230910521F4CE010E944B0203C18330E6
:10088000910521F4CE010E946602FCC084309105DE
:1008900021F4CE010E948102F5C08530910521F43A
:1008A000CE010E941502EEC08630910519F008971E
:1008B00009F0E8C08A819B81892B81F580918A01AA
:1008C00090918B01009731F0019790938B01809369
:1008D0008A0106C082E090E090938B0180938A01A8
:1008E000CE010E945601CE010E94E60260ECCE01CC
:1008F0000E948C006BE671E0CE010E94E00062E095
:10090000CE010E948C002FE986E891E021508040C2
:100910009040E1F700C000001B821A828A819B810F
:10092000019709F04BC080918A0190918B01029749
:1009300099F08091880190918901009731F0019799
:10094000909389018093880119C089E090E0909389
:1009500089018093880112C080918801909189015A
:10096000009731F00197909389018093880106C028
:1009700084E090E09093890180938801CE010E94E9
:100980005601CE010E94E60260ECCE010E948C006E
:100990006BE671E0CE010E94E00060E8CE010E94AB
:1009A0008C002FE986E891E0215080409040E1F7EB
:1009B00000C0000081E090E09B838A838A819B8154
:1009C000039771F58091860190918701009731F02E
:1009D0000197909387018093860106C085E090E09F
:1009E0009093870180938601CE010E945601CE012B
:1009F0000E94E60260ECCE010E948C006BE671E082
:100A0000CE010E94E0002FE986E891E0215080406D
:100A10009040E1F700C0000083E090E09B838A8370
:100A20008A819B81049771F5809184019091850161
:100A3000009731F00197909385018093840106C05F
:100A400089E090E09093850180938401CE010E941B
:100A50005601CE010E94E60260ECCE010E948C009D
:100A60006BE671E0CE010E94E0002FE986E891E09C
:100A7000215080409040E1F700C0000084E090E009
:100A80009B838A83DF91CF910895CF93DF93EC010D
:100A90000E945601CE010E94E60260ECCE010E9447
:100AA0008C006BE671E0CE010E94E00062E0CE01B6
:100AB0000E948C006EE0CE010E948C002FE986E837
:100AC00091E0215080409040E1F700C00000DF91AC
:100AD000CF91089510928501109284010E944505DE
:100AE0000895FC01208131812115310519F40E94FE
:100AF000150208952130310541F426E030E0FC0173
:100B0000318320830E94450508952630310541F444
:100B100027E030E0FC01318320830E949C0208958D
:100B20002230310541F428E030E0FC01318320839C
:100B30000E946A0508952830310539F427E030E035
:100B4000FC01318320830E949C020895F894FFCF1A
:100B500057656C636F6D65002E007E7E7E7E20542F
:100B6000494D45207E7E7E7E0053657420416C6138
:100B7000726D005365742054696D65004578697322
:100B800074696E6720416C61726D73004368616EB9
:100B9000676520416C61726D7300466163746F72AA
:100BA00079205265736574003A00596573202020DE
:100BB00020202020202020204E6F004F6B2020205E
:0C0BC000202020202020204261636B00D8
:00000001FF
